{
  "_format": "hh-sol-artifact-1",
  "contractName": "TavernKeeper",
  "sourceName": "contracts/TavernKeeper.sol",
  "abi": [
    {
      "inputs": [],
      "stateMutability": "nonpayable",
      "type": "constructor"
    },
    {
      "inputs": [
        {
          "internalType": "address",
          "name": "target",
          "type": "address"
        }
      ],
      "name": "AddressEmptyCode",
      "type": "error"
    },
    {
      "inputs": [],
      "name": "ECDSAInvalidSignature",
      "type": "error"
    },
    {
      "inputs": [
        {
          "internalType": "uint256",
          "name": "length",
          "type": "uint256"
        }
      ],
      "name": "ECDSAInvalidSignatureLength",
      "type": "error"
    },
    {
      "inputs": [
        {
          "internalType": "bytes32",
          "name": "s",
          "type": "bytes32"
        }
      ],
      "name": "ECDSAInvalidSignatureS",
      "type": "error"
    },
    {
      "inputs": [
        {
          "internalType": "address",
          "name": "implementation",
          "type": "address"
        }
      ],
      "name": "ERC1967InvalidImplementation",
      "type": "error"
    },
    {
      "inputs": [],
      "name": "ERC1967NonPayable",
      "type": "error"
    },
    {
      "inputs": [
        {
          "internalType": "address",
          "name": "sender",
          "type": "address"
        },
        {
          "internalType": "uint256",
          "name": "tokenId",
          "type": "uint256"
        },
        {
          "internalType": "address",
          "name": "owner",
          "type": "address"
        }
      ],
      "name": "ERC721IncorrectOwner",
      "type": "error"
    },
    {
      "inputs": [
        {
          "internalType": "address",
          "name": "operator",
          "type": "address"
        },
        {
          "internalType": "uint256",
          "name": "tokenId",
          "type": "uint256"
        }
      ],
      "name": "ERC721InsufficientApproval",
      "type": "error"
    },
    {
      "inputs": [
        {
          "internalType": "address",
          "name": "approver",
          "type": "address"
        }
      ],
      "name": "ERC721InvalidApprover",
      "type": "error"
    },
    {
      "inputs": [
        {
          "internalType": "address",
          "name": "operator",
          "type": "address"
        }
      ],
      "name": "ERC721InvalidOperator",
      "type": "error"
    },
    {
      "inputs": [
        {
          "internalType": "address",
          "name": "owner",
          "type": "address"
        }
      ],
      "name": "ERC721InvalidOwner",
      "type": "error"
    },
    {
      "inputs": [
        {
          "internalType": "address",
          "name": "receiver",
          "type": "address"
        }
      ],
      "name": "ERC721InvalidReceiver",
      "type": "error"
    },
    {
      "inputs": [
        {
          "internalType": "address",
          "name": "sender",
          "type": "address"
        }
      ],
      "name": "ERC721InvalidSender",
      "type": "error"
    },
    {
      "inputs": [
        {
          "internalType": "uint256",
          "name": "tokenId",
          "type": "uint256"
        }
      ],
      "name": "ERC721NonexistentToken",
      "type": "error"
    },
    {
      "inputs": [],
      "name": "EpochIdMismatch",
      "type": "error"
    },
    {
      "inputs": [],
      "name": "Expired",
      "type": "error"
    },
    {
      "inputs": [],
      "name": "FailedCall",
      "type": "error"
    },
    {
      "inputs": [],
      "name": "InvalidInitialization",
      "type": "error"
    },
    {
      "inputs": [],
      "name": "InvalidTreasury",
      "type": "error"
    },
    {
      "inputs": [],
      "name": "MaxPriceExceeded",
      "type": "error"
    },
    {
      "inputs": [],
      "name": "NotInitializing",
      "type": "error"
    },
    {
      "inputs": [
        {
          "internalType": "address",
          "name": "owner",
          "type": "address"
        }
      ],
      "name": "OwnableInvalidOwner",
      "type": "error"
    },
    {
      "inputs": [
        {
          "internalType": "address",
          "name": "account",
          "type": "address"
        }
      ],
      "name": "OwnableUnauthorizedAccount",
      "type": "error"
    },
    {
      "inputs": [],
      "name": "Reentrancy",
      "type": "error"
    },
    {
      "inputs": [],
      "name": "UUPSUnauthorizedCallContext",
      "type": "error"
    },
    {
      "inputs": [
        {
          "internalType": "bytes32",
          "name": "slot",
          "type": "bytes32"
        }
      ],
      "name": "UUPSUnsupportedProxiableUUID",
      "type": "error"
    },
    {
      "anonymous": false,
      "inputs": [
        {
          "indexed": true,
          "internalType": "address",
          "name": "owner",
          "type": "address"
        },
        {
          "indexed": true,
          "internalType": "address",
          "name": "approved",
          "type": "address"
        },
        {
          "indexed": true,
          "internalType": "uint256",
          "name": "tokenId",
          "type": "uint256"
        }
      ],
      "name": "Approval",
      "type": "event"
    },
    {
      "anonymous": false,
      "inputs": [
        {
          "indexed": true,
          "internalType": "address",
          "name": "owner",
          "type": "address"
        },
        {
          "indexed": true,
          "internalType": "address",
          "name": "operator",
          "type": "address"
        },
        {
          "indexed": false,
          "internalType": "bool",
          "name": "approved",
          "type": "bool"
        }
      ],
      "name": "ApprovalForAll",
      "type": "event"
    },
    {
      "anonymous": false,
      "inputs": [
        {
          "indexed": false,
          "internalType": "uint256",
          "name": "_fromTokenId",
          "type": "uint256"
        },
        {
          "indexed": false,
          "internalType": "uint256",
          "name": "_toTokenId",
          "type": "uint256"
        }
      ],
      "name": "BatchMetadataUpdate",
      "type": "event"
    },
    {
      "anonymous": false,
      "inputs": [
        {
          "indexed": false,
          "internalType": "uint64",
          "name": "version",
          "type": "uint64"
        }
      ],
      "name": "Initialized",
      "type": "event"
    },
    {
      "anonymous": false,
      "inputs": [
        {
          "indexed": true,
          "internalType": "address",
          "name": "oldToken",
          "type": "address"
        },
        {
          "indexed": true,
          "internalType": "address",
          "name": "newToken",
          "type": "address"
        }
      ],
      "name": "KeepTokenUpdated",
      "type": "event"
    },
    {
      "anonymous": false,
      "inputs": [
        {
          "indexed": false,
          "internalType": "uint256",
          "name": "_tokenId",
          "type": "uint256"
        }
      ],
      "name": "MetadataUpdate",
      "type": "event"
    },
    {
      "anonymous": false,
      "inputs": [
        {
          "indexed": true,
          "internalType": "uint256",
          "name": "tokenId",
          "type": "uint256"
        },
        {
          "indexed": false,
          "internalType": "string",
          "name": "newUri",
          "type": "string"
        }
      ],
      "name": "MetadataUpdated",
      "type": "event"
    },
    {
      "anonymous": false,
      "inputs": [
        {
          "indexed": true,
          "internalType": "address",
          "name": "king",
          "type": "address"
        },
        {
          "indexed": false,
          "internalType": "uint256",
          "name": "amount",
          "type": "uint256"
        }
      ],
      "name": "OfficeEarningsClaimed",
      "type": "event"
    },
    {
      "anonymous": false,
      "inputs": [
        {
          "indexed": true,
          "internalType": "address",
          "name": "newKing",
          "type": "address"
        },
        {
          "indexed": false,
          "internalType": "uint256",
          "name": "newPrice",
          "type": "uint256"
        },
        {
          "indexed": false,
          "internalType": "uint256",
          "name": "paidAmount",
          "type": "uint256"
        },
        {
          "indexed": false,
          "internalType": "string",
          "name": "uri",
          "type": "string"
        }
      ],
      "name": "OfficeTaken",
      "type": "event"
    },
    {
      "anonymous": false,
      "inputs": [
        {
          "indexed": true,
          "internalType": "address",
          "name": "previousOwner",
          "type": "address"
        },
        {
          "indexed": true,
          "internalType": "address",
          "name": "newOwner",
          "type": "address"
        }
      ],
      "name": "OwnershipTransferred",
      "type": "event"
    },
    {
      "anonymous": false,
      "inputs": [
        {
          "indexed": true,
          "internalType": "address",
          "name": "prevKing",
          "type": "address"
        },
        {
          "indexed": false,
          "internalType": "uint256",
          "name": "amount",
          "type": "uint256"
        }
      ],
      "name": "PreviousKingPaid",
      "type": "event"
    },
    {
      "anonymous": false,
      "inputs": [
        {
          "indexed": false,
          "internalType": "address",
          "name": "newSigner",
          "type": "address"
        }
      ],
      "name": "SignerUpdated",
      "type": "event"
    },
    {
      "anonymous": false,
      "inputs": [
        {
          "indexed": true,
          "internalType": "address",
          "name": "to",
          "type": "address"
        },
        {
          "indexed": true,
          "internalType": "uint256",
          "name": "tokenId",
          "type": "uint256"
        },
        {
          "indexed": false,
          "internalType": "uint256",
          "name": "price",
          "type": "uint256"
        }
      ],
      "name": "TavernKeeperMinted",
      "type": "event"
    },
    {
      "anonymous": false,
      "inputs": [
        {
          "indexed": true,
          "internalType": "address",
          "name": "to",
          "type": "address"
        },
        {
          "indexed": true,
          "internalType": "uint256",
          "name": "tokenId",
          "type": "uint256"
        },
        {
          "indexed": false,
          "internalType": "uint256",
          "name": "price",
          "type": "uint256"
        },
        {
          "indexed": false,
          "internalType": "uint256",
          "name": "nonce",
          "type": "uint256"
        }
      ],
      "name": "TavernKeeperMintedWithSignature",
      "type": "event"
    },
    {
      "anonymous": false,
      "inputs": [
        {
          "indexed": false,
          "internalType": "uint256",
          "name": "t1",
          "type": "uint256"
        },
        {
          "indexed": false,
          "internalType": "uint256",
          "name": "t2",
          "type": "uint256"
        },
        {
          "indexed": false,
          "internalType": "uint256",
          "name": "t3",
          "type": "uint256"
        }
      ],
      "name": "TierPricesUpdated",
      "type": "event"
    },
    {
      "anonymous": false,
      "inputs": [
        {
          "indexed": true,
          "internalType": "uint256",
          "name": "tokenId",
          "type": "uint256"
        },
        {
          "indexed": false,
          "internalType": "uint256",
          "name": "amount",
          "type": "uint256"
        }
      ],
      "name": "TokensClaimed",
      "type": "event"
    },
    {
      "anonymous": false,
      "inputs": [
        {
          "indexed": true,
          "internalType": "address",
          "name": "from",
          "type": "address"
        },
        {
          "indexed": true,
          "internalType": "address",
          "name": "to",
          "type": "address"
        },
        {
          "indexed": true,
          "internalType": "uint256",
          "name": "tokenId",
          "type": "uint256"
        }
      ],
      "name": "Transfer",
      "type": "event"
    },
    {
      "anonymous": false,
      "inputs": [
        {
          "indexed": true,
          "internalType": "address",
          "name": "treasury",
          "type": "address"
        },
        {
          "indexed": false,
          "internalType": "uint256",
          "name": "amount",
          "type": "uint256"
        }
      ],
      "name": "TreasuryFee",
      "type": "event"
    },
    {
      "anonymous": false,
      "inputs": [
        {
          "indexed": true,
          "internalType": "address",
          "name": "implementation",
          "type": "address"
        }
      ],
      "name": "Upgraded",
      "type": "event"
    },
    {
      "inputs": [],
      "name": "ABS_MAX_INIT_PRICE",
      "outputs": [
        {
          "internalType": "uint256",
          "name": "",
          "type": "uint256"
        }
      ],
      "stateMutability": "view",
      "type": "function"
    },
    {
      "inputs": [],
      "name": "DEFAULT_RATE",
      "outputs": [
        {
          "internalType": "uint256",
          "name": "",
          "type": "uint256"
        }
      ],
      "stateMutability": "view",
      "type": "function"
    },
    {
      "inputs": [],
      "name": "DIVISOR",
      "outputs": [
        {
          "internalType": "uint256",
          "name": "",
          "type": "uint256"
        }
      ],
      "stateMutability": "view",
      "type": "function"
    },
    {
      "inputs": [],
      "name": "EPOCH_PERIOD",
      "outputs": [
        {
          "internalType": "uint256",
          "name": "",
          "type": "uint256"
        }
      ],
      "stateMutability": "view",
      "type": "function"
    },
    {
      "inputs": [],
      "name": "FEE",
      "outputs": [
        {
          "internalType": "uint256",
          "name": "",
          "type": "uint256"
        }
      ],
      "stateMutability": "view",
      "type": "function"
    },
    {
      "inputs": [],
      "name": "HALVING_PERIOD",
      "outputs": [
        {
          "internalType": "uint256",
          "name": "",
          "type": "uint256"
        }
      ],
      "stateMutability": "view",
      "type": "function"
    },
    {
      "inputs": [],
      "name": "INITIAL_DPS",
      "outputs": [
        {
          "internalType": "uint256",
          "name": "",
          "type": "uint256"
        }
      ],
      "stateMutability": "view",
      "type": "function"
    },
    {
      "inputs": [],
      "name": "MIN_INIT_PRICE",
      "outputs": [
        {
          "internalType": "uint256",
          "name": "",
          "type": "uint256"
        }
      ],
      "stateMutability": "view",
      "type": "function"
    },
    {
      "inputs": [],
      "name": "NEW_PRICE_MULTIPLIER",
      "outputs": [
        {
          "internalType": "uint256",
          "name": "",
          "type": "uint256"
        }
      ],
      "stateMutability": "view",
      "type": "function"
    },
    {
      "inputs": [],
      "name": "PRECISION",
      "outputs": [
        {
          "internalType": "uint256",
          "name": "",
          "type": "uint256"
        }
      ],
      "stateMutability": "view",
      "type": "function"
    },
    {
      "inputs": [],
      "name": "PRICE_MULTIPLIER",
      "outputs": [
        {
          "internalType": "uint256",
          "name": "",
          "type": "uint256"
        }
      ],
      "stateMutability": "view",
      "type": "function"
    },
    {
      "inputs": [],
      "name": "TAIL_DPS",
      "outputs": [
        {
          "internalType": "uint256",
          "name": "",
          "type": "uint256"
        }
      ],
      "stateMutability": "view",
      "type": "function"
    },
    {
      "inputs": [],
      "name": "TIER1_MAX_ID",
      "outputs": [
        {
          "internalType": "uint256",
          "name": "",
          "type": "uint256"
        }
      ],
      "stateMutability": "view",
      "type": "function"
    },
    {
      "inputs": [],
      "name": "TIER2_MAX_ID",
      "outputs": [
        {
          "internalType": "uint256",
          "name": "",
          "type": "uint256"
        }
      ],
      "stateMutability": "view",
      "type": "function"
    },
    {
      "inputs": [],
      "name": "UPGRADE_INTERFACE_VERSION",
      "outputs": [
        {
          "internalType": "string",
          "name": "",
          "type": "string"
        }
      ],
      "stateMutability": "view",
      "type": "function"
    },
    {
      "inputs": [
        {
          "internalType": "address",
          "name": "to",
          "type": "address"
        },
        {
          "internalType": "uint256",
          "name": "tokenId",
          "type": "uint256"
        }
      ],
      "name": "approve",
      "outputs": [],
      "stateMutability": "nonpayable",
      "type": "function"
    },
    {
      "inputs": [
        {
          "internalType": "address",
          "name": "owner",
          "type": "address"
        }
      ],
      "name": "balanceOf",
      "outputs": [
        {
          "internalType": "uint256",
          "name": "",
          "type": "uint256"
        }
      ],
      "stateMutability": "view",
      "type": "function"
    },
    {
      "inputs": [
        {
          "internalType": "uint256",
          "name": "tokenId",
          "type": "uint256"
        }
      ],
      "name": "calculatePendingTokens",
      "outputs": [
        {
          "internalType": "uint256",
          "name": "",
          "type": "uint256"
        }
      ],
      "stateMutability": "view",
      "type": "function"
    },
    {
      "inputs": [],
      "name": "claimOfficeRewards",
      "outputs": [],
      "stateMutability": "nonpayable",
      "type": "function"
    },
    {
      "inputs": [
        {
          "internalType": "uint256",
          "name": "tokenId",
          "type": "uint256"
        }
      ],
      "name": "claimTokens",
      "outputs": [],
      "stateMutability": "nonpayable",
      "type": "function"
    },
    {
      "inputs": [
        {
          "internalType": "uint256",
          "name": "tokenId",
          "type": "uint256"
        }
      ],
      "name": "getApproved",
      "outputs": [
        {
          "internalType": "address",
          "name": "",
          "type": "address"
        }
      ],
      "stateMutability": "view",
      "type": "function"
    },
    {
      "inputs": [],
      "name": "getDps",
      "outputs": [
        {
          "internalType": "uint256",
          "name": "",
          "type": "uint256"
        }
      ],
      "stateMutability": "view",
      "type": "function"
    },
    {
      "inputs": [
        {
          "internalType": "uint256",
          "name": "tokenId",
          "type": "uint256"
        }
      ],
      "name": "getMintPrice",
      "outputs": [
        {
          "internalType": "uint256",
          "name": "",
          "type": "uint256"
        }
      ],
      "stateMutability": "view",
      "type": "function"
    },
    {
      "inputs": [],
      "name": "getPendingOfficeRewards",
      "outputs": [
        {
          "internalType": "uint256",
          "name": "",
          "type": "uint256"
        }
      ],
      "stateMutability": "view",
      "type": "function"
    },
    {
      "inputs": [],
      "name": "getPrice",
      "outputs": [
        {
          "internalType": "uint256",
          "name": "",
          "type": "uint256"
        }
      ],
      "stateMutability": "view",
      "type": "function"
    },
    {
      "inputs": [],
      "name": "getSlot0",
      "outputs": [
        {
          "components": [
            {
              "internalType": "uint8",
              "name": "locked",
              "type": "uint8"
            },
            {
              "internalType": "uint16",
              "name": "epochId",
              "type": "uint16"
            },
            {
              "internalType": "uint192",
              "name": "initPrice",
              "type": "uint192"
            },
            {
              "internalType": "uint40",
              "name": "startTime",
              "type": "uint40"
            },
            {
              "internalType": "uint256",
              "name": "dps",
              "type": "uint256"
            },
            {
              "internalType": "address",
              "name": "miner",
              "type": "address"
            },
            {
              "internalType": "string",
              "name": "uri",
              "type": "string"
            }
          ],
          "internalType": "struct TavernKeeper.Slot0",
          "name": "",
          "type": "tuple"
        }
      ],
      "stateMutability": "view",
      "type": "function"
    },
    {
      "inputs": [
        {
          "internalType": "address",
          "name": "owner",
          "type": "address"
        }
      ],
      "name": "getTokensOfOwner",
      "outputs": [
        {
          "internalType": "uint256[]",
          "name": "",
          "type": "uint256[]"
        }
      ],
      "stateMutability": "view",
      "type": "function"
    },
    {
      "inputs": [],
      "name": "initialize",
      "outputs": [],
      "stateMutability": "nonpayable",
      "type": "function"
    },
    {
      "inputs": [
        {
          "internalType": "address",
          "name": "_treasury",
          "type": "address"
        }
      ],
      "name": "initializeOfficeV2",
      "outputs": [],
      "stateMutability": "nonpayable",
      "type": "function"
    },
    {
      "inputs": [],
      "name": "initializeRPG",
      "outputs": [],
      "stateMutability": "nonpayable",
      "type": "function"
    },
    {
      "inputs": [
        {
          "internalType": "address",
          "name": "owner",
          "type": "address"
        },
        {
          "internalType": "address",
          "name": "operator",
          "type": "address"
        }
      ],
      "name": "isApprovedForAll",
      "outputs": [
        {
          "internalType": "bool",
          "name": "",
          "type": "bool"
        }
      ],
      "stateMutability": "view",
      "type": "function"
    },
    {
      "inputs": [],
      "name": "keepToken",
      "outputs": [
        {
          "internalType": "address",
          "name": "",
          "type": "address"
        }
      ],
      "stateMutability": "view",
      "type": "function"
    },
    {
      "inputs": [
        {
          "internalType": "uint256",
          "name": "",
          "type": "uint256"
        }
      ],
      "name": "lastClaimTime",
      "outputs": [
        {
          "internalType": "uint256",
          "name": "",
          "type": "uint256"
        }
      ],
      "stateMutability": "view",
      "type": "function"
    },
    {
      "inputs": [
        {
          "internalType": "string",
          "name": "uri",
          "type": "string"
        },
        {
          "internalType": "uint256",
          "name": "amount",
          "type": "uint256"
        },
        {
          "internalType": "uint256",
          "name": "deadline",
          "type": "uint256"
        },
        {
          "internalType": "bytes",
          "name": "signature",
          "type": "bytes"
        }
      ],
      "name": "mintTavernKeeper",
      "outputs": [
        {
          "internalType": "uint256",
          "name": "",
          "type": "uint256"
        }
      ],
      "stateMutability": "payable",
      "type": "function"
    },
    {
      "inputs": [
        {
          "internalType": "uint256",
          "name": "",
          "type": "uint256"
        }
      ],
      "name": "mintingRate",
      "outputs": [
        {
          "internalType": "uint256",
          "name": "",
          "type": "uint256"
        }
      ],
      "stateMutability": "view",
      "type": "function"
    },
    {
      "inputs": [],
      "name": "name",
      "outputs": [
        {
          "internalType": "string",
          "name": "",
          "type": "string"
        }
      ],
      "stateMutability": "view",
      "type": "function"
    },
    {
      "inputs": [
        {
          "internalType": "address",
          "name": "",
          "type": "address"
        }
      ],
      "name": "nonces",
      "outputs": [
        {
          "internalType": "uint256",
          "name": "",
          "type": "uint256"
        }
      ],
      "stateMutability": "view",
      "type": "function"
    },
    {
      "inputs": [],
      "name": "owner",
      "outputs": [
        {
          "internalType": "address",
          "name": "",
          "type": "address"
        }
      ],
      "stateMutability": "view",
      "type": "function"
    },
    {
      "inputs": [
        {
          "internalType": "uint256",
          "name": "tokenId",
          "type": "uint256"
        }
      ],
      "name": "ownerOf",
      "outputs": [
        {
          "internalType": "address",
          "name": "",
          "type": "address"
        }
      ],
      "stateMutability": "view",
      "type": "function"
    },
    {
      "inputs": [],
      "name": "proxiableUUID",
      "outputs": [
        {
          "internalType": "bytes32",
          "name": "",
          "type": "bytes32"
        }
      ],
      "stateMutability": "view",
      "type": "function"
    },
    {
      "inputs": [],
      "name": "renounceOwnership",
      "outputs": [],
      "stateMutability": "nonpayable",
      "type": "function"
    },
    {
      "inputs": [
        {
          "internalType": "address",
          "name": "to",
          "type": "address"
        },
        {
          "internalType": "string",
          "name": "uri",
          "type": "string"
        }
      ],
      "name": "safeMint",
      "outputs": [
        {
          "internalType": "uint256",
          "name": "",
          "type": "uint256"
        }
      ],
      "stateMutability": "nonpayable",
      "type": "function"
    },
    {
      "inputs": [
        {
          "internalType": "address",
          "name": "from",
          "type": "address"
        },
        {
          "internalType": "address",
          "name": "to",
          "type": "address"
        },
        {
          "internalType": "uint256",
          "name": "tokenId",
          "type": "uint256"
        }
      ],
      "name": "safeTransferFrom",
      "outputs": [],
      "stateMutability": "nonpayable",
      "type": "function"
    },
    {
      "inputs": [
        {
          "internalType": "address",
          "name": "from",
          "type": "address"
        },
        {
          "internalType": "address",
          "name": "to",
          "type": "address"
        },
        {
          "internalType": "uint256",
          "name": "tokenId",
          "type": "uint256"
        },
        {
          "internalType": "bytes",
          "name": "data",
          "type": "bytes"
        }
      ],
      "name": "safeTransferFrom",
      "outputs": [],
      "stateMutability": "nonpayable",
      "type": "function"
    },
    {
      "inputs": [
        {
          "internalType": "address",
          "name": "operator",
          "type": "address"
        },
        {
          "internalType": "bool",
          "name": "approved",
          "type": "bool"
        }
      ],
      "name": "setApprovalForAll",
      "outputs": [],
      "stateMutability": "nonpayable",
      "type": "function"
    },
    {
      "inputs": [
        {
          "internalType": "address",
          "name": "_keepToken",
          "type": "address"
        }
      ],
      "name": "setKeepTokenContract",
      "outputs": [],
      "stateMutability": "nonpayable",
      "type": "function"
    },
    {
      "inputs": [
        {
          "internalType": "address",
          "name": "_signer",
          "type": "address"
        }
      ],
      "name": "setSigner",
      "outputs": [],
      "stateMutability": "nonpayable",
      "type": "function"
    },
    {
      "inputs": [
        {
          "internalType": "uint256",
          "name": "_t1",
          "type": "uint256"
        },
        {
          "internalType": "uint256",
          "name": "_t2",
          "type": "uint256"
        },
        {
          "internalType": "uint256",
          "name": "_t3",
          "type": "uint256"
        }
      ],
      "name": "setTierPrices",
      "outputs": [],
      "stateMutability": "nonpayable",
      "type": "function"
    },
    {
      "inputs": [
        {
          "internalType": "address",
          "name": "_treasury",
          "type": "address"
        }
      ],
      "name": "setTreasury",
      "outputs": [],
      "stateMutability": "nonpayable",
      "type": "function"
    },
    {
      "inputs": [],
      "name": "signer",
      "outputs": [
        {
          "internalType": "address",
          "name": "",
          "type": "address"
        }
      ],
      "stateMutability": "view",
      "type": "function"
    },
    {
      "inputs": [],
      "name": "slot0",
      "outputs": [
        {
          "internalType": "uint8",
          "name": "locked",
          "type": "uint8"
        },
        {
          "internalType": "uint16",
          "name": "epochId",
          "type": "uint16"
        },
        {
          "internalType": "uint192",
          "name": "initPrice",
          "type": "uint192"
        },
        {
          "internalType": "uint40",
          "name": "startTime",
          "type": "uint40"
        },
        {
          "internalType": "uint256",
          "name": "dps",
          "type": "uint256"
        },
        {
          "internalType": "address",
          "name": "miner",
          "type": "address"
        },
        {
          "internalType": "string",
          "name": "uri",
          "type": "string"
        }
      ],
      "stateMutability": "view",
      "type": "function"
    },
    {
      "inputs": [
        {
          "internalType": "bytes4",
          "name": "interfaceId",
          "type": "bytes4"
        }
      ],
      "name": "supportsInterface",
      "outputs": [
        {
          "internalType": "bool",
          "name": "",
          "type": "bool"
        }
      ],
      "stateMutability": "view",
      "type": "function"
    },
    {
      "inputs": [],
      "name": "symbol",
      "outputs": [
        {
          "internalType": "string",
          "name": "",
          "type": "string"
        }
      ],
      "stateMutability": "view",
      "type": "function"
    },
    {
      "inputs": [
        {
          "internalType": "uint256",
          "name": "epochId",
          "type": "uint256"
        },
        {
          "internalType": "uint256",
          "name": "deadline",
          "type": "uint256"
        },
        {
          "internalType": "uint256",
          "name": "maxPrice",
          "type": "uint256"
        },
        {
          "internalType": "string",
          "name": "uri",
          "type": "string"
        }
      ],
      "name": "takeOffice",
      "outputs": [
        {
          "internalType": "uint256",
          "name": "price",
          "type": "uint256"
        }
      ],
      "stateMutability": "payable",
      "type": "function"
    },
    {
      "inputs": [],
      "name": "tier1Price",
      "outputs": [
        {
          "internalType": "uint256",
          "name": "",
          "type": "uint256"
        }
      ],
      "stateMutability": "view",
      "type": "function"
    },
    {
      "inputs": [],
      "name": "tier2Price",
      "outputs": [
        {
          "internalType": "uint256",
          "name": "",
          "type": "uint256"
        }
      ],
      "stateMutability": "view",
      "type": "function"
    },
    {
      "inputs": [],
      "name": "tier3Price",
      "outputs": [
        {
          "internalType": "uint256",
          "name": "",
          "type": "uint256"
        }
      ],
      "stateMutability": "view",
      "type": "function"
    },
    {
      "inputs": [
        {
          "internalType": "uint256",
          "name": "tokenId",
          "type": "uint256"
        }
      ],
      "name": "tokenURI",
      "outputs": [
        {
          "internalType": "string",
          "name": "",
          "type": "string"
        }
      ],
      "stateMutability": "view",
      "type": "function"
    },
    {
      "inputs": [
        {
          "internalType": "address",
          "name": "from",
          "type": "address"
        },
        {
          "internalType": "address",
          "name": "to",
          "type": "address"
        },
        {
          "internalType": "uint256",
          "name": "tokenId",
          "type": "uint256"
        }
      ],
      "name": "transferFrom",
      "outputs": [],
      "stateMutability": "nonpayable",
      "type": "function"
    },
    {
      "inputs": [
        {
          "internalType": "address",
          "name": "newOwner",
          "type": "address"
        }
      ],
      "name": "transferOwnership",
      "outputs": [],
      "stateMutability": "nonpayable",
      "type": "function"
    },
    {
      "inputs": [],
      "name": "treasury",
      "outputs": [
        {
          "internalType": "address",
          "name": "",
          "type": "address"
        }
      ],
      "stateMutability": "view",
      "type": "function"
    },
    {
      "inputs": [
        {
          "internalType": "uint256",
          "name": "tokenId",
          "type": "uint256"
        },
        {
          "internalType": "string",
          "name": "newUri",
          "type": "string"
        }
      ],
      "name": "updateTokenURI",
      "outputs": [],
      "stateMutability": "nonpayable",
      "type": "function"
    },
    {
      "inputs": [
        {
          "internalType": "address",
          "name": "newImplementation",
          "type": "address"
        },
        {
          "internalType": "bytes",
          "name": "data",
          "type": "bytes"
        }
      ],
      "name": "upgradeToAndCall",
      "outputs": [],
      "stateMutability": "payable",
      "type": "function"
    },
    {
      "inputs": [],
      "name": "v2StartTime",
      "outputs": [
        {
          "internalType": "uint256",
          "name": "",
          "type": "uint256"
        }
      ],
      "stateMutability": "view",
      "type": "function"
    }
  ],
  "bytecode": "0x60a080604052346100e857306080527ff0c57e16840df040f15088dc2f81fe391c3923bec73e23a9662efc9c229c6a005460ff8160401c166100d9576002600160401b03196001600160401b03821601610073575b604051613d5d90816100ed8239608051818181611f590152611fec0152f35b6001600160401b0319166001600160401b039081177ff0c57e16840df040f15088dc2f81fe391c3923bec73e23a9662efc9c229c6a005581527fc7f505b2f371ae2175ee4913f4499e1f2633a7b5936321eed1cdaeb6115181d290602090a15f80610054565b63f92ee8a960e01b5f5260045ffd5b5f80fdfe60806040526004361015610011575f80fd5b5f803560e01c80630169916a14612d3e57806301ffc9a714612cb657806306fdde0314612be757806307d2e1e214612bca578063081812fc14612b81578063095ea7b314612a95578063113990b81461171c57806318e97fd1146129555780631fa2a6ae146128f1578063238ac933146128c957806323b872dd146128b25780632d72c99f146128975780633410fe6e1461287b5780633850c7bd1461274b5780633adde9c11461272e5780633dbc71fa146126865780633e2066341461239957806342842e0e14612368578063439d8f4e1461234b578063467c5adf1461232357806346e04a2f146121b45780634a079215146121965780634f1ef28614611fad57806352d1902d14611f46578063559e775b14611f295780635de6dc5514611e035780635fea89f114611dd957806361d027b314611db05780636352211e14611d7f5780636c19e78314611cce57806370a0823114611caa578063715018a614611c415780637ecebe0014611c085780638129fc1c1461174b578063877dab7e14611721578063879956601461171c578063889bb00f1461167157806388f4b49e1461164e5780638da5cb5b1461161957806395d89b411461153257806398d5fdca146115025780639c511ad4146114e55780639e42172614610cb2578063a22cb46514610c17578063a2e66a0f14610bf4578063a3e860fe14610bef578063aaf5eb68146103d1578063ad3cb1cc14610ba6578063b0a13a5c14610b7b578063b5d3b8ae14610b5e578063b88d4fde14610aff578063b891f48f14610ae4578063c57981b514610ac7578063c762f773146106cb578063c87b56dd14610697578063c9ae5e0c146105b5578063d204c45e14610526578063e5eb39ec146104ff578063e69be3f314610424578063e985e9c5146103d6578063ef2e0d25146103d1578063f0f4426014610327578063f2fde38b146102fa5763fb8b51a0146102da575f80fd5b346102f757806003193601126102f7576020600454604051908152f35b80fd5b50346102f75760203660031901126102f757610324610317612d83565b61031f613634565b6133d6565b80f35b50346102f75760203660031901126102f757610341612d83565b610349613634565b6001600160a01b0316801561039957806001600160601b0360a01b60115416176011557f44c4b50ac44926f55eefc40ddaf8d1a7848627c9fd4b811e4a36f9985d78aba26020604051848152a280f35b60405162461bcd60e51b815260206004820152601060248201526f496e76616c696420747265617375727960801b6044820152606490fd5b613012565b50346102f75760403660031901126102f7576104026103f3612d83565b6103fb612d99565b9250612fa2565b9060018060a01b03165f52602052602060ff60405f2054166040519015158152f35b50346102f75760203660031901126102f75761043e612d83565b610446613634565b601154906001600160a01b0382166104c15760018060a01b0316906001600160601b0360a01b1617601155426012556101006a0de0b6b3a764000000000060ff600d54336001600160601b0360a01b600f541617600f55673782dace9d900000600e55161764ffffffffff60d81b4260d81b161717600d5580f35b60405162461bcd60e51b815260206004820152601660248201527520b63932b0b23c9034b734ba34b0b634bd32b2102b1960511b6044820152606490fd5b50346102f75760203660031901126102f757602061051e600435613392565b604051908152f35b50346102f75760403660031901126102f757610540612d83565b6024356001600160401b0381116105b157604060209361059461056f662386f26fc10000943690600401612e72565b610577613634565b61058e835480976105878261320e565b8655613667565b856134af565b838152600285524282822055838152600385522055604051908152f35b8280fd5b50346102f757806003193601126102f757606060c06040516105d681612dd1565b83815283602082015283604082015283838201528360808201528360a08201520152600260ff600d5416146106885760c061060f6132af565b6106846040519283926020845260ff815116602085015261ffff6020820151166040850152600180831b03604082015116606085015264ffffffffff6060820151166080850152608081015160a085015260018060a01b0360a08201511682850152015160e080840152610100830190612d5f565b0390f35b63558a1e0360e11b8152600490fd5b50346102f75760203660031901126102f7576106846106b7600435613a3f565b604051918291602083526020830190612d5f565b50346102f757806003193601126102f757600d54600260ff821614610ab85760ff1916600217600d556106fc6132af565b60a081018051909291906001600160a01b03163303610a805760015461072c906001600160a01b03161515613229565b606081019061074364ffffffffff8351164261321c565b918215610a4a5761075a6080830193845190613348565b948515610a185760c09361080e6108359364ffffffffff421680915261078e60ff87511660ff1660ff19600d541617600d55565b6107b361ffff60208801511662ffff00600d549160081b169062ffff00191617600d55565b6040860151600d80546301000000600160d81b0319165f1960018b1b019290921660181b6301000000600160d81b0316919091179055600d80546001600160d81b031660d89290921b6001600160d81b031916919091179055565b51600e5551600f80546001600160a01b0319166001600160a01b0392909216919091179055565b01519182516001600160401b038111610a0457610853601054612eca565b601f81116109a1575b506020601f821160011461093f57839482939492610934575b50508160011b915f199060031b1c1916176010555b60015482906001600160a01b0316803b15610925576040516340c10f1960e01b8152336004820152602481018490529082908290604490829084905af1801561092957610910575b50506040519081527fab89eac8a47ec964c442bedde0fe9093248f72a543e70ff346e31b652827c66360203392a2600160ff19600d541617600d5580f35b8161091a91612e00565b61092557815f6108d2565b5080fd5b6040513d84823e3d90fd5b015190505f80610875565b6010845280842090601f198316855b81811061098957509583600195969710610971575b505050811b0160105561088a565b01515f1960f88460031b161c191690555f8080610963565b9192602060018192868b01518155019401920161094e565b601084527f1b6847dc741a1b0cd08d278845f9d819d87b734759afb55fe2de5cb82a9ae672601f830160051c810191602084106109fa575b601f0160051c01905b8181106109ef575061085c565b8481556001016109e2565b90915081906109d9565b634e487b7160e01b83526041600452602483fd5b60405162461bcd60e51b815260206004820152600a6024820152694e6f207265776172647360b01b6044820152606490fd5b60405162461bcd60e51b815260206004820152600e60248201526d139bc81d1a5b59481c185cdcd95960921b6044820152606490fd5b60405162461bcd60e51b815260206004820152601060248201526f4e6f742063757272656e74206b696e6760801b6044820152606490fd5b63558a1e0360e11b8252600482fd5b50346102f757806003193601126102f75760206040516107d08152f35b50346102f757806003193601126102f757602061051e61335b565b50346102f75760803660031901126102f757610b19612d83565b610b21612d99565b90604435606435926001600160401b038411610b5a57610b48610324943690600401612e72565b92610b54838383613034565b33613942565b8480fd5b50346102f757806003193601126102f75760206040516103e88152f35b50346102f757806003193601126102f757600260ff600d541614610688576020600e54604051908152f35b50346102f757806003193601126102f75750610684604051610bc9604082612e00565b60058152640352e302e360dc1b6020820152604051918291602083526020830190612d5f565b612d3e565b50346102f757806003193601126102f7576020604051673782dace9d9000008152f35b50346102f75760403660031901126102f757610c31612d83565b602435908115158092036105b1576001600160a01b0316908115610c9e57610c5833612fa2565b825f5260205260405f2060ff1981541660ff83161790556040519081527f17307eab39ab6107e8899845ad3d59bd9653f200f220920489ca2b5937696c3160203392a380f35b630b61174360e31b83526004829052602483fd5b5060803660031901126102f757600435906064356001600160401b03811161092557610ce2903690600401612e72565b90600d54600260ff821614610ab85760ff1916600217600d5560243542116114d657610d0c6132af565b9280151590816114c0575b506114b157610d258361386e565b60443581116114a2578034106114665781610d40823461321c565b80611415575b50508015801561119c575b671bc16d674ec80000820290828204671bc16d674ec8000014171561118857670de0b6b3a764000090046001600160c01b0381111561116957506001600160c01b035b60608501610daa64ffffffffff8251164261321c565b91610dbb6080880193845190613348565b6001546001600160a01b0316979088151580611153575b61105e575b50869750610ee09495969392610e93610eba93610e6761ffff85610e4c60ff602064ffffffffff9901928460018186511601168452604081019660018060c01b03168752894216895260a081019c8d339052610e32426138dc565b809d5260c0820152511660ff1660ff19600d541617600d55565b511662ffff00600d549160081b169062ffff00191617600d55565b51600d80546301000000600160d81b03191660189290921b6301000000600160d81b0316919091179055565b51600d80546001600160d81b03169290911660d81b6001600160d81b031916919091179055565b600e5551600f80546001600160a01b0319166001600160a01b0392909216919091179055565b8251926001600160401b038411610a0457610efc601054612eca565b93601f8511610ffb575b602094508493601f8211600114610f9c57938192939491610f91575b508160011b915f199060031b1c1916176010555b7f6bd27feda26da893d76f461d47d2c4f4c71df28c61d91a79c073d511716f7ab760405183815283858201526060604082015280610f7933946060830190612d5f565b0390a2600160ff19600d541617600d55604051908152f35b90508201515f610f22565b601f1982169460108252808220915b868110610fe4575082600194959610610fcc575b5050811b01601055610f36565b8401515f1960f88460031b161c191690555f80610fbf565b909187600181928588015181550193019101610fab565b601084527f1b6847dc741a1b0cd08d278845f9d819d87b734759afb55fe2de5cb82a9ae672601f820160051c81019560208310611054575b601f0160051c01945b8581106110495750610f06565b84815560010161103c565b9095508590611033565b60a0820180516001600160a01b031699803b1561114f576040516340c10f1960e01b81526001600160a01b039b909b1660048c015260248b0183905288908b90604490829084905af180156111445797899a819a97989961111d575b5050610eba93610e6761ffff64ffffffffff95610ee09a98957fab89eac8a47ec964c442bedde0fe9093248f72a543e70ff346e31b652827c6636020610e939760018060a01b0390511692604051908152a2955050509350509293969594610dd7565b81929394959697509061112f91612e00565b61114057908894939291885f6110ba565b8780fd5b6040513d8a823e3d90fd5b8880fd5b5060a08201516001600160a01b03161515610dd2565b670de0b6b3a7640000811015610d945750670de0b6b3a7640000610d94565b634e487b7160e01b83526011600452602483fd5b6107d082028281046107d0148217156114015761271090046111be818461321c565b90848080806111d18560021c809661321c565b5f80516020613c68833981519152549095906001600160a01b03165af16111f6613319565b50156113c65760115485906001600160a01b03161561135f578080808460018060a01b03601154165af1611228613319565b501561131a576011546040519182526001600160a01b0316907f44c4b50ac44926f55eefc40ddaf8d1a7848627c9fd4b811e4a36f9985d78aba290602090a25b60a08601805185906001600160a01b031680611288575b50505050610d51565b81808581935af1611297613319565b50156112dd57516040519182526001600160a01b0316907f58616205e0a5e583fa41138b0b6ba26d640390a34951e96a8b313dc315da6acb90602090a25f80848161127f565b60405162461bcd60e51b8152602060048201526015602482015274135a5b995c881d1c985b9cd9995c8819985a5b1959605a1b6044820152606490fd5b60405162461bcd60e51b815260206004820152601860248201527f5472656173757279207472616e73666572206661696c656400000000000000006044820152606490fd5b8080809360018060a01b035f80516020613c6883398151915254165af1611384613319565b506112685760405162461bcd60e51b815260206004820152601560248201527413dddb995c881d1c985b9cd9995c8819985a5b1959605a1b6044820152606490fd5b60405162461bcd60e51b815260206004820152601360248201527211195d881d1c985b9cd9995c8819985a5b1959606a1b6044820152606490fd5b634e487b7160e01b84526011600452602484fd5b81808092335af1611424613319565b501561143157815f610d46565b60405162461bcd60e51b815260206004820152600d60248201526c1499599d5b990819985a5b1959609a1b6044820152606490fd5b60405162461bcd60e51b8152602060048201526014602482015273125b9cdd59999a58da595b9d081c185e5b595b9d60621b6044820152606490fd5b631d5ece5360e01b8252600482fd5b63608fb7bf60e01b8152600490fd5b905061ffff80602086015116911614155f610d17565b630407b05b60e31b8152600490fd5b50346102f757806003193601126102f7576020604051610e108152f35b50346102f757806003193601126102f757600260ff600d54161461068857602061051e61152d6132af565b61386e565b50346102f757806003193601126102f75760405190805f80516020613ce8833981519152549061156182612eca565b80855291600181169081156115f25750600114611589575b610684846106b781860382612e00565b5f80516020613ce883398151915281527ff4bad0a69248f59680a4f2b3000328cec71a413447c96781cfe5996daa8c456e939250905b8082106115d8575090915081016020016106b782611579565b9192600181602092548385880101520191019092916115bf565b60ff191660208087019190915292151560051b850190920192506106b79150839050611579565b50346102f757806003193601126102f7575f80516020613c68833981519152546040516001600160a01b039091168152602090f35b50346102f757806003193601126102f7576040516001600160c01b038152602090f35b50346102f757806003193601126102f7575f80516020613cc88339815191525460ff8160401c16908115611707575b506116f8575f80516020613cc8833981519152805468ffffffffffffffffff191660039081179091556040519081527fc7f505b2f371ae2175ee4913f4499e1f2633a7b5936321eed1cdaeb6115181d290602090a180f35b63f92ee8a960e01b8152600490fd5b600391506001600160401b031610155f6116a0565b612daf565b50346102f75760203660031901126102f75760406020916004358152600283522054604051908152f35b50346102f757806003193601126102f7575f80516020613cc883398151915254906001600160401b0360ff8360401c1615921680159081611c00575b6001149081611bf6575b159081611bed575b506116f8578160016001600160401b03195f80516020613cc88339815191525416175f80516020613cc883398151915255611bb8575b60408051926117de8285612e00565b601684527524b73725b2b2b832b9102a30bb32b93725b2b2b832b960511b602085015281519361180e8386612e00565b600685526525a2a2a822a960d11b6020860152611829613b3c565b611831613b3c565b8051906001600160401b038211611ba457819061185b5f80516020613c4883398151915254612eca565b601f8111611b26575b50602090601f8311600114611a9f578692611a94575b50508160011b915f199060031b1c1916175f80516020613c48833981519152555b83516001600160401b038111611a80576118c25f80516020613ce883398151915254612eca565b601f8111611a11575b50602094601f821160011461199657948495829394959261198b575b50508160011b915f199060031b1c1916175f80516020613ce8833981519152555b611910613b3c565b611918613b3c565b611920613b3c565b611929336133d6565b611931613b3c565b611939575080f35b60207fc7f505b2f371ae2175ee4913f4499e1f2633a7b5936321eed1cdaeb6115181d29160ff60401b195f80516020613cc883398151915254165f80516020613cc8833981519152555160018152a180f35b015190505f806118e7565b601f198216955f80516020613ce8833981519152865280862091865b8881106119f9575083600195969798106119e1575b505050811b015f80516020613ce883398151915255611908565b01515f1960f88460031b161c191690555f80806119c7565b919260206001819286850151815501940192016119b2565b5f80516020613ce883398151915285527ff4bad0a69248f59680a4f2b3000328cec71a413447c96781cfe5996daa8c456e601f830160051c81019160208410611a76575b601f0160051c01905b818110611a6b57506118cb565b858155600101611a5e565b9091508190611a55565b634e487b7160e01b84526041600452602484fd5b015190505f8061187a565b5f80516020613c4883398151915287525f80516020613d088339815191529250601f198416875b818110611b0e5750908460019594939210611af6575b505050811b015f80516020613c488339815191525561189b565b01515f1960f88460031b161c191690555f8080611adc565b92936020600181928786015181550195019301611ac6565b9091505f80516020613c488339815191528652601f830160051c5f80516020613d08833981519152019060208410611b8f575b90601f8493920160051c5f80516020613d0883398151915201905b818110611b815750611864565b878155849350600101611b74565b5f80516020613d088339815191529150611b59565b634e487b7160e01b85526041600452602485fd5b6801000000000000000060ff60401b195f80516020613cc88339815191525416175f80516020613cc8833981519152556117cf565b9050155f611799565b303b159150611791565b839150611787565b50346102f75760203660031901126102f7576020906040906001600160a01b03611c30612d83565b168152600883522054604051908152f35b50346102f757806003193601126102f757611c5a613634565b5f80516020613c6883398151915280546001600160a01b0319811690915581906001600160a01b03167f8be0079c531659141344cd1fd0a4f28419497f9722a3daafe3b4186f6b6457e08280a380f35b50346102f75760203660031901126102f757602061051e611cc9612d83565b613280565b50346102f75760203660031901126102f757611ce8612d83565b611cf0613634565b6001600160a01b03168015611d41576020817f5553331329228fbd4123164423717a4a7539f6dfa1c3279a923b98fd681a6c73926001600160601b0360a01b6007541617600755604051908152a180f35b60405162461bcd60e51b8152602060048201526016602482015275496e76616c6964207369676e6572206164647265737360501b6044820152606490fd5b50346102f75760203660031901126102f7576020611d9e600435613447565b6040516001600160a01b039091168152f35b50346102f757806003193601126102f7576011546040516001600160a01b039091168152602090f35b50346102f75760203660031901126102f75760406020916004358152600383522054604051908152f35b50346102f75760203660031901126102f757611e1d612d83565b90611e2782613280565b90611e3182613269565b90611e3f6040519283612e00565b828252611e4b83613269565b602083019490601f1901368637909384916001600160a01b03169060015b85871080611f1f575b15611edb57826001600160a01b03611e8983613476565b1614611e9e575b611e999061320e565b611e69565b958451811015611ec757611ebf81886020611e999460051b8901015261320e565b969050611e90565b634e487b7160e01b84526032600452602484fd5b838583604051928392602084019060208552518091526040840192915b818110611f06575050500390f35b8251845285945060209384019390920191600101611ef8565b5083548110611e72565b50346102f75760203660031901126102f757602090604051908152f35b50346102f757806003193601126102f7577f00000000000000000000000000000000000000000000000000000000000000006001600160a01b03163003611f9e5760206040515f80516020613c888339815191528152f35b63703e46dd60e11b8152600490fd5b5060403660031901126102f757611fc2612d83565b906024356001600160401b03811161092557611fe2903690600401612e72565b6001600160a01b037f000000000000000000000000000000000000000000000000000000000000000016308114908115612174575b5061216557612024613634565b6040516352d1902d60e01b8152926001600160a01b0381169190602085600481865afa80958596612131575b5061206957634c9c8ce360e01b84526004839052602484fd5b9091845f80516020613c88833981519152810361211f5750813b1561210d575f80516020613c8883398151915280546001600160a01b031916821790557fbc7cd75a20ee27fd9adebab32041f755214dbc6bffa90cc0225b39da2e5c2d3b8480a281518390156120f357808360206120ef95519101845af46120e9613319565b91613be9565b5080f35b505050346120fe5780f35b63b398979f60e01b8152600490fd5b634c9c8ce360e01b8452600452602483fd5b632a87526960e21b8552600452602484fd5b9095506020813d60201161215d575b8161214d60209383612e00565b81010312610b5a5751945f612050565b3d9150612140565b63703e46dd60e11b8252600482fd5b5f80516020613c88833981519152546001600160a01b0316141590505f612017565b50346102f757806003193601126102f7576020600554604051908152f35b50346122af5760203660031901126122af576004356121d281613447565b336001600160a01b03909116036122ec576001546121fa906001600160a01b03161515613229565b61220381613392565b80156122b3575f8281526002602052604090204290556001546001600160a01b0316803b156122af576040516340c10f1960e01b815233600482015260248101839052905f908290604490829084905af180156122a45761228e575b5060207fbde2d72390af9d0444bb1c4f938971ecb673ed26f5f57f8fa44c553fe01d0d3a91604051908152a280f35b61229b9193505f90612e00565b5f91602061225f565b6040513d5f823e3d90fd5b5f80fd5b60405162461bcd60e51b81526020600482015260116024820152704e6f20746f6b656e732070656e64696e6760781b6044820152606490fd5b60405162461bcd60e51b815260206004820152600f60248201526e2737ba103a37b5b2b71037bbb732b960891b6044820152606490fd5b346122af575f3660031901126122af576001546040516001600160a01b039091168152602090f35b346122af575f3660031901126122af576020600654604051908152f35b346122af5761239761237936612e90565b9060405192612389602085612e00565b5f8452610b54838383613034565b005b60803660031901126122af576004356001600160401b0381116122af576123c4903690600401612e72565b602435906064356044356001600160401b0382116122af57366023830112156122af578160040135916001600160401b0383116122af5736602484830101116122af576007546001600160a01b031692831561265057824211612617576124af6124b5926124be94335f52600860205260405f2054906040519060208201923360601b84528b6034840152605483015260748201524660948201523060601b60b482015260a8815261247760c882612e00565b5190207f19457468657265756d205369676e6564204d6573736167653a0a3332000000005f52601c52603c5f20926024369201612e3c565b90613a8e565b90929192613ac8565b6001600160a01b0316036125de57335f52600860205260405f206124e2815461320e565b9055813403612599576125015f54916124fb8333613667565b826134af565b805f5260026020524260405f2055805f526003602052662386f26fc1000060405f205561252e5f5461320e565b5f55335f52600860205260405f20545f198101908111612585576020928291604051918252848201527f559169fe4c72d6f1e53ecb3e9d1efe919b7a20073e25657125caa4f76445665960403392a3604051908152f35b634e487b7160e01b5f52601160045260245ffd5b60405162461bcd60e51b815260206004820152601860248201527f496e636f7272656374207061796d656e7420616d6f756e7400000000000000006044820152606490fd5b60405162461bcd60e51b8152602060048201526011602482015270496e76616c6964207369676e617475726560781b6044820152606490fd5b60405162461bcd60e51b815260206004820152601160248201527014da59db985d1d5c9948195e1c1a5c9959607a1b6044820152606490fd5b60405162461bcd60e51b815260206004820152600e60248201526d14da59db995c881b9bdd081cd95d60921b6044820152606490fd5b346122af5760203660031901126122af5761269f612d83565b6126a7613634565b6001600160a01b031680156126f757600154816001600160a01b0382167e66a248680b348de6844119bb393b395f8a5ed03b28a64049b28a4538ab31215f80a36001600160a01b03191617600155005b60405162461bcd60e51b815260206004820152600f60248201526e496e76616c6964206164647265737360881b6044820152606490fd5b346122af575f3660031901126122af57602060405162278d008152f35b346122af575f3660031901126122af57600d54600e549060018060a01b03600f5416604051905f60105461277e81612eca565b808552906001811690811561285757506001146127f5575b50906127a88361068494930383612e00565b604051948460ff879616865261ffff8160081c16602087015260018060c01b038160181c16604087015260d81c6060860152608085015260a084015260e060c084015260e0830190612d5f565b60105f9081527f1b6847dc741a1b0cd08d278845f9d819d87b734759afb55fe2de5cb82a9ae67294939250905b80821061283b57509192509082016020016127a8612796565b9192936001816020925483858901015201910190939291612822565b60ff191660208087019190915291151560051b850190910191506127a89050612796565b346122af575f3660031901126122af5760206040516127108152f35b346122af575f3660031901126122af57602060405160648152f35b346122af576123976128c336612e90565b91613034565b346122af575f3660031901126122af576007546040516001600160a01b039091168152602090f35b346122af5760603660031901126122af577fd378a4164f7b51ea70e857344abe0c937069a658b6847bf045b6351d29bb6b3b6060600435604435602435612936613634565b82600455806005558160065560405192835260208301526040820152a1005b346122af5760403660031901126122af576004356024356001600160401b0381116122af57612988903690600401612e72565b61299182613476565b336001600160a01b0390911603612a35578051156129dd576129d8816106b77f459157ba24c7ab9878b165ef465fa6ae2ab42bcd8445f576be378768b0c4730993856134af565b0390a2005b60405162461bcd60e51b815260206004820152602a60248201527f54617665726e4b65657065723a204d65746164617461205552492063616e6e6f6044820152697420626520656d70747960b01b6064820152608490fd5b60405162461bcd60e51b815260206004820152603260248201527f54617665726e4b65657065723a204f6e6c7920746f6b656e206f776e65722063604482015271616e20757064617465206d6574616461746160701b6064820152608490fd5b346122af5760403660031901126122af57612aae612d83565b602435612aba81613447565b33151580612b6e575b80612b4b575b612b385781906001600160a01b0384811691167f8c5be1e5ebec7d5bd14f71427d1e84f3dd0314c0f7b2291e5b200ac8c7c3b9255f80a45f9081525f80516020613ca88339815191526020526040902080546001600160a01b0319166001600160a01b03909216919091179055005b63a9fbf51f60e01b5f523360045260245ffd5b50612b5581612fa2565b335f908152602091909152604090205460ff1615612ac9565b506001600160a01b038116331415612ac3565b346122af5760203660031901126122af576020611d9e600435612ba381613447565b505f9081525f80516020613ca883398151915260205260409020546001600160a01b031690565b346122af575f3660031901126122af576020601254604051908152f35b346122af575f3660031901126122af576040515f5f80516020613c4883398151915254612c1381612eca565b8084529060018116908115612c925750600114612c3b575b610684836106b781850382612e00565b5f80516020613c488339815191525f9081525f80516020613d08833981519152939250905b808210612c78575090915081016020016106b7612c2b565b919260018160209254838588010152019101909291612c60565b60ff191660208086019190915291151560051b840190910191506106b79050612c2b565b346122af5760203660031901126122af5760043563ffffffff60e01b81168091036122af57602090632483248360e11b8114908115612cfb575b506040519015158152f35b6380ac58cd60e01b811491508115612d2d575b8115612d1c575b5082612cf0565b6301ffc9a760e01b14905082612d15565b635b5e139f60e01b81149150612d0e565b346122af575f3660031901126122af576020604051662386f26fc100008152f35b805180835260209291819084018484015e5f828201840152601f01601f1916010190565b600435906001600160a01b03821682036122af57565b602435906001600160a01b03821682036122af57565b346122af575f3660031901126122af576020604051671bc16d674ec800008152f35b60e081019081106001600160401b03821117612dec57604052565b634e487b7160e01b5f52604160045260245ffd5b90601f801991011681019081106001600160401b03821117612dec57604052565b6001600160401b038111612dec57601f01601f191660200190565b929192612e4882612e21565b91612e566040519384612e00565b8294818452818301116122af578281602093845f960137010152565b9080601f830112156122af57816020612e8d93359101612e3c565b90565b60609060031901126122af576004356001600160a01b03811681036122af57906024356001600160a01b03811681036122af579060443590565b90600182811c92168015612ef8575b6020831014612ee457565b634e487b7160e01b5f52602260045260245ffd5b91607f1691612ed9565b9060405191825f825492612f1584612eca565b8084529360018116908115612f805750600114612f3c575b50612f3a92500383612e00565b565b90505f9291925260205f20905f915b818310612f64575050906020612f3a928201015f612f2d565b6020919350806001915483858901015201910190918492612f4b565b905060209250612f3a94915060ff191682840152151560051b8201015f612f2d565b6001600160a01b03165f9081527f80bb2b638cc20bc4d0a60d66940f3ab4a00c1d7b313497ca82fb0b4ab00793056020526040902090565b6001600160a01b03165f9081527f80bb2b638cc20bc4d0a60d66940f3ab4a00c1d7b313497ca82fb0b4ab00793036020526040902090565b346122af575f3660031901126122af576020604051670de0b6b3a76400008152f35b9091906001600160a01b03831680156131fb578261305181613476565b9133151580613148575b506001600160a01b03831695613075908761310c57612fda565b60018154019055815f527f80bb2b638cc20bc4d0a60d66940f3ab4a00c1d7b313497ca82fb0b4ab007930260205260405f20816001600160601b0360a01b825416179055857fddf252ad1be2c89b69c2b068fc378daa952ba7f163c4a11628f55a4df523b3ef5f80a4506001600160a01b03168083036130f457505050565b6364283d7b60e01b5f5260045260245260445260645ffd5b5f8481525f80516020613ca88339815191526020526040902080546001600160a01b031916905561313c85612fda565b80545f19019055612fda565b90915080613195575b1561315e5783905f61305b565b836001600160a01b03831661317f57637e27328960e01b5f5260045260245ffd5b63177e802f60e01b5f523360045260245260445ffd5b506001600160a01b038216331480156131d9575b8061315157505f8481525f80516020613ca883398151915260205260409020546001600160a01b03163314613151565b506131e382612fa2565b335f908152602091909152604090205460ff166131a9565b633250574960e11b5f525f60045260245ffd5b5f1981146125855760010190565b9190820391821161258557565b1561323057565b60405162461bcd60e51b815260206004820152601160248201527012d9595c151bdad95b881b9bdd081cd95d607a1b6044820152606490fd5b6001600160401b038111612dec5760051b60200190565b6001600160a01b0381161561329c5761329890612fda565b5490565b6322718ad960e21b5f525f60045260245ffd5b604051906132bc82612dd1565b600d5460ff81168352600881901c61ffff166020840152601881901c6001600160c01b0316604084015260d81c6060830152600e546080830152600f546001600160a01b031660a08301528160c06133146010612f02565b910152565b3d15613343573d9061332a82612e21565b916133386040519384612e00565b82523d5f602084013e565b606090565b8181029291811591840414171561258557565b6133636132af565b61337864ffffffffff6060830151164261321c565b801561338c576080612e8d92015190613348565b50505f90565b805f52600260205260405f2054156133d15780612e8d915f5260026020526133be60405f20544261321c565b905f52600360205260405f205490613348565b505f90565b6001600160a01b03168015613434575f80516020613c6883398151915280546001600160a01b0319811683179091556001600160a01b03167f8be0079c531659141344cd1fd0a4f28419497f9722a3daafe3b4186f6b6457e05f80a3565b631e4fbdf760e01b5f525f60045260245ffd5b61345081613476565b906001600160a01b03821615613464575090565b637e27328960e01b5f5260045260245ffd5b5f9081527f80bb2b638cc20bc4d0a60d66940f3ab4a00c1d7b313497ca82fb0b4ab007930260205260409020546001600160a01b031690565b919091805f527f0542a41881ee128a365a727b282c86fa859579490b9bb45aab8503648c8e790060205260405f2083516001600160401b038111612dec576134f78254612eca565b601f81116135ef575b506020601f821160011461356757908060209493927ff8e1a15aba9398e019f0b49df1a4fde98ee17ae345cb5f6b5e2c27f5033e8ce796975f9261355c575b50508160011b915f199060031b1c19161790555b604051908152a1565b015190505f8061353f565b601f19821695835f52815f20965f5b8181106135d7575096600192849260209796957ff8e1a15aba9398e019f0b49df1a4fde98ee17ae345cb5f6b5e2c27f5033e8ce7999a106135bf575b505050811b019055613553565b01515f1960f88460031b161c191690555f80806135b2565b83830151895560019098019760209384019301613576565b825f5260205f20601f830160051c8101916020841061362a575b601f0160051c01905b81811061361f5750613500565b5f8155600101613612565b9091508190613609565b5f80516020613c68833981519152546001600160a01b0316330361365457565b63118cdaa760e01b5f523360045260245ffd5b90602090604051906136798383612e00565b5f82526001600160a01b0384169384156131fb5761369682613476565b6001600160a01b03811680151591908490889084613832575b6136b886612fda565b805460010190555f8381527f80bb2b638cc20bc4d0a60d66940f3ab4a00c1d7b313497ca82fb0b4ab00793028a526040812080546001600160a01b031916841790557fddf252ad1be2c89b69c2b068fc378daa952ba7f163c4a11628f55a4df523b3ef9080a45061381f573b61372f575b50505050565b9161376c91819495936040519384928392630a85bd0160e11b84523360048501525f60248501526044840152608060648401526084830190612d5f565b03815f885af15f91816137df575b506137a8575050613789613319565b80519190826137a55783633250574960e11b5f5260045260245ffd5b01fd5b909291506001600160e01b03191663757a42ff60e11b016137cd57505f808080613729565b633250574960e11b5f5260045260245ffd5b9091508381813d8311613818575b6137f78183612e00565b810103126122af57516001600160e01b0319811681036122af57905f61377a565b503d6137ed565b6339e3563760e11b5f525f60045260245ffd5b5f8381525f80516020613ca88339815191526020526040902080546001600160a01b031916905561386284612fda565b80545f190190556136af565b61388364ffffffffff6060830151164261321c565b610e1081116138ce57610e106138aa6138b193604060018060c01b03910151169283613348565b049061321c565b670de0b6b3a7640000811015612e8d5750670de0b6b3a764000090565b5050670de0b6b3a764000090565b601254801561393457808211613917575050673782dace9d9000005f5b1c662386f26fc10000811061390b5790565b50662386f26fc1000090565b61392e62278d0091673782dace9d9000009361321c565b046138f9565b5050673782dace9d90000090565b823b613950575b5050505050565b604051630a85bd0160e11b81526001600160a01b03918216600482015291811660248301526044820193909352608060648201529116916020908290819061399c906084830190612d5f565b03815f865af15f91816139fa575b506139d857506139b8613319565b805190816139d35782633250574960e11b5f5260045260245ffd5b602001fd5b6001600160e01b03191663757a42ff60e11b016137cd57505f80808080613949565b9091506020813d602011613a37575b81613a1660209383612e00565b810103126122af57516001600160e01b0319811681036122af57905f6139aa565b3d9150613a09565b613a4881613447565b505f527f0542a41881ee128a365a727b282c86fa859579490b9bb45aab8503648c8e7900602052613a7b60405f20612f02565b5f604051613a8a602082612e00565b5290565b8151919060418303613abe57613ab79250602082015190606060408401519301515f1a90613b67565b9192909190565b50505f9160029190565b6004811015613b285780613ada575050565b60018103613af15763f645eedf60e01b5f5260045ffd5b60028103613b0c575063fce698f760e01b5f5260045260245ffd5b600314613b165750565b6335e2f38360e21b5f5260045260245ffd5b634e487b7160e01b5f52602160045260245ffd5b60ff5f80516020613cc88339815191525460401c1615613b5857565b631afcd79f60e31b5f5260045ffd5b91907f7fffffffffffffffffffffffffffffff5d576e7357a4501ddfe92f46681b20a08411613bde579160209360809260ff5f9560405194855216868401526040830152606082015282805260015afa156122a4575f516001600160a01b03811615613bd457905f905f90565b505f906001905f90565b5050505f9160039190565b90613c0d5750805115613bfe57602081519101fd5b63d6bda27560e01b5f5260045ffd5b81511580613c3e575b613c1e575090565b639996b31560e01b5f9081526001600160a01b0391909116600452602490fd5b50803b15613c1656fe80bb2b638cc20bc4d0a60d66940f3ab4a00c1d7b313497ca82fb0b4ab00793009016d09d72d40fdae2fd8ceac6b6234c7706214fd39c1cd1e609a0528c199300360894a13ba1a3210667c828492db98dca3e2076cc3735a920a3ca505d382bbc80bb2b638cc20bc4d0a60d66940f3ab4a00c1d7b313497ca82fb0b4ab0079304f0c57e16840df040f15088dc2f81fe391c3923bec73e23a9662efc9c229c6a0080bb2b638cc20bc4d0a60d66940f3ab4a00c1d7b313497ca82fb0b4ab007930137c58c799b6609234b945e882912ee9ad34948a1dfaa20a97485e1a7752bbf81a264697066735822122058e5fddab3790d7710d84b071d6abc0670e3953ab10a428e4267ce598573bef764736f6c634300081a0033",
  "linkReferences": {},
  "deployedLinkReferences": {}
}