{
  "_format": "hh-sol-artifact-1",
  "contractName": "CellarHook",
  "sourceName": "contracts/hooks/CellarHook.sol",
  "abi": [
    {
      "inputs": [],
      "stateMutability": "nonpayable",
      "type": "constructor"
    },
    {
      "inputs": [
        {
          "internalType": "address",
          "name": "target",
          "type": "address"
        }
      ],
      "name": "AddressEmptyCode",
      "type": "error"
    },
    {
      "inputs": [
        {
          "internalType": "address",
          "name": "implementation",
          "type": "address"
        }
      ],
      "name": "ERC1967InvalidImplementation",
      "type": "error"
    },
    {
      "inputs": [],
      "name": "ERC1967NonPayable",
      "type": "error"
    },
    {
      "inputs": [
        {
          "internalType": "address",
          "name": "spender",
          "type": "address"
        },
        {
          "internalType": "uint256",
          "name": "allowance",
          "type": "uint256"
        },
        {
          "internalType": "uint256",
          "name": "needed",
          "type": "uint256"
        }
      ],
      "name": "ERC20InsufficientAllowance",
      "type": "error"
    },
    {
      "inputs": [
        {
          "internalType": "address",
          "name": "sender",
          "type": "address"
        },
        {
          "internalType": "uint256",
          "name": "balance",
          "type": "uint256"
        },
        {
          "internalType": "uint256",
          "name": "needed",
          "type": "uint256"
        }
      ],
      "name": "ERC20InsufficientBalance",
      "type": "error"
    },
    {
      "inputs": [
        {
          "internalType": "address",
          "name": "approver",
          "type": "address"
        }
      ],
      "name": "ERC20InvalidApprover",
      "type": "error"
    },
    {
      "inputs": [
        {
          "internalType": "address",
          "name": "receiver",
          "type": "address"
        }
      ],
      "name": "ERC20InvalidReceiver",
      "type": "error"
    },
    {
      "inputs": [
        {
          "internalType": "address",
          "name": "sender",
          "type": "address"
        }
      ],
      "name": "ERC20InvalidSender",
      "type": "error"
    },
    {
      "inputs": [
        {
          "internalType": "address",
          "name": "spender",
          "type": "address"
        }
      ],
      "name": "ERC20InvalidSpender",
      "type": "error"
    },
    {
      "inputs": [],
      "name": "FailedCall",
      "type": "error"
    },
    {
      "inputs": [],
      "name": "HookNotImplemented",
      "type": "error"
    },
    {
      "inputs": [],
      "name": "InvalidInitialization",
      "type": "error"
    },
    {
      "inputs": [],
      "name": "NotInitializing",
      "type": "error"
    },
    {
      "inputs": [],
      "name": "NotPoolManager",
      "type": "error"
    },
    {
      "inputs": [
        {
          "internalType": "address",
          "name": "owner",
          "type": "address"
        }
      ],
      "name": "OwnableInvalidOwner",
      "type": "error"
    },
    {
      "inputs": [
        {
          "internalType": "address",
          "name": "account",
          "type": "address"
        }
      ],
      "name": "OwnableUnauthorizedAccount",
      "type": "error"
    },
    {
      "inputs": [
        {
          "internalType": "address",
          "name": "token",
          "type": "address"
        }
      ],
      "name": "SafeERC20FailedOperation",
      "type": "error"
    },
    {
      "inputs": [],
      "name": "UUPSUnauthorizedCallContext",
      "type": "error"
    },
    {
      "inputs": [
        {
          "internalType": "bytes32",
          "name": "slot",
          "type": "bytes32"
        }
      ],
      "name": "UUPSUnsupportedProxiableUUID",
      "type": "error"
    },
    {
      "anonymous": false,
      "inputs": [
        {
          "indexed": true,
          "internalType": "address",
          "name": "owner",
          "type": "address"
        },
        {
          "indexed": true,
          "internalType": "address",
          "name": "spender",
          "type": "address"
        },
        {
          "indexed": false,
          "internalType": "uint256",
          "name": "value",
          "type": "uint256"
        }
      ],
      "name": "Approval",
      "type": "event"
    },
    {
      "anonymous": false,
      "inputs": [
        {
          "indexed": false,
          "internalType": "uint64",
          "name": "version",
          "type": "uint64"
        }
      ],
      "name": "Initialized",
      "type": "event"
    },
    {
      "anonymous": false,
      "inputs": [
        {
          "indexed": true,
          "internalType": "address",
          "name": "previousOwner",
          "type": "address"
        },
        {
          "indexed": true,
          "internalType": "address",
          "name": "newOwner",
          "type": "address"
        }
      ],
      "name": "OwnershipTransferred",
      "type": "event"
    },
    {
      "anonymous": false,
      "inputs": [
        {
          "indexed": true,
          "internalType": "address",
          "name": "contributor",
          "type": "address"
        },
        {
          "indexed": false,
          "internalType": "uint256",
          "name": "amount",
          "type": "uint256"
        }
      ],
      "name": "PotContributed",
      "type": "event"
    },
    {
      "anonymous": false,
      "inputs": [
        {
          "indexed": true,
          "internalType": "address",
          "name": "raider",
          "type": "address"
        },
        {
          "indexed": false,
          "internalType": "uint256",
          "name": "paymentAmount",
          "type": "uint256"
        },
        {
          "indexed": false,
          "internalType": "uint256",
          "name": "rewardAmount",
          "type": "uint256"
        },
        {
          "indexed": false,
          "internalType": "uint256",
          "name": "newInitPrice",
          "type": "uint256"
        },
        {
          "indexed": false,
          "internalType": "uint256",
          "name": "newEpochId",
          "type": "uint256"
        }
      ],
      "name": "Raid",
      "type": "event"
    },
    {
      "anonymous": false,
      "inputs": [
        {
          "indexed": true,
          "internalType": "address",
          "name": "from",
          "type": "address"
        },
        {
          "indexed": true,
          "internalType": "address",
          "name": "to",
          "type": "address"
        },
        {
          "indexed": false,
          "internalType": "uint256",
          "name": "value",
          "type": "uint256"
        }
      ],
      "name": "Transfer",
      "type": "event"
    },
    {
      "anonymous": false,
      "inputs": [
        {
          "indexed": true,
          "internalType": "address",
          "name": "implementation",
          "type": "address"
        }
      ],
      "name": "Upgraded",
      "type": "event"
    },
    {
      "inputs": [],
      "name": "ABS_MAX_INIT_PRICE",
      "outputs": [
        {
          "internalType": "uint256",
          "name": "",
          "type": "uint256"
        }
      ],
      "stateMutability": "view",
      "type": "function"
    },
    {
      "inputs": [],
      "name": "ABS_MIN_INIT_PRICE",
      "outputs": [
        {
          "internalType": "uint256",
          "name": "",
          "type": "uint256"
        }
      ],
      "stateMutability": "view",
      "type": "function"
    },
    {
      "inputs": [],
      "name": "KEEP",
      "outputs": [
        {
          "internalType": "Currency",
          "name": "",
          "type": "address"
        }
      ],
      "stateMutability": "view",
      "type": "function"
    },
    {
      "inputs": [],
      "name": "MAX_EPOCH_PERIOD",
      "outputs": [
        {
          "internalType": "uint256",
          "name": "",
          "type": "uint256"
        }
      ],
      "stateMutability": "view",
      "type": "function"
    },
    {
      "inputs": [],
      "name": "MAX_PRICE_MULTIPLIER",
      "outputs": [
        {
          "internalType": "uint256",
          "name": "",
          "type": "uint256"
        }
      ],
      "stateMutability": "view",
      "type": "function"
    },
    {
      "inputs": [],
      "name": "MIN_EPOCH_PERIOD",
      "outputs": [
        {
          "internalType": "uint256",
          "name": "",
          "type": "uint256"
        }
      ],
      "stateMutability": "view",
      "type": "function"
    },
    {
      "inputs": [],
      "name": "MIN_PRICE_MULTIPLIER",
      "outputs": [
        {
          "internalType": "uint256",
          "name": "",
          "type": "uint256"
        }
      ],
      "stateMutability": "view",
      "type": "function"
    },
    {
      "inputs": [],
      "name": "MON",
      "outputs": [
        {
          "internalType": "Currency",
          "name": "",
          "type": "address"
        }
      ],
      "stateMutability": "view",
      "type": "function"
    },
    {
      "inputs": [],
      "name": "PRICE_MULTIPLIER_SCALE",
      "outputs": [
        {
          "internalType": "uint256",
          "name": "",
          "type": "uint256"
        }
      ],
      "stateMutability": "view",
      "type": "function"
    },
    {
      "inputs": [],
      "name": "UPGRADE_INTERFACE_VERSION",
      "outputs": [
        {
          "internalType": "string",
          "name": "",
          "type": "string"
        }
      ],
      "stateMutability": "view",
      "type": "function"
    },
    {
      "inputs": [
        {
          "components": [
            {
              "internalType": "Currency",
              "name": "currency0",
              "type": "address"
            },
            {
              "internalType": "Currency",
              "name": "currency1",
              "type": "address"
            },
            {
              "internalType": "uint24",
              "name": "fee",
              "type": "uint24"
            },
            {
              "internalType": "int24",
              "name": "tickSpacing",
              "type": "int24"
            },
            {
              "internalType": "contract IHooks",
              "name": "hooks",
              "type": "address"
            }
          ],
          "internalType": "struct PoolKey",
          "name": "key",
          "type": "tuple"
        },
        {
          "internalType": "uint256",
          "name": "amountMON",
          "type": "uint256"
        },
        {
          "internalType": "uint256",
          "name": "amountKEEP",
          "type": "uint256"
        },
        {
          "internalType": "int24",
          "name": "tickLower",
          "type": "int24"
        },
        {
          "internalType": "int24",
          "name": "tickUpper",
          "type": "int24"
        }
      ],
      "name": "addLiquidity",
      "outputs": [],
      "stateMutability": "payable",
      "type": "function"
    },
    {
      "inputs": [
        {
          "internalType": "address",
          "name": "",
          "type": "address"
        },
        {
          "components": [
            {
              "internalType": "Currency",
              "name": "currency0",
              "type": "address"
            },
            {
              "internalType": "Currency",
              "name": "currency1",
              "type": "address"
            },
            {
              "internalType": "uint24",
              "name": "fee",
              "type": "uint24"
            },
            {
              "internalType": "int24",
              "name": "tickSpacing",
              "type": "int24"
            },
            {
              "internalType": "contract IHooks",
              "name": "hooks",
              "type": "address"
            }
          ],
          "internalType": "struct PoolKey",
          "name": "",
          "type": "tuple"
        },
        {
          "components": [
            {
              "internalType": "int24",
              "name": "tickLower",
              "type": "int24"
            },
            {
              "internalType": "int24",
              "name": "tickUpper",
              "type": "int24"
            },
            {
              "internalType": "int256",
              "name": "liquidityDelta",
              "type": "int256"
            },
            {
              "internalType": "bytes32",
              "name": "salt",
              "type": "bytes32"
            }
          ],
          "internalType": "struct ModifyLiquidityParams",
          "name": "",
          "type": "tuple"
        },
        {
          "internalType": "BalanceDelta",
          "name": "",
          "type": "int256"
        },
        {
          "internalType": "BalanceDelta",
          "name": "",
          "type": "int256"
        },
        {
          "internalType": "bytes",
          "name": "",
          "type": "bytes"
        }
      ],
      "name": "afterAddLiquidity",
      "outputs": [
        {
          "internalType": "bytes4",
          "name": "",
          "type": "bytes4"
        },
        {
          "internalType": "BalanceDelta",
          "name": "",
          "type": "int256"
        }
      ],
      "stateMutability": "pure",
      "type": "function"
    },
    {
      "inputs": [
        {
          "internalType": "address",
          "name": "",
          "type": "address"
        },
        {
          "components": [
            {
              "internalType": "Currency",
              "name": "currency0",
              "type": "address"
            },
            {
              "internalType": "Currency",
              "name": "currency1",
              "type": "address"
            },
            {
              "internalType": "uint24",
              "name": "fee",
              "type": "uint24"
            },
            {
              "internalType": "int24",
              "name": "tickSpacing",
              "type": "int24"
            },
            {
              "internalType": "contract IHooks",
              "name": "hooks",
              "type": "address"
            }
          ],
          "internalType": "struct PoolKey",
          "name": "",
          "type": "tuple"
        },
        {
          "internalType": "uint256",
          "name": "",
          "type": "uint256"
        },
        {
          "internalType": "uint256",
          "name": "",
          "type": "uint256"
        },
        {
          "internalType": "bytes",
          "name": "",
          "type": "bytes"
        }
      ],
      "name": "afterDonate",
      "outputs": [
        {
          "internalType": "bytes4",
          "name": "",
          "type": "bytes4"
        }
      ],
      "stateMutability": "pure",
      "type": "function"
    },
    {
      "inputs": [
        {
          "internalType": "address",
          "name": "",
          "type": "address"
        },
        {
          "components": [
            {
              "internalType": "Currency",
              "name": "currency0",
              "type": "address"
            },
            {
              "internalType": "Currency",
              "name": "currency1",
              "type": "address"
            },
            {
              "internalType": "uint24",
              "name": "fee",
              "type": "uint24"
            },
            {
              "internalType": "int24",
              "name": "tickSpacing",
              "type": "int24"
            },
            {
              "internalType": "contract IHooks",
              "name": "hooks",
              "type": "address"
            }
          ],
          "internalType": "struct PoolKey",
          "name": "",
          "type": "tuple"
        },
        {
          "internalType": "uint160",
          "name": "",
          "type": "uint160"
        },
        {
          "internalType": "int24",
          "name": "",
          "type": "int24"
        }
      ],
      "name": "afterInitialize",
      "outputs": [
        {
          "internalType": "bytes4",
          "name": "",
          "type": "bytes4"
        }
      ],
      "stateMutability": "pure",
      "type": "function"
    },
    {
      "inputs": [
        {
          "internalType": "address",
          "name": "",
          "type": "address"
        },
        {
          "components": [
            {
              "internalType": "Currency",
              "name": "currency0",
              "type": "address"
            },
            {
              "internalType": "Currency",
              "name": "currency1",
              "type": "address"
            },
            {
              "internalType": "uint24",
              "name": "fee",
              "type": "uint24"
            },
            {
              "internalType": "int24",
              "name": "tickSpacing",
              "type": "int24"
            },
            {
              "internalType": "contract IHooks",
              "name": "hooks",
              "type": "address"
            }
          ],
          "internalType": "struct PoolKey",
          "name": "",
          "type": "tuple"
        },
        {
          "components": [
            {
              "internalType": "int24",
              "name": "tickLower",
              "type": "int24"
            },
            {
              "internalType": "int24",
              "name": "tickUpper",
              "type": "int24"
            },
            {
              "internalType": "int256",
              "name": "liquidityDelta",
              "type": "int256"
            },
            {
              "internalType": "bytes32",
              "name": "salt",
              "type": "bytes32"
            }
          ],
          "internalType": "struct ModifyLiquidityParams",
          "name": "",
          "type": "tuple"
        },
        {
          "internalType": "BalanceDelta",
          "name": "",
          "type": "int256"
        },
        {
          "internalType": "BalanceDelta",
          "name": "",
          "type": "int256"
        },
        {
          "internalType": "bytes",
          "name": "",
          "type": "bytes"
        }
      ],
      "name": "afterRemoveLiquidity",
      "outputs": [
        {
          "internalType": "bytes4",
          "name": "",
          "type": "bytes4"
        },
        {
          "internalType": "BalanceDelta",
          "name": "",
          "type": "int256"
        }
      ],
      "stateMutability": "pure",
      "type": "function"
    },
    {
      "inputs": [
        {
          "internalType": "address",
          "name": "",
          "type": "address"
        },
        {
          "components": [
            {
              "internalType": "Currency",
              "name": "currency0",
              "type": "address"
            },
            {
              "internalType": "Currency",
              "name": "currency1",
              "type": "address"
            },
            {
              "internalType": "uint24",
              "name": "fee",
              "type": "uint24"
            },
            {
              "internalType": "int24",
              "name": "tickSpacing",
              "type": "int24"
            },
            {
              "internalType": "contract IHooks",
              "name": "hooks",
              "type": "address"
            }
          ],
          "internalType": "struct PoolKey",
          "name": "",
          "type": "tuple"
        },
        {
          "components": [
            {
              "internalType": "bool",
              "name": "zeroForOne",
              "type": "bool"
            },
            {
              "internalType": "int256",
              "name": "amountSpecified",
              "type": "int256"
            },
            {
              "internalType": "uint160",
              "name": "sqrtPriceLimitX96",
              "type": "uint160"
            }
          ],
          "internalType": "struct SwapParams",
          "name": "",
          "type": "tuple"
        },
        {
          "internalType": "BalanceDelta",
          "name": "",
          "type": "int256"
        },
        {
          "internalType": "bytes",
          "name": "",
          "type": "bytes"
        }
      ],
      "name": "afterSwap",
      "outputs": [
        {
          "internalType": "bytes4",
          "name": "",
          "type": "bytes4"
        },
        {
          "internalType": "int128",
          "name": "",
          "type": "int128"
        }
      ],
      "stateMutability": "nonpayable",
      "type": "function"
    },
    {
      "inputs": [
        {
          "internalType": "address",
          "name": "owner",
          "type": "address"
        },
        {
          "internalType": "address",
          "name": "spender",
          "type": "address"
        }
      ],
      "name": "allowance",
      "outputs": [
        {
          "internalType": "uint256",
          "name": "",
          "type": "uint256"
        }
      ],
      "stateMutability": "view",
      "type": "function"
    },
    {
      "inputs": [
        {
          "internalType": "address",
          "name": "spender",
          "type": "address"
        },
        {
          "internalType": "uint256",
          "name": "value",
          "type": "uint256"
        }
      ],
      "name": "approve",
      "outputs": [
        {
          "internalType": "bool",
          "name": "",
          "type": "bool"
        }
      ],
      "stateMutability": "nonpayable",
      "type": "function"
    },
    {
      "inputs": [
        {
          "internalType": "address",
          "name": "account",
          "type": "address"
        }
      ],
      "name": "balanceOf",
      "outputs": [
        {
          "internalType": "uint256",
          "name": "",
          "type": "uint256"
        }
      ],
      "stateMutability": "view",
      "type": "function"
    },
    {
      "inputs": [
        {
          "internalType": "address",
          "name": "sender",
          "type": "address"
        },
        {
          "components": [
            {
              "internalType": "Currency",
              "name": "currency0",
              "type": "address"
            },
            {
              "internalType": "Currency",
              "name": "currency1",
              "type": "address"
            },
            {
              "internalType": "uint24",
              "name": "fee",
              "type": "uint24"
            },
            {
              "internalType": "int24",
              "name": "tickSpacing",
              "type": "int24"
            },
            {
              "internalType": "contract IHooks",
              "name": "hooks",
              "type": "address"
            }
          ],
          "internalType": "struct PoolKey",
          "name": "key",
          "type": "tuple"
        },
        {
          "components": [
            {
              "internalType": "int24",
              "name": "tickLower",
              "type": "int24"
            },
            {
              "internalType": "int24",
              "name": "tickUpper",
              "type": "int24"
            },
            {
              "internalType": "int256",
              "name": "liquidityDelta",
              "type": "int256"
            },
            {
              "internalType": "bytes32",
              "name": "salt",
              "type": "bytes32"
            }
          ],
          "internalType": "struct ModifyLiquidityParams",
          "name": "params",
          "type": "tuple"
        },
        {
          "internalType": "bytes",
          "name": "hookData",
          "type": "bytes"
        }
      ],
      "name": "beforeAddLiquidity",
      "outputs": [
        {
          "internalType": "bytes4",
          "name": "",
          "type": "bytes4"
        }
      ],
      "stateMutability": "nonpayable",
      "type": "function"
    },
    {
      "inputs": [
        {
          "internalType": "address",
          "name": "",
          "type": "address"
        },
        {
          "components": [
            {
              "internalType": "Currency",
              "name": "currency0",
              "type": "address"
            },
            {
              "internalType": "Currency",
              "name": "currency1",
              "type": "address"
            },
            {
              "internalType": "uint24",
              "name": "fee",
              "type": "uint24"
            },
            {
              "internalType": "int24",
              "name": "tickSpacing",
              "type": "int24"
            },
            {
              "internalType": "contract IHooks",
              "name": "hooks",
              "type": "address"
            }
          ],
          "internalType": "struct PoolKey",
          "name": "",
          "type": "tuple"
        },
        {
          "internalType": "uint256",
          "name": "",
          "type": "uint256"
        },
        {
          "internalType": "uint256",
          "name": "",
          "type": "uint256"
        },
        {
          "internalType": "bytes",
          "name": "",
          "type": "bytes"
        }
      ],
      "name": "beforeDonate",
      "outputs": [
        {
          "internalType": "bytes4",
          "name": "",
          "type": "bytes4"
        }
      ],
      "stateMutability": "pure",
      "type": "function"
    },
    {
      "inputs": [
        {
          "internalType": "address",
          "name": "",
          "type": "address"
        },
        {
          "components": [
            {
              "internalType": "Currency",
              "name": "currency0",
              "type": "address"
            },
            {
              "internalType": "Currency",
              "name": "currency1",
              "type": "address"
            },
            {
              "internalType": "uint24",
              "name": "fee",
              "type": "uint24"
            },
            {
              "internalType": "int24",
              "name": "tickSpacing",
              "type": "int24"
            },
            {
              "internalType": "contract IHooks",
              "name": "hooks",
              "type": "address"
            }
          ],
          "internalType": "struct PoolKey",
          "name": "",
          "type": "tuple"
        },
        {
          "internalType": "uint160",
          "name": "",
          "type": "uint160"
        }
      ],
      "name": "beforeInitialize",
      "outputs": [
        {
          "internalType": "bytes4",
          "name": "",
          "type": "bytes4"
        }
      ],
      "stateMutability": "pure",
      "type": "function"
    },
    {
      "inputs": [
        {
          "internalType": "address",
          "name": "sender",
          "type": "address"
        },
        {
          "components": [
            {
              "internalType": "Currency",
              "name": "currency0",
              "type": "address"
            },
            {
              "internalType": "Currency",
              "name": "currency1",
              "type": "address"
            },
            {
              "internalType": "uint24",
              "name": "fee",
              "type": "uint24"
            },
            {
              "internalType": "int24",
              "name": "tickSpacing",
              "type": "int24"
            },
            {
              "internalType": "contract IHooks",
              "name": "hooks",
              "type": "address"
            }
          ],
          "internalType": "struct PoolKey",
          "name": "key",
          "type": "tuple"
        },
        {
          "components": [
            {
              "internalType": "int24",
              "name": "tickLower",
              "type": "int24"
            },
            {
              "internalType": "int24",
              "name": "tickUpper",
              "type": "int24"
            },
            {
              "internalType": "int256",
              "name": "liquidityDelta",
              "type": "int256"
            },
            {
              "internalType": "bytes32",
              "name": "salt",
              "type": "bytes32"
            }
          ],
          "internalType": "struct ModifyLiquidityParams",
          "name": "params",
          "type": "tuple"
        },
        {
          "internalType": "bytes",
          "name": "hookData",
          "type": "bytes"
        }
      ],
      "name": "beforeRemoveLiquidity",
      "outputs": [
        {
          "internalType": "bytes4",
          "name": "",
          "type": "bytes4"
        }
      ],
      "stateMutability": "nonpayable",
      "type": "function"
    },
    {
      "inputs": [
        {
          "internalType": "address",
          "name": "sender",
          "type": "address"
        },
        {
          "components": [
            {
              "internalType": "Currency",
              "name": "currency0",
              "type": "address"
            },
            {
              "internalType": "Currency",
              "name": "currency1",
              "type": "address"
            },
            {
              "internalType": "uint24",
              "name": "fee",
              "type": "uint24"
            },
            {
              "internalType": "int24",
              "name": "tickSpacing",
              "type": "int24"
            },
            {
              "internalType": "contract IHooks",
              "name": "hooks",
              "type": "address"
            }
          ],
          "internalType": "struct PoolKey",
          "name": "key",
          "type": "tuple"
        },
        {
          "components": [
            {
              "internalType": "bool",
              "name": "zeroForOne",
              "type": "bool"
            },
            {
              "internalType": "int256",
              "name": "amountSpecified",
              "type": "int256"
            },
            {
              "internalType": "uint160",
              "name": "sqrtPriceLimitX96",
              "type": "uint160"
            }
          ],
          "internalType": "struct SwapParams",
          "name": "params",
          "type": "tuple"
        },
        {
          "internalType": "bytes",
          "name": "hookData",
          "type": "bytes"
        }
      ],
      "name": "beforeSwap",
      "outputs": [
        {
          "internalType": "bytes4",
          "name": "",
          "type": "bytes4"
        },
        {
          "internalType": "BeforeSwapDelta",
          "name": "",
          "type": "int256"
        },
        {
          "internalType": "uint24",
          "name": "",
          "type": "uint24"
        }
      ],
      "stateMutability": "nonpayable",
      "type": "function"
    },
    {
      "inputs": [],
      "name": "contributeToPot",
      "outputs": [],
      "stateMutability": "payable",
      "type": "function"
    },
    {
      "inputs": [
        {
          "internalType": "uint256",
          "name": "amount",
          "type": "uint256"
        }
      ],
      "name": "contributeToPotERC20",
      "outputs": [],
      "stateMutability": "nonpayable",
      "type": "function"
    },
    {
      "inputs": [],
      "name": "decimals",
      "outputs": [
        {
          "internalType": "uint8",
          "name": "",
          "type": "uint8"
        }
      ],
      "stateMutability": "view",
      "type": "function"
    },
    {
      "inputs": [],
      "name": "epochPeriod",
      "outputs": [
        {
          "internalType": "uint256",
          "name": "",
          "type": "uint256"
        }
      ],
      "stateMutability": "view",
      "type": "function"
    },
    {
      "inputs": [],
      "name": "getAuctionPrice",
      "outputs": [
        {
          "internalType": "uint256",
          "name": "",
          "type": "uint256"
        }
      ],
      "stateMutability": "view",
      "type": "function"
    },
    {
      "inputs": [],
      "name": "getHookPermissions",
      "outputs": [
        {
          "components": [
            {
              "internalType": "bool",
              "name": "beforeInitialize",
              "type": "bool"
            },
            {
              "internalType": "bool",
              "name": "afterInitialize",
              "type": "bool"
            },
            {
              "internalType": "bool",
              "name": "beforeAddLiquidity",
              "type": "bool"
            },
            {
              "internalType": "bool",
              "name": "afterAddLiquidity",
              "type": "bool"
            },
            {
              "internalType": "bool",
              "name": "beforeRemoveLiquidity",
              "type": "bool"
            },
            {
              "internalType": "bool",
              "name": "afterRemoveLiquidity",
              "type": "bool"
            },
            {
              "internalType": "bool",
              "name": "beforeSwap",
              "type": "bool"
            },
            {
              "internalType": "bool",
              "name": "afterSwap",
              "type": "bool"
            },
            {
              "internalType": "bool",
              "name": "beforeDonate",
              "type": "bool"
            },
            {
              "internalType": "bool",
              "name": "afterDonate",
              "type": "bool"
            },
            {
              "internalType": "bool",
              "name": "beforeSwapReturnDelta",
              "type": "bool"
            },
            {
              "internalType": "bool",
              "name": "afterSwapReturnDelta",
              "type": "bool"
            },
            {
              "internalType": "bool",
              "name": "afterAddLiquidityReturnDelta",
              "type": "bool"
            },
            {
              "internalType": "bool",
              "name": "afterRemoveLiquidityReturnDelta",
              "type": "bool"
            }
          ],
          "internalType": "struct Hooks.Permissions",
          "name": "",
          "type": "tuple"
        }
      ],
      "stateMutability": "pure",
      "type": "function"
    },
    {
      "inputs": [
        {
          "internalType": "contract IPoolManager",
          "name": "_poolManager",
          "type": "address"
        },
        {
          "internalType": "Currency",
          "name": "_mon",
          "type": "address"
        },
        {
          "internalType": "Currency",
          "name": "_keep",
          "type": "address"
        },
        {
          "internalType": "uint256",
          "name": "_initPrice",
          "type": "uint256"
        },
        {
          "internalType": "uint256",
          "name": "_epochPeriod",
          "type": "uint256"
        },
        {
          "internalType": "uint256",
          "name": "_priceMultiplier",
          "type": "uint256"
        },
        {
          "internalType": "uint256",
          "name": "_minInitPrice",
          "type": "uint256"
        },
        {
          "internalType": "address",
          "name": "_owner",
          "type": "address"
        }
      ],
      "name": "initialize",
      "outputs": [],
      "stateMutability": "nonpayable",
      "type": "function"
    },
    {
      "inputs": [
        {
          "internalType": "address",
          "name": "",
          "type": "address"
        }
      ],
      "name": "lastTradeBlock",
      "outputs": [
        {
          "internalType": "uint256",
          "name": "",
          "type": "uint256"
        }
      ],
      "stateMutability": "view",
      "type": "function"
    },
    {
      "inputs": [],
      "name": "minInitPrice",
      "outputs": [
        {
          "internalType": "uint256",
          "name": "",
          "type": "uint256"
        }
      ],
      "stateMutability": "view",
      "type": "function"
    },
    {
      "inputs": [],
      "name": "name",
      "outputs": [
        {
          "internalType": "string",
          "name": "",
          "type": "string"
        }
      ],
      "stateMutability": "view",
      "type": "function"
    },
    {
      "inputs": [],
      "name": "owner",
      "outputs": [
        {
          "internalType": "address",
          "name": "",
          "type": "address"
        }
      ],
      "stateMutability": "view",
      "type": "function"
    },
    {
      "inputs": [],
      "name": "poolManager",
      "outputs": [
        {
          "internalType": "contract IPoolManager",
          "name": "",
          "type": "address"
        }
      ],
      "stateMutability": "view",
      "type": "function"
    },
    {
      "inputs": [],
      "name": "potBalance",
      "outputs": [
        {
          "internalType": "uint256",
          "name": "",
          "type": "uint256"
        }
      ],
      "stateMutability": "view",
      "type": "function"
    },
    {
      "inputs": [],
      "name": "priceMultiplier",
      "outputs": [
        {
          "internalType": "uint256",
          "name": "",
          "type": "uint256"
        }
      ],
      "stateMutability": "view",
      "type": "function"
    },
    {
      "inputs": [],
      "name": "proxiableUUID",
      "outputs": [
        {
          "internalType": "bytes32",
          "name": "",
          "type": "bytes32"
        }
      ],
      "stateMutability": "view",
      "type": "function"
    },
    {
      "inputs": [
        {
          "internalType": "uint256",
          "name": "maxPaymentAmount",
          "type": "uint256"
        }
      ],
      "name": "raid",
      "outputs": [
        {
          "internalType": "uint256",
          "name": "paymentAmount",
          "type": "uint256"
        }
      ],
      "stateMutability": "nonpayable",
      "type": "function"
    },
    {
      "inputs": [],
      "name": "renounceOwnership",
      "outputs": [],
      "stateMutability": "nonpayable",
      "type": "function"
    },
    {
      "inputs": [],
      "name": "slot0",
      "outputs": [
        {
          "internalType": "uint8",
          "name": "locked",
          "type": "uint8"
        },
        {
          "internalType": "uint16",
          "name": "epochId",
          "type": "uint16"
        },
        {
          "internalType": "uint192",
          "name": "initPrice",
          "type": "uint192"
        },
        {
          "internalType": "uint40",
          "name": "startTime",
          "type": "uint40"
        }
      ],
      "stateMutability": "view",
      "type": "function"
    },
    {
      "inputs": [],
      "name": "symbol",
      "outputs": [
        {
          "internalType": "string",
          "name": "",
          "type": "string"
        }
      ],
      "stateMutability": "view",
      "type": "function"
    },
    {
      "inputs": [],
      "name": "totalSupply",
      "outputs": [
        {
          "internalType": "uint256",
          "name": "",
          "type": "uint256"
        }
      ],
      "stateMutability": "view",
      "type": "function"
    },
    {
      "inputs": [
        {
          "internalType": "address",
          "name": "to",
          "type": "address"
        },
        {
          "internalType": "uint256",
          "name": "value",
          "type": "uint256"
        }
      ],
      "name": "transfer",
      "outputs": [
        {
          "internalType": "bool",
          "name": "",
          "type": "bool"
        }
      ],
      "stateMutability": "nonpayable",
      "type": "function"
    },
    {
      "inputs": [
        {
          "internalType": "address",
          "name": "from",
          "type": "address"
        },
        {
          "internalType": "address",
          "name": "to",
          "type": "address"
        },
        {
          "internalType": "uint256",
          "name": "value",
          "type": "uint256"
        }
      ],
      "name": "transferFrom",
      "outputs": [
        {
          "internalType": "bool",
          "name": "",
          "type": "bool"
        }
      ],
      "stateMutability": "nonpayable",
      "type": "function"
    },
    {
      "inputs": [
        {
          "internalType": "address",
          "name": "newOwner",
          "type": "address"
        }
      ],
      "name": "transferOwnership",
      "outputs": [],
      "stateMutability": "nonpayable",
      "type": "function"
    },
    {
      "inputs": [
        {
          "internalType": "address",
          "name": "newImplementation",
          "type": "address"
        },
        {
          "internalType": "bytes",
          "name": "data",
          "type": "bytes"
        }
      ],
      "name": "upgradeToAndCall",
      "outputs": [],
      "stateMutability": "payable",
      "type": "function"
    },
    {
      "stateMutability": "payable",
      "type": "receive"
    }
  ],
  "bytecode": "0x60a060405230608052348015610013575f80fd5b5061001c610021565b6100d3565b7ff0c57e16840df040f15088dc2f81fe391c3923bec73e23a9662efc9c229c6a00805468010000000000000000900460ff16156100715760405163f92ee8a960e01b815260040160405180910390fd5b80546001600160401b03908116146100d05780546001600160401b0319166001600160401b0390811782556040519081527fc7f505b2f371ae2175ee4913f4499e1f2633a7b5936321eed1cdaeb6115181d29060200160405180910390a15b50565b608051612bf76100f95f395f8181611abc01528181611ae50152611c240152612bf75ff3fe60806040526004361061028e575f3560e01c8063715018a611610155578063b47b2fb1116100be578063dc98354e11610078578063dc98354e14610975578063dd62ed3e1461098f578063e1b4af6914610825578063efd331561461060d578063f2fde38b146109ae578063f6cb1a49146109cd575f80fd5b8063b47b2fb1146107ce578063b5b7a18414610810578063b6a8b0fa14610825578063c4e833ce1461083f578063d50cb88b14610942578063dc4c90d314610957575f80fd5b806393d5e9651161010f57806393d5e9651461072d57806395d89b411461074c5780639f063efc146105ce578063a9059cbb14610760578063ad3cb1cc1461077f578063b366097c146107af575f80fd5b8063715018a61461066657806374db9d111461067a578063750d48b8146106a557806388f4b49e146106c05780638da5cb5b146106da5780638fc59c5214610716575f80fd5b80633c92276e116101f7578063575e24b4116101b1578063575e24b4146105695780635889486e146105b35780636c2bbe7e146105ce5780636e5b5b7d1461060d5780636fe7e6eb1461062857806370a0823114610647575f80fd5b80633c92276e146104fc5780633ed1d9e7146105115780634111a197146105195780634bd25c6f1461052e5780634f1ef2861461054257806352d1902d14610555575f80fd5b806323b872dd1161024857806323b872dd146103e5578063259982e5146104045780632bf033ad146104235780632f914df214610442578063313ce567146104615780633850c7bd1461047c575f80fd5b806306fdde03146102cd578063090340a0146102f7578063095ea7b31461032e5780631036796c1461035d57806318160ddd1461037057806321d0ee70146103ad575f80fd5b366102c9576001546001600160a01b03161580156102ab57505f34115b156102c7573460035f8282546102c19190612276565b90915550505b005b5f80fd5b3480156102d8575f80fd5b506102e16109e2565b6040516102ee9190612289565b60405180910390f35b348015610302575f80fd5b50600254610316906001600160a01b031681565b6040516001600160a01b0390911681526020016102ee565b348015610339575f80fd5b5061034d6103483660046122d2565b610aa2565b60405190151581526020016102ee565b6102c761036b366004612328565b610abb565b34801561037b575f80fd5b507f52c63247e1f47db19d5ce0460030c497f067ca4cebf71ba98eeadabe20bace02545b6040519081526020016102ee565b3480156103b8575f80fd5b506103cc6103c73660046123d3565b610ba0565b6040516001600160e01b031990911681526020016102ee565b3480156103f0575f80fd5b5061034d6103ff36600461244a565b610bdd565b34801561040f575f80fd5b506103cc61041e3660046123d3565b610c02565b34801561042e575f80fd5b506102c761043d366004612488565b610c3f565b34801561044d575f80fd5b5061039f61045c366004612508565b610ffe565b34801561046c575f80fd5b50604051601281526020016102ee565b348015610487575f80fd5b506008546104c09060ff811690610100810461ffff1690630100000081046001600160c01b031690600160d81b900464ffffffffff1684565b6040805160ff909516855261ffff90931660208501526001600160c01b039091169183019190915264ffffffffff1660608201526080016102ee565b348015610507575f80fd5b5061039f60075481565b6102c7611314565b348015610524575f80fd5b5061039f60035481565b348015610539575f80fd5b5061039f6113cc565b6102c7610550366004612533565b611428565b348015610560575f80fd5b5061039f611447565b348015610574575f80fd5b50610588610583366004612609565b611462565b604080516001600160e01b03199094168452602084019290925262ffffff16908201526060016102ee565b3480156105be575f80fd5b5061039f6729a2241af62c000081565b3480156105d9575f80fd5b506105ed6105e8366004612663565b61151d565b604080516001600160e01b031990931683526020830191909152016102ee565b348015610618575f80fd5b5061039f670de0b6b3a764000081565b348015610633575f80fd5b506103cc6106423660046126ee565b611538565b348015610652575f80fd5b5061039f610661366004612745565b611552565b348015610671575f80fd5b506102c7611578565b348015610685575f80fd5b5061039f610694366004612745565b60046020525f908152604090205481565b3480156106b0575f80fd5b5061039f670f43fc2c04ee000081565b3480156106cb575f80fd5b5061039f6001600160c01b0381565b3480156106e5575f80fd5b507f9016d09d72d40fdae2fd8ceac6b6234c7706214fd39c1cd1e609a0528c199300546001600160a01b0316610316565b348015610721575f80fd5b5061039f6301e1338081565b348015610738575f80fd5b506102c7610747366004612508565b611589565b348015610757575f80fd5b506102e161167b565b34801561076b575f80fd5b5061034d61077a3660046122d2565b6116b9565b34801561078a575f80fd5b506102e1604051806040016040528060058152602001640352e302e360dc1b81525081565b3480156107ba575f80fd5b50600154610316906001600160a01b031681565b3480156107d9575f80fd5b506107ed6107e8366004612760565b6116c6565b604080516001600160e01b03199093168352600f9190910b6020830152016102ee565b34801561081b575f80fd5b5061039f60055481565b348015610830575f80fd5b506103cc6106423660046127e1565b34801561084a575f80fd5b50610935604080516101c0810182525f80825260208201819052918101829052606081018290526080810182905260a0810182905260c0810182905260e08101829052610100810182905261012081018290526101408101829052610160810182905261018081018290526101a081019190915250604080516101c0810182525f808252602082018190526001928201839052606082018190526080820183905260a0820181905260c0820183905260e0820192909252610100810182905261012081018290526101408101829052610160810182905261018081018290526101a081019190915290565b6040516102ee919061283b565b34801561094d575f80fd5b5061039f60065481565b348015610962575f80fd5b505f54610316906001600160a01b031681565b348015610980575f80fd5b506103cc61064236600461295c565b34801561099a575f80fd5b5061039f6109a93660046129a3565b611709565b3480156109b9575f80fd5b506102c76109c8366004612745565b611752565b3480156109d8575f80fd5b5061039f610e1081565b7f52c63247e1f47db19d5ce0460030c497f067ca4cebf71ba98eeadabe20bace0380546060915f80516020612b8283398151915291610a20906129da565b80601f0160208091040260200160405190810160405280929190818152602001828054610a4c906129da565b8015610a975780601f10610a6e57610100808354040283529160200191610a97565b820191905f5260205f20905b815481529060010190602001808311610a7a57829003601f168201915b505050505091505090565b5f33610aaf81858561178f565b60019150505b92915050565b6001546001600160a01b0316610b1457833414610b0f5760405162461bcd60e51b815260206004820152600d60248201526c24b731b7b93932b1ba1026a7a760991b60448201526064015b60405180910390fd5b610b2c565b600154610b2c906001600160a01b03163330876117a1565b600254610b44906001600160a01b03163330866117a1565b6001546001600160a01b031615610b71575f54600154610b71916001600160a01b0391821691168661180e565b5f54600254610b8d916001600160a01b0391821691168561180e565b83610b98338261189d565b505050505050565b5f80546001600160a01b03163314610bcb5760405163570c108560e11b815260040160405180910390fd5b5063021d0ee760e41b95945050505050565b5f33610bea8582856118d1565b610bf585858561192f565b60019150505b9392505050565b5f80546001600160a01b03163314610c2d5760405163570c108560e11b815260040160405180910390fd5b5063259982e560e01b95945050505050565b5f610c4861198c565b805490915060ff600160401b820416159067ffffffffffffffff165f81158015610c6f5750825b90505f8267ffffffffffffffff166001148015610c8b5750303b155b905081158015610c99575080155b15610cb75760405163f92ee8a960e01b815260040160405180910390fd5b845467ffffffffffffffff191660011785558315610ce157845460ff60401b1916600160401b1785555b610d2760405180604001604052806009815260200168043656c6c6172204c560bc1b815250604051806040016040528060038152602001620434c560ec1b8152506119b4565b610d30866119c6565b610d386119d7565b8c5f806101000a8154816001600160a01b0302191690836001600160a01b031602179055508b60015f6101000a8154816001600160a01b0302191690836001600160a01b031602179055508a60025f6101000a8154816001600160a01b0302191690836001600160a01b03160217905550868a1015610dee5760405162461bcd60e51b8152602060048201526012602482015271496e697420707269636520746f6f206c6f7760701b6044820152606401610b06565b6001600160c01b038a1115610e3b5760405162461bcd60e51b8152602060048201526013602482015272092dcd2e840e0e4d2c6ca40e8dede40d0d2ced606b1b6044820152606401610b06565b610e108910158015610e5157506301e133808911155b610e945760405162461bcd60e51b8152602060048201526014602482015273125b9d985b1a5908195c1bd8da081c195c9a5bd960621b6044820152606401610b06565b670f43fc2c04ee00008810158015610eb457506729a2241af62c00008811155b610ef55760405162461bcd60e51b815260206004820152601260248201527124b73b30b634b21036bab63a34b83634b2b960711b6044820152606401610b06565b670de0b6b3a76400008710158015610f1457506001600160c01b038711155b610f595760405162461bcd60e51b8152602060048201526016602482015275496e76616c6964206d696e20696e697420707269636560501b6044820152606401610b06565b60058990556006889055600787905560088054600162ffffff90911663010000006001600160c01b038e16026001600160d81b031617600160d81b4264ffffffffff16021760ff19161790555f6003558315610fef57845460ff60401b19168555604051600181527fc7f505b2f371ae2175ee4913f4499e1f2633a7b5936321eed1cdaeb6115181d29060200160405180910390a15b50505050505050505050505050565b6008545f9060ff166001146110425760405162461bcd60e51b815260206004820152600a6024820152695265656e7472616e637960b01b6044820152606401610b06565b60088054600260ff1990911681179182905560408051608081018252918252610100830461ffff166020830152630100000083046001600160c01b031690820152600160d81b90910464ffffffffff1660608201526110a0816119df565b9150828211156110e35760405162461bcd60e51b815260206004820152600e60248201526d0a0e4d2c6ca40e8dede40d0d2ced60931b6044820152606401610b06565b816110ed33611552565b101561112d5760405162461bcd60e51b815260206004820152600f60248201526e0496e73756666696369656e74204c5608c1b6044820152606401610b06565b6111373383611a4c565b600380545f9091556001546001600160a01b03166111dc576040515f90339083908381818185875af1925050503d805f811461118e576040519150601f19603f3d011682016040523d82523d5f602084013e611193565b606091505b50509050806111d65760405162461bcd60e51b815260206004820152600f60248201526e151c985b9cd9995c8819985a5b1959608a1b6044820152606401610b06565b506111f3565b6001546111f3906001600160a01b03163383611a80565b5f670de0b6b3a76400006006548561120b9190612a0c565b6112159190612a23565b90506001600160c01b0381111561123457506001600160c01b03611243565b60075481101561124357506007545b6020838101805160010161ffff16908190526001600160c01b03831660408087018290524264ffffffffff16606080890182905288516008805460ff90921662ffffff199092169190911761010087021762ffffff1663010000009095026001600160d81b031694909417600160d81b909202919091179092558051888152938401869052830184905282015233907f8c79afa3d406654f27b256a76d20f7590cdc883a95c1e6a12425dd876bd44fd19060800160405180910390a250506008805460ff1916600117905550919050565b6001546001600160a01b0316156113785760405162461bcd60e51b815260206004820152602260248201527f55736520636f6e74726962757465546f506f74455243323020666f7220455243604482015261032360f41b6064820152608401610b06565b34156113ca573460035f82825461138f9190612276565b909155505060405134815233907f715128b7346c544a2e12aa9bfe30399acf9b33a3bac75a8449c07ac25fa9d3149060200160405180910390a25b565b6040805160808101825260085460ff81168252610100810461ffff166020830152630100000081046001600160c01b031692820192909252600160d81b90910464ffffffffff1660608201525f90611423906119df565b905090565b611430611ab1565b61143982611b55565b6114438282611b5d565b5050565b5f611450611c19565b505f80516020612ba283398151915290565b5f8054819081906001600160a01b031633146114915760405163570c108560e11b815260040160405180910390fd5b6001600160a01b0388165f908152600460205260409020544390036114eb5760405162461bcd60e51b815260206004820152601060248201526f53616d6520626c6f636b20747261646560801b6044820152606401610b06565b5050506001600160a01b0385165f9081526004602052604081204390556315d7892d60e21b9080955095509592505050565b5f80604051630a85dc2960e01b815260040160405180910390fd5b5f604051630a85dc2960e01b815260040160405180910390fd5b6001600160a01b03165f9081525f80516020612b82833981519152602052604090205490565b611580611c62565b6113ca5f611cbd565b6001546001600160a01b03166115d15760405162461bcd60e51b815260206004820152600d60248201526c4d4f4e206973206e617469766560981b6044820152606401610b06565b5f81116116155760405162461bcd60e51b81526020600482015260126024820152710416d6f756e74206d757374206265203e20360741b6044820152606401610b06565b60015461162d906001600160a01b03163330846117a1565b8060035f82825461163e9190612276565b909155505060405181815233907f715128b7346c544a2e12aa9bfe30399acf9b33a3bac75a8449c07ac25fa9d3149060200160405180910390a250565b7f52c63247e1f47db19d5ce0460030c497f067ca4cebf71ba98eeadabe20bace0480546060915f80516020612b8283398151915291610a20906129da565b5f33610aaf81858561192f565b5f805481906001600160a01b031633146116f35760405163570c108560e11b815260040160405180910390fd5b5063b47b2fb160e01b975f975095505050505050565b6001600160a01b039182165f9081527f52c63247e1f47db19d5ce0460030c497f067ca4cebf71ba98eeadabe20bace016020908152604080832093909416825291909152205490565b61175a611c62565b6001600160a01b03811661178357604051631e4fbdf760e01b81525f6004820152602401610b06565b61178c81611cbd565b50565b61179c8383836001611d2d565b505050565b6040516001600160a01b0384811660248301528381166044830152606482018390526118089186918216906323b872dd906084015b604051602081830303815290604052915060e01b6020820180516001600160e01b038381831617835250505050611e11565b50505050565b604080516001600160a01b038416602482015260448082018490528251808303909101815260649091019091526020810180516001600160e01b031663095ea7b360e01b17905261185f8482611e7d565b611808576040516001600160a01b0384811660248301525f604483015261189391869182169063095ea7b3906064016117d6565b6118088482611e11565b6001600160a01b0382166118c65760405163ec442f0560e01b81525f6004820152602401610b06565b6114435f8383611ec6565b5f6118dc8484611709565b90505f19811015611808578181101561192157604051637dc7a0d960e11b81526001600160a01b03841660048201526024810182905260448101839052606401610b06565b61180884848484035f611d2d565b6001600160a01b03831661195857604051634b637e8f60e11b81525f6004820152602401610b06565b6001600160a01b0382166119815760405163ec442f0560e01b81525f6004820152602401610b06565b61179c838383611ec6565b5f807ff0c57e16840df040f15088dc2f81fe391c3923bec73e23a9662efc9c229c6a00610ab5565b6119bc611fff565b6114438282612024565b6119ce611fff565b61178c81612074565b6113ca611fff565b5f80826060015164ffffffffff16426119f89190612a42565b9050600554811115611a0e575050600754919050565b6005548184604001516001600160c01b0316611a2a9190612a0c565b611a349190612a23565b83604001516001600160c01b0316610bfb9190612a42565b6001600160a01b038216611a7557604051634b637e8f60e11b81525f6004820152602401610b06565b611443825f83611ec6565b6040516001600160a01b0383811660248301526044820183905261179c91859182169063a9059cbb906064016117d6565b306001600160a01b037f0000000000000000000000000000000000000000000000000000000000000000161480611b3757507f00000000000000000000000000000000000000000000000000000000000000006001600160a01b0316611b2b5f80516020612ba2833981519152546001600160a01b031690565b6001600160a01b031614155b156113ca5760405163703e46dd60e11b815260040160405180910390fd5b61178c611c62565b816001600160a01b03166352d1902d6040518163ffffffff1660e01b8152600401602060405180830381865afa925050508015611bb7575060408051601f3d908101601f19168201909252611bb491810190612a55565b60015b611bdf57604051634c9c8ce360e01b81526001600160a01b0383166004820152602401610b06565b5f80516020612ba28339815191528114611c0f57604051632a87526960e21b815260048101829052602401610b06565b61179c838361207c565b306001600160a01b037f000000000000000000000000000000000000000000000000000000000000000016146113ca5760405163703e46dd60e11b815260040160405180910390fd5b33611c947f9016d09d72d40fdae2fd8ceac6b6234c7706214fd39c1cd1e609a0528c199300546001600160a01b031690565b6001600160a01b0316146113ca5760405163118cdaa760e01b8152336004820152602401610b06565b7f9016d09d72d40fdae2fd8ceac6b6234c7706214fd39c1cd1e609a0528c19930080546001600160a01b031981166001600160a01b03848116918217845560405192169182907f8be0079c531659141344cd1fd0a4f28419497f9722a3daafe3b4186f6b6457e0905f90a3505050565b5f80516020612b828339815191526001600160a01b038516611d645760405163e602df0560e01b81525f6004820152602401610b06565b6001600160a01b038416611d8d57604051634a1406b160e11b81525f6004820152602401610b06565b6001600160a01b038086165f90815260018301602090815260408083209388168352929052208390558115611e0a57836001600160a01b0316856001600160a01b03167f8c5be1e5ebec7d5bd14f71427d1e84f3dd0314c0f7b2291e5b200ac8c7c3b92585604051611e0191815260200190565b60405180910390a35b5050505050565b5f8060205f8451602086015f885af180611e30576040513d5f823e3d81fd5b50505f513d91508115611e47578060011415611e54565b6001600160a01b0384163b155b1561180857604051635274afe760e01b81526001600160a01b0385166004820152602401610b06565b5f805f8060205f8651602088015f8a5af192503d91505f519050828015611ebc57508115611eae5780600114611ebc565b5f866001600160a01b03163b115b9695505050505050565b5f80516020612b828339815191526001600160a01b038416611f005781816002015f828254611ef59190612276565b90915550611f709050565b6001600160a01b0384165f9081526020829052604090205482811015611f525760405163391434e360e21b81526001600160a01b03861660048201526024810182905260448101849052606401610b06565b6001600160a01b0385165f9081526020839052604090209083900390555b6001600160a01b038316611f8e576002810180548390039055611fac565b6001600160a01b0383165f9081526020829052604090208054830190555b826001600160a01b0316846001600160a01b03167fddf252ad1be2c89b69c2b068fc378daa952ba7f163c4a11628f55a4df523b3ef84604051611ff191815260200190565b60405180910390a350505050565b6120076120d1565b6113ca57604051631afcd79f60e31b815260040160405180910390fd5b61202c611fff565b5f80516020612b828339815191527f52c63247e1f47db19d5ce0460030c497f067ca4cebf71ba98eeadabe20bace036120658482612ab0565b50600481016118088382612ab0565b61175a611fff565b612085826120ea565b6040516001600160a01b038316907fbc7cd75a20ee27fd9adebab32041f755214dbc6bffa90cc0225b39da2e5c2d3b905f90a28051156120c95761179c828261214d565b6114436121bf565b5f6120da61198c565b54600160401b900460ff16919050565b806001600160a01b03163b5f0361211f57604051634c9c8ce360e01b81526001600160a01b0382166004820152602401610b06565b5f80516020612ba283398151915280546001600160a01b0319166001600160a01b0392909216919091179055565b60605f80846001600160a01b0316846040516121699190612b6b565b5f60405180830381855af49150503d805f81146121a1576040519150601f19603f3d011682016040523d82523d5f602084013e6121a6565b606091505b50915091506121b68583836121de565b95945050505050565b34156113ca5760405163b398979f60e01b815260040160405180910390fd5b6060826121f3576121ee8261223a565b610bfb565b815115801561220a57506001600160a01b0384163b155b1561223357604051639996b31560e01b81526001600160a01b0385166004820152602401610b06565b5080610bfb565b80511561224957805160208201fd5b60405163d6bda27560e01b815260040160405180910390fd5b634e487b7160e01b5f52601160045260245ffd5b80820180821115610ab557610ab5612262565b602081525f82518060208401528060208501604085015e5f604082850101526040601f19601f83011684010191505092915050565b6001600160a01b038116811461178c575f80fd5b5f80604083850312156122e3575f80fd5b82356122ee816122be565b946020939093013593505050565b5f60a0828403121561230c575f80fd5b50919050565b8035600281900b8114612323575f80fd5b919050565b5f805f805f610120868803121561233d575f80fd5b61234787876122fc565b945060a0860135935060c0860135925061236360e08701612312565b91506123726101008701612312565b90509295509295909350565b5f6080828403121561230c575f80fd5b5f8083601f84011261239e575f80fd5b50813567ffffffffffffffff8111156123b5575f80fd5b6020830191508360208285010111156123cc575f80fd5b9250929050565b5f805f805f61016086880312156123e8575f80fd5b85356123f3816122be565b945061240287602088016122fc565b93506124118760c0880161237e565b925061014086013567ffffffffffffffff81111561242d575f80fd5b6124398882890161238e565b969995985093965092949392505050565b5f805f6060848603121561245c575f80fd5b8335612467816122be565b92506020840135612477816122be565b929592945050506040919091013590565b5f805f805f805f80610100898b0312156124a0575f80fd5b88356124ab816122be565b975060208901356124bb816122be565b965060408901356124cb816122be565b9550606089013594506080890135935060a0890135925060c0890135915060e08901356124f7816122be565b809150509295985092959890939650565b5f60208284031215612518575f80fd5b5035919050565b634e487b7160e01b5f52604160045260245ffd5b5f8060408385031215612544575f80fd5b823561254f816122be565b9150602083013567ffffffffffffffff81111561256a575f80fd5b8301601f8101851361257a575f80fd5b803567ffffffffffffffff8111156125945761259461251f565b604051601f8201601f19908116603f0116810167ffffffffffffffff811182821017156125c3576125c361251f565b6040528181528282016020018710156125da575f80fd5b816020840160208301375f602083830101528093505050509250929050565b5f6060828403121561230c575f80fd5b5f805f805f610140868803121561261e575f80fd5b8535612629816122be565b945061263887602088016122fc565b93506126478760c088016125f9565b925061012086013567ffffffffffffffff81111561242d575f80fd5b5f805f805f805f6101a0888a03121561267a575f80fd5b8735612685816122be565b96506126948960208a016122fc565b95506126a38960c08a0161237e565b94506101408801359350610160880135925061018088013567ffffffffffffffff8111156126cf575f80fd5b6126db8a828b0161238e565b989b979a50959850939692959293505050565b5f805f806101008587031215612702575f80fd5b843561270d816122be565b935061271c86602087016122fc565b925060c085013561272c816122be565b915061273a60e08601612312565b905092959194509250565b5f60208284031215612755575f80fd5b8135610bfb816122be565b5f805f805f806101608789031215612776575f80fd5b8635612781816122be565b955061279088602089016122fc565b945061279f8860c089016125f9565b9350610120870135925061014087013567ffffffffffffffff8111156127c3575f80fd5b6127cf89828a0161238e565b979a9699509497509295939492505050565b5f805f805f8061012087890312156127f7575f80fd5b8635612802816122be565b955061281188602089016122fc565b945060c0870135935060e0870135925061010087013567ffffffffffffffff8111156127c3575f80fd5b8151151581526101c081016020830151612859602084018215159052565b50604083015161286d604084018215159052565b506060830151612881606084018215159052565b506080830151612895608084018215159052565b5060a08301516128a960a084018215159052565b5060c08301516128bd60c084018215159052565b5060e08301516128d160e084018215159052565b506101008301516128e761010084018215159052565b506101208301516128fd61012084018215159052565b5061014083015161291361014084018215159052565b5061016083015161292961016084018215159052565b5061018083015161293f61018084018215159052565b506101a08301516129556101a084018215159052565b5092915050565b5f805f60e0848603121561296e575f80fd5b8335612979816122be565b925061298885602086016122fc565b915060c0840135612998816122be565b809150509250925092565b5f80604083850312156129b4575f80fd5b82356129bf816122be565b915060208301356129cf816122be565b809150509250929050565b600181811c908216806129ee57607f821691505b60208210810361230c57634e487b7160e01b5f52602260045260245ffd5b8082028115828204841417610ab557610ab5612262565b5f82612a3d57634e487b7160e01b5f52601260045260245ffd5b500490565b81810381811115610ab557610ab5612262565b5f60208284031215612a65575f80fd5b5051919050565b601f82111561179c57805f5260205f20601f840160051c81016020851015612a915750805b601f840160051c820191505b81811015611e0a575f8155600101612a9d565b815167ffffffffffffffff811115612aca57612aca61251f565b612ade81612ad884546129da565b84612a6c565b6020601f821160018114612b10575f8315612af95750848201515b5f19600385901b1c1916600184901b178455611e0a565b5f84815260208120601f198516915b82811015612b3f5787850151825560209485019460019092019101612b1f565b5084821015612b5c57868401515f19600387901b60f8161c191681555b50505050600190811b01905550565b5f82518060208501845e5f92019182525091905056fe52c63247e1f47db19d5ce0460030c497f067ca4cebf71ba98eeadabe20bace00360894a13ba1a3210667c828492db98dca3e2076cc3735a920a3ca505d382bbca26469706673582212203a0ffd4dab20a1dab9b98fbe1ce8c51c6e181c5654a04a70ad6fff882234066e64736f6c634300081a0033",
  "linkReferences": {},
  "deployedLinkReferences": {}
}