{
  "_format": "hh-sol-artifact-1",
  "contractName": "KeepToken",
  "sourceName": "contracts/KeepToken.sol",
  "abi": [
    {
      "inputs": [],
      "stateMutability": "nonpayable",
      "type": "constructor"
    },
    {
      "inputs": [
        {
          "internalType": "address",
          "name": "target",
          "type": "address"
        }
      ],
      "name": "AddressEmptyCode",
      "type": "error"
    },
    {
      "inputs": [
        {
          "internalType": "address",
          "name": "implementation",
          "type": "address"
        }
      ],
      "name": "ERC1967InvalidImplementation",
      "type": "error"
    },
    {
      "inputs": [],
      "name": "ERC1967NonPayable",
      "type": "error"
    },
    {
      "inputs": [
        {
          "internalType": "address",
          "name": "spender",
          "type": "address"
        },
        {
          "internalType": "uint256",
          "name": "allowance",
          "type": "uint256"
        },
        {
          "internalType": "uint256",
          "name": "needed",
          "type": "uint256"
        }
      ],
      "name": "ERC20InsufficientAllowance",
      "type": "error"
    },
    {
      "inputs": [
        {
          "internalType": "address",
          "name": "sender",
          "type": "address"
        },
        {
          "internalType": "uint256",
          "name": "balance",
          "type": "uint256"
        },
        {
          "internalType": "uint256",
          "name": "needed",
          "type": "uint256"
        }
      ],
      "name": "ERC20InsufficientBalance",
      "type": "error"
    },
    {
      "inputs": [
        {
          "internalType": "address",
          "name": "approver",
          "type": "address"
        }
      ],
      "name": "ERC20InvalidApprover",
      "type": "error"
    },
    {
      "inputs": [
        {
          "internalType": "address",
          "name": "receiver",
          "type": "address"
        }
      ],
      "name": "ERC20InvalidReceiver",
      "type": "error"
    },
    {
      "inputs": [
        {
          "internalType": "address",
          "name": "sender",
          "type": "address"
        }
      ],
      "name": "ERC20InvalidSender",
      "type": "error"
    },
    {
      "inputs": [
        {
          "internalType": "address",
          "name": "spender",
          "type": "address"
        }
      ],
      "name": "ERC20InvalidSpender",
      "type": "error"
    },
    {
      "inputs": [],
      "name": "FailedCall",
      "type": "error"
    },
    {
      "inputs": [],
      "name": "InvalidInitialization",
      "type": "error"
    },
    {
      "inputs": [],
      "name": "NotInitializing",
      "type": "error"
    },
    {
      "inputs": [
        {
          "internalType": "address",
          "name": "owner",
          "type": "address"
        }
      ],
      "name": "OwnableInvalidOwner",
      "type": "error"
    },
    {
      "inputs": [
        {
          "internalType": "address",
          "name": "account",
          "type": "address"
        }
      ],
      "name": "OwnableUnauthorizedAccount",
      "type": "error"
    },
    {
      "inputs": [],
      "name": "UUPSUnauthorizedCallContext",
      "type": "error"
    },
    {
      "inputs": [
        {
          "internalType": "bytes32",
          "name": "slot",
          "type": "bytes32"
        }
      ],
      "name": "UUPSUnsupportedProxiableUUID",
      "type": "error"
    },
    {
      "anonymous": false,
      "inputs": [
        {
          "indexed": true,
          "internalType": "address",
          "name": "owner",
          "type": "address"
        },
        {
          "indexed": true,
          "internalType": "address",
          "name": "spender",
          "type": "address"
        },
        {
          "indexed": false,
          "internalType": "uint256",
          "name": "value",
          "type": "uint256"
        }
      ],
      "name": "Approval",
      "type": "event"
    },
    {
      "anonymous": false,
      "inputs": [
        {
          "indexed": false,
          "internalType": "uint64",
          "name": "version",
          "type": "uint64"
        }
      ],
      "name": "Initialized",
      "type": "event"
    },
    {
      "anonymous": false,
      "inputs": [
        {
          "indexed": true,
          "internalType": "address",
          "name": "previousOwner",
          "type": "address"
        },
        {
          "indexed": true,
          "internalType": "address",
          "name": "newOwner",
          "type": "address"
        }
      ],
      "name": "OwnershipTransferred",
      "type": "event"
    },
    {
      "anonymous": false,
      "inputs": [
        {
          "indexed": true,
          "internalType": "address",
          "name": "oldContract",
          "type": "address"
        },
        {
          "indexed": true,
          "internalType": "address",
          "name": "newContract",
          "type": "address"
        }
      ],
      "name": "TavernKeeperContractUpdated",
      "type": "event"
    },
    {
      "anonymous": false,
      "inputs": [
        {
          "indexed": true,
          "internalType": "address",
          "name": "from",
          "type": "address"
        },
        {
          "indexed": true,
          "internalType": "address",
          "name": "to",
          "type": "address"
        },
        {
          "indexed": false,
          "internalType": "uint256",
          "name": "value",
          "type": "uint256"
        }
      ],
      "name": "Transfer",
      "type": "event"
    },
    {
      "anonymous": false,
      "inputs": [
        {
          "indexed": true,
          "internalType": "address",
          "name": "oldTreasury",
          "type": "address"
        },
        {
          "indexed": true,
          "internalType": "address",
          "name": "newTreasury",
          "type": "address"
        }
      ],
      "name": "TreasuryUpdated",
      "type": "event"
    },
    {
      "anonymous": false,
      "inputs": [
        {
          "indexed": true,
          "internalType": "address",
          "name": "implementation",
          "type": "address"
        }
      ],
      "name": "Upgraded",
      "type": "event"
    },
    {
      "inputs": [],
      "name": "UPGRADE_INTERFACE_VERSION",
      "outputs": [
        {
          "internalType": "string",
          "name": "",
          "type": "string"
        }
      ],
      "stateMutability": "view",
      "type": "function"
    },
    {
      "inputs": [
        {
          "internalType": "address",
          "name": "owner",
          "type": "address"
        },
        {
          "internalType": "address",
          "name": "spender",
          "type": "address"
        }
      ],
      "name": "allowance",
      "outputs": [
        {
          "internalType": "uint256",
          "name": "",
          "type": "uint256"
        }
      ],
      "stateMutability": "view",
      "type": "function"
    },
    {
      "inputs": [
        {
          "internalType": "address",
          "name": "spender",
          "type": "address"
        },
        {
          "internalType": "uint256",
          "name": "value",
          "type": "uint256"
        }
      ],
      "name": "approve",
      "outputs": [
        {
          "internalType": "bool",
          "name": "",
          "type": "bool"
        }
      ],
      "stateMutability": "nonpayable",
      "type": "function"
    },
    {
      "inputs": [
        {
          "internalType": "address",
          "name": "account",
          "type": "address"
        }
      ],
      "name": "balanceOf",
      "outputs": [
        {
          "internalType": "uint256",
          "name": "",
          "type": "uint256"
        }
      ],
      "stateMutability": "view",
      "type": "function"
    },
    {
      "inputs": [],
      "name": "decimals",
      "outputs": [
        {
          "internalType": "uint8",
          "name": "",
          "type": "uint8"
        }
      ],
      "stateMutability": "view",
      "type": "function"
    },
    {
      "inputs": [
        {
          "internalType": "address",
          "name": "_treasury",
          "type": "address"
        },
        {
          "internalType": "address",
          "name": "_tavernKeeperContract",
          "type": "address"
        }
      ],
      "name": "initialize",
      "outputs": [],
      "stateMutability": "nonpayable",
      "type": "function"
    },
    {
      "inputs": [
        {
          "internalType": "address",
          "name": "to",
          "type": "address"
        },
        {
          "internalType": "uint256",
          "name": "amount",
          "type": "uint256"
        }
      ],
      "name": "mint",
      "outputs": [],
      "stateMutability": "nonpayable",
      "type": "function"
    },
    {
      "inputs": [],
      "name": "name",
      "outputs": [
        {
          "internalType": "string",
          "name": "",
          "type": "string"
        }
      ],
      "stateMutability": "view",
      "type": "function"
    },
    {
      "inputs": [],
      "name": "owner",
      "outputs": [
        {
          "internalType": "address",
          "name": "",
          "type": "address"
        }
      ],
      "stateMutability": "view",
      "type": "function"
    },
    {
      "inputs": [],
      "name": "proxiableUUID",
      "outputs": [
        {
          "internalType": "bytes32",
          "name": "",
          "type": "bytes32"
        }
      ],
      "stateMutability": "view",
      "type": "function"
    },
    {
      "inputs": [],
      "name": "renounceOwnership",
      "outputs": [],
      "stateMutability": "nonpayable",
      "type": "function"
    },
    {
      "inputs": [
        {
          "internalType": "address",
          "name": "_contract",
          "type": "address"
        }
      ],
      "name": "setTavernKeeperContract",
      "outputs": [],
      "stateMutability": "nonpayable",
      "type": "function"
    },
    {
      "inputs": [
        {
          "internalType": "address",
          "name": "_treasury",
          "type": "address"
        }
      ],
      "name": "setTreasury",
      "outputs": [],
      "stateMutability": "nonpayable",
      "type": "function"
    },
    {
      "inputs": [],
      "name": "symbol",
      "outputs": [
        {
          "internalType": "string",
          "name": "",
          "type": "string"
        }
      ],
      "stateMutability": "view",
      "type": "function"
    },
    {
      "inputs": [],
      "name": "tavernKeeperContract",
      "outputs": [
        {
          "internalType": "address",
          "name": "",
          "type": "address"
        }
      ],
      "stateMutability": "view",
      "type": "function"
    },
    {
      "inputs": [],
      "name": "totalSupply",
      "outputs": [
        {
          "internalType": "uint256",
          "name": "",
          "type": "uint256"
        }
      ],
      "stateMutability": "view",
      "type": "function"
    },
    {
      "inputs": [
        {
          "internalType": "address",
          "name": "to",
          "type": "address"
        },
        {
          "internalType": "uint256",
          "name": "value",
          "type": "uint256"
        }
      ],
      "name": "transfer",
      "outputs": [
        {
          "internalType": "bool",
          "name": "",
          "type": "bool"
        }
      ],
      "stateMutability": "nonpayable",
      "type": "function"
    },
    {
      "inputs": [
        {
          "internalType": "address",
          "name": "from",
          "type": "address"
        },
        {
          "internalType": "address",
          "name": "to",
          "type": "address"
        },
        {
          "internalType": "uint256",
          "name": "value",
          "type": "uint256"
        }
      ],
      "name": "transferFrom",
      "outputs": [
        {
          "internalType": "bool",
          "name": "",
          "type": "bool"
        }
      ],
      "stateMutability": "nonpayable",
      "type": "function"
    },
    {
      "inputs": [
        {
          "internalType": "address",
          "name": "newOwner",
          "type": "address"
        }
      ],
      "name": "transferOwnership",
      "outputs": [],
      "stateMutability": "nonpayable",
      "type": "function"
    },
    {
      "inputs": [],
      "name": "treasury",
      "outputs": [
        {
          "internalType": "address",
          "name": "",
          "type": "address"
        }
      ],
      "stateMutability": "view",
      "type": "function"
    },
    {
      "inputs": [
        {
          "internalType": "address",
          "name": "newImplementation",
          "type": "address"
        },
        {
          "internalType": "bytes",
          "name": "data",
          "type": "bytes"
        }
      ],
      "name": "upgradeToAndCall",
      "outputs": [],
      "stateMutability": "payable",
      "type": "function"
    }
  ],
  "bytecode": "0x60a060405230608052348015610013575f80fd5b5061001c610021565b6100d3565b7ff0c57e16840df040f15088dc2f81fe391c3923bec73e23a9662efc9c229c6a00805468010000000000000000900460ff16156100715760405163f92ee8a960e01b815260040160405180910390fd5b80546001600160401b03908116146100d05780546001600160401b0319166001600160401b0390811782556040519081527fc7f505b2f371ae2175ee4913f4499e1f2633a7b5936321eed1cdaeb6115181d29060200160405180910390a15b50565b6080516115b96100f95f395f8181610afb01528181610b240152610c6301526115b95ff3fe608060405260043610610126575f3560e01c806370a08231116100a8578063a9059cbb1161006d578063a9059cbb1461035a578063ad3cb1cc14610379578063ce0ebab1146103a9578063dd62ed3e146103c8578063f0f44260146103e7578063f2fde38b14610406575f80fd5b806370a0823114610297578063715018a6146102d757806387d960c0146102eb5780638da5cb5b1461030a57806395d89b4114610346575f80fd5b806340c10f19116100ee57806340c10f19146101fa578063485cc9551461021b5780634f1ef2861461023a57806352d1902d1461024d57806361d027b314610261575f80fd5b806306fdde031461012a578063095ea7b31461015457806318160ddd1461018357806323b872dd146101c0578063313ce567146101df575b5f80fd5b348015610135575f80fd5b5061013e610425565b60405161014b91906111ec565b60405180910390f35b34801561015f575f80fd5b5061017361016e36600461123c565b6104e5565b604051901515815260200161014b565b34801561018e575f80fd5b507f52c63247e1f47db19d5ce0460030c497f067ca4cebf71ba98eeadabe20bace02545b60405190815260200161014b565b3480156101cb575f80fd5b506101736101da366004611264565b6104fe565b3480156101ea575f80fd5b506040516012815260200161014b565b348015610205575f80fd5b5061021961021436600461123c565b610523565b005b348015610226575f80fd5b5061021961023536600461129e565b610590565b6102196102483660046112e3565b61070c565b348015610258575f80fd5b506101b2610727565b34801561026c575f80fd5b505f5461027f906001600160a01b031681565b6040516001600160a01b03909116815260200161014b565b3480156102a2575f80fd5b506101b26102b13660046113a7565b6001600160a01b03165f9081525f80516020611544833981519152602052604090205490565b3480156102e2575f80fd5b50610219610742565b3480156102f6575f80fd5b506102196103053660046113a7565b610755565b348015610315575f80fd5b507f9016d09d72d40fdae2fd8ceac6b6234c7706214fd39c1cd1e609a0528c199300546001600160a01b031661027f565b348015610351575f80fd5b5061013e61080e565b348015610365575f80fd5b5061017361037436600461123c565b61084c565b348015610384575f80fd5b5061013e604051806040016040528060058152602001640352e302e360dc1b81525081565b3480156103b4575f80fd5b5060015461027f906001600160a01b031681565b3480156103d3575f80fd5b506101b26103e236600461129e565b610859565b3480156103f2575f80fd5b506102196104013660046113a7565b6108a2565b348015610411575f80fd5b506102196104203660046113a7565b610959565b7f52c63247e1f47db19d5ce0460030c497f067ca4cebf71ba98eeadabe20bace0380546060915f8051602061154483398151915291610463906113c0565b80601f016020809104026020016040519081016040528092919081815260200182805461048f906113c0565b80156104da5780601f106104b1576101008083540402835291602001916104da565b820191905f5260205f20905b8154815290600101906020018083116104bd57829003601f168201915b505050505091505090565b5f336104f2818585610996565b60019150505b92915050565b5f3361050b8582856109a8565b610516858585610a0c565b60019150505b9392505050565b6001546001600160a01b031633146105825760405162461bcd60e51b815260206004820152601a60248201527f43616c6c6572206973206e6f742054617665726e4b656570657200000000000060448201526064015b60405180910390fd5b61058c8282610a69565b5050565b5f610599610a9d565b805490915060ff600160401b820416159067ffffffffffffffff165f811580156105c05750825b90505f8267ffffffffffffffff1660011480156105dc5750303b155b9050811580156105ea575080155b156106085760405163f92ee8a960e01b815260040160405180910390fd5b845467ffffffffffffffff19166001178555831561063257845460ff60401b1916600160401b1785555b61067d6040518060400160405280600d81526020016c2a30bb32b9371025b2b2b832b960991b8152506040518060400160405280600481526020016304b4545560e41b815250610ac5565b61068633610ad7565b61068e610ae8565b5f80546001600160a01b03808a166001600160a01b0319928316179092556001805492891692909116919091179055831561070357845460ff60401b19168555604051600181527fc7f505b2f371ae2175ee4913f4499e1f2633a7b5936321eed1cdaeb6115181d29060200160405180910390a15b50505050505050565b610714610af0565b61071d82610b94565b61058c8282610b9c565b5f610730610c58565b505f8051602061156483398151915290565b61074a610ca1565b6107535f610cfc565b565b61075d610ca1565b6001600160a01b0381166107b35760405162461bcd60e51b815260206004820152601860248201527f496e76616c696420636f6e7472616374206164647265737300000000000000006044820152606401610579565b6001546040516001600160a01b038084169216907fb6dcf697e17935e3ae388dc9de11b3ca7fd3224bae1ef187ce75dad6e0a692a5905f90a3600180546001600160a01b0319166001600160a01b0392909216919091179055565b7f52c63247e1f47db19d5ce0460030c497f067ca4cebf71ba98eeadabe20bace0480546060915f8051602061154483398151915291610463906113c0565b5f336104f2818585610a0c565b6001600160a01b039182165f9081527f52c63247e1f47db19d5ce0460030c497f067ca4cebf71ba98eeadabe20bace016020908152604080832093909416825291909152205490565b6108aa610ca1565b6001600160a01b0381166109005760405162461bcd60e51b815260206004820152601860248201527f496e76616c6964207472656173757279206164647265737300000000000000006044820152606401610579565b5f80546040516001600160a01b03808516939216917f4ab5be82436d353e61ca18726e984e561f5c1cc7c6d38b29d2553c790434705a91a35f80546001600160a01b0319166001600160a01b0392909216919091179055565b610961610ca1565b6001600160a01b03811661098a57604051631e4fbdf760e01b81525f6004820152602401610579565b61099381610cfc565b50565b6109a38383836001610d6c565b505050565b5f6109b38484610859565b90505f19811015610a0657818110156109f857604051637dc7a0d960e11b81526001600160a01b03841660048201526024810182905260448101839052606401610579565b610a0684848484035f610d6c565b50505050565b6001600160a01b038316610a3557604051634b637e8f60e11b81525f6004820152602401610579565b6001600160a01b038216610a5e5760405163ec442f0560e01b81525f6004820152602401610579565b6109a3838383610e50565b6001600160a01b038216610a925760405163ec442f0560e01b81525f6004820152602401610579565b61058c5f8383610e50565b5f807ff0c57e16840df040f15088dc2f81fe391c3923bec73e23a9662efc9c229c6a006104f8565b610acd610f89565b61058c8282610fae565b610adf610f89565b61099381610ffe565b610753610f89565b306001600160a01b037f0000000000000000000000000000000000000000000000000000000000000000161480610b7657507f00000000000000000000000000000000000000000000000000000000000000006001600160a01b0316610b6a5f80516020611564833981519152546001600160a01b031690565b6001600160a01b031614155b156107535760405163703e46dd60e11b815260040160405180910390fd5b610993610ca1565b816001600160a01b03166352d1902d6040518163ffffffff1660e01b8152600401602060405180830381865afa925050508015610bf6575060408051601f3d908101601f19168201909252610bf3918101906113f8565b60015b610c1e57604051634c9c8ce360e01b81526001600160a01b0383166004820152602401610579565b5f805160206115648339815191528114610c4e57604051632a87526960e21b815260048101829052602401610579565b6109a38383611006565b306001600160a01b037f000000000000000000000000000000000000000000000000000000000000000016146107535760405163703e46dd60e11b815260040160405180910390fd5b33610cd37f9016d09d72d40fdae2fd8ceac6b6234c7706214fd39c1cd1e609a0528c199300546001600160a01b031690565b6001600160a01b0316146107535760405163118cdaa760e01b8152336004820152602401610579565b7f9016d09d72d40fdae2fd8ceac6b6234c7706214fd39c1cd1e609a0528c19930080546001600160a01b031981166001600160a01b03848116918217845560405192169182907f8be0079c531659141344cd1fd0a4f28419497f9722a3daafe3b4186f6b6457e0905f90a3505050565b5f805160206115448339815191526001600160a01b038516610da35760405163e602df0560e01b81525f6004820152602401610579565b6001600160a01b038416610dcc57604051634a1406b160e11b81525f6004820152602401610579565b6001600160a01b038086165f90815260018301602090815260408083209388168352929052208390558115610e4957836001600160a01b0316856001600160a01b03167f8c5be1e5ebec7d5bd14f71427d1e84f3dd0314c0f7b2291e5b200ac8c7c3b92585604051610e4091815260200190565b60405180910390a35b5050505050565b5f805160206115448339815191526001600160a01b038416610e8a5781816002015f828254610e7f919061140f565b90915550610efa9050565b6001600160a01b0384165f9081526020829052604090205482811015610edc5760405163391434e360e21b81526001600160a01b03861660048201526024810182905260448101849052606401610579565b6001600160a01b0385165f9081526020839052604090209083900390555b6001600160a01b038316610f18576002810180548390039055610f36565b6001600160a01b0383165f9081526020829052604090208054830190555b826001600160a01b0316846001600160a01b03167fddf252ad1be2c89b69c2b068fc378daa952ba7f163c4a11628f55a4df523b3ef84604051610f7b91815260200190565b60405180910390a350505050565b610f9161105b565b61075357604051631afcd79f60e31b815260040160405180910390fd5b610fb6610f89565b5f805160206115448339815191527f52c63247e1f47db19d5ce0460030c497f067ca4cebf71ba98eeadabe20bace03610fef8482611472565b5060048101610a068382611472565b610961610f89565b61100f82611074565b6040516001600160a01b038316907fbc7cd75a20ee27fd9adebab32041f755214dbc6bffa90cc0225b39da2e5c2d3b905f90a2805115611053576109a382826110d7565b61058c611149565b5f611064610a9d565b54600160401b900460ff16919050565b806001600160a01b03163b5f036110a957604051634c9c8ce360e01b81526001600160a01b0382166004820152602401610579565b5f8051602061156483398151915280546001600160a01b0319166001600160a01b0392909216919091179055565b60605f80846001600160a01b0316846040516110f3919061152d565b5f60405180830381855af49150503d805f811461112b576040519150601f19603f3d011682016040523d82523d5f602084013e611130565b606091505b5091509150611140858383611168565b95945050505050565b34156107535760405163b398979f60e01b815260040160405180910390fd5b60608261117d57611178826111c4565b61051c565b815115801561119457506001600160a01b0384163b155b156111bd57604051639996b31560e01b81526001600160a01b0385166004820152602401610579565b508061051c565b8051156111d357805160208201fd5b60405163d6bda27560e01b815260040160405180910390fd5b602081525f82518060208401528060208501604085015e5f604082850101526040601f19601f83011684010191505092915050565b80356001600160a01b0381168114611237575f80fd5b919050565b5f806040838503121561124d575f80fd5b61125683611221565b946020939093013593505050565b5f805f60608486031215611276575f80fd5b61127f84611221565b925061128d60208501611221565b929592945050506040919091013590565b5f80604083850312156112af575f80fd5b6112b883611221565b91506112c660208401611221565b90509250929050565b634e487b7160e01b5f52604160045260245ffd5b5f80604083850312156112f4575f80fd5b6112fd83611221565b9150602083013567ffffffffffffffff811115611318575f80fd5b8301601f81018513611328575f80fd5b803567ffffffffffffffff811115611342576113426112cf565b604051601f8201601f19908116603f0116810167ffffffffffffffff81118282101715611371576113716112cf565b604052818152828201602001871015611388575f80fd5b816020840160208301375f602083830101528093505050509250929050565b5f602082840312156113b7575f80fd5b61051c82611221565b600181811c908216806113d457607f821691505b6020821081036113f257634e487b7160e01b5f52602260045260245ffd5b50919050565b5f60208284031215611408575f80fd5b5051919050565b808201808211156104f857634e487b7160e01b5f52601160045260245ffd5b601f8211156109a357805f5260205f20601f840160051c810160208510156114535750805b601f840160051c820191505b81811015610e49575f815560010161145f565b815167ffffffffffffffff81111561148c5761148c6112cf565b6114a08161149a84546113c0565b8461142e565b6020601f8211600181146114d2575f83156114bb5750848201515b5f19600385901b1c1916600184901b178455610e49565b5f84815260208120601f198516915b8281101561150157878501518255602094850194600190920191016114e1565b508482101561151e57868401515f19600387901b60f8161c191681555b50505050600190811b01905550565b5f82518060208501845e5f92019182525091905056fe52c63247e1f47db19d5ce0460030c497f067ca4cebf71ba98eeadabe20bace00360894a13ba1a3210667c828492db98dca3e2076cc3735a920a3ca505d382bbca26469706673582212200667a901981702669b4735f8c3a8eda25560b22650a0774ad1d9c22334aa157f64736f6c634300081a0033",
  "linkReferences": {},
  "deployedLinkReferences": {}
}