{
  "_format": "hh-sol-artifact-1",
  "contractName": "TavernRegularsManager",
  "sourceName": "contracts/TavernRegularsManager.sol",
  "abi": [
    {
      "inputs": [],
      "stateMutability": "nonpayable",
      "type": "constructor"
    },
    {
      "inputs": [
        {
          "internalType": "address",
          "name": "target",
          "type": "address"
        }
      ],
      "name": "AddressEmptyCode",
      "type": "error"
    },
    {
      "inputs": [
        {
          "internalType": "address",
          "name": "implementation",
          "type": "address"
        }
      ],
      "name": "ERC1967InvalidImplementation",
      "type": "error"
    },
    {
      "inputs": [],
      "name": "ERC1967NonPayable",
      "type": "error"
    },
    {
      "inputs": [],
      "name": "FailedCall",
      "type": "error"
    },
    {
      "inputs": [],
      "name": "InvalidInitialization",
      "type": "error"
    },
    {
      "inputs": [],
      "name": "NotInitializing",
      "type": "error"
    },
    {
      "inputs": [
        {
          "internalType": "address",
          "name": "owner",
          "type": "address"
        }
      ],
      "name": "OwnableInvalidOwner",
      "type": "error"
    },
    {
      "inputs": [
        {
          "internalType": "address",
          "name": "account",
          "type": "address"
        }
      ],
      "name": "OwnableUnauthorizedAccount",
      "type": "error"
    },
    {
      "inputs": [],
      "name": "ReentrancyGuardReentrantCall",
      "type": "error"
    },
    {
      "inputs": [
        {
          "internalType": "address",
          "name": "token",
          "type": "address"
        }
      ],
      "name": "SafeERC20FailedOperation",
      "type": "error"
    },
    {
      "inputs": [],
      "name": "UUPSUnauthorizedCallContext",
      "type": "error"
    },
    {
      "inputs": [
        {
          "internalType": "bytes32",
          "name": "slot",
          "type": "bytes32"
        }
      ],
      "name": "UUPSUnsupportedProxiableUUID",
      "type": "error"
    },
    {
      "anonymous": false,
      "inputs": [
        {
          "indexed": true,
          "internalType": "uint256",
          "name": "groupId",
          "type": "uint256"
        },
        {
          "indexed": true,
          "internalType": "address",
          "name": "member",
          "type": "address"
        },
        {
          "indexed": false,
          "internalType": "uint256",
          "name": "amount",
          "type": "uint256"
        }
      ],
      "name": "FeesClaimed",
      "type": "event"
    },
    {
      "anonymous": false,
      "inputs": [
        {
          "indexed": true,
          "internalType": "uint256",
          "name": "groupId",
          "type": "uint256"
        },
        {
          "indexed": false,
          "internalType": "uint256",
          "name": "toMembers",
          "type": "uint256"
        },
        {
          "indexed": false,
          "internalType": "uint256",
          "name": "toPot",
          "type": "uint256"
        }
      ],
      "name": "FeesDistributed",
      "type": "event"
    },
    {
      "anonymous": false,
      "inputs": [
        {
          "indexed": true,
          "internalType": "uint256",
          "name": "groupId",
          "type": "uint256"
        },
        {
          "indexed": true,
          "internalType": "address",
          "name": "member",
          "type": "address"
        },
        {
          "indexed": false,
          "internalType": "uint256",
          "name": "amountMON",
          "type": "uint256"
        },
        {
          "indexed": false,
          "internalType": "uint256",
          "name": "lpTokensReceived",
          "type": "uint256"
        }
      ],
      "name": "GroupContributed",
      "type": "event"
    },
    {
      "anonymous": false,
      "inputs": [
        {
          "indexed": true,
          "internalType": "uint256",
          "name": "groupId",
          "type": "uint256"
        },
        {
          "indexed": true,
          "internalType": "address",
          "name": "creator",
          "type": "address"
        },
        {
          "indexed": false,
          "internalType": "string",
          "name": "groupName",
          "type": "string"
        }
      ],
      "name": "GroupCreated",
      "type": "event"
    },
    {
      "anonymous": false,
      "inputs": [
        {
          "indexed": true,
          "internalType": "uint256",
          "name": "groupId",
          "type": "uint256"
        },
        {
          "indexed": true,
          "internalType": "address",
          "name": "member",
          "type": "address"
        },
        {
          "indexed": false,
          "internalType": "uint256",
          "name": "lpTokenAmount",
          "type": "uint256"
        }
      ],
      "name": "GroupWithdrawn",
      "type": "event"
    },
    {
      "anonymous": false,
      "inputs": [
        {
          "indexed": false,
          "internalType": "uint64",
          "name": "version",
          "type": "uint64"
        }
      ],
      "name": "Initialized",
      "type": "event"
    },
    {
      "anonymous": false,
      "inputs": [
        {
          "indexed": true,
          "internalType": "uint256",
          "name": "groupId",
          "type": "uint256"
        },
        {
          "indexed": true,
          "internalType": "address",
          "name": "member",
          "type": "address"
        }
      ],
      "name": "MemberJoined",
      "type": "event"
    },
    {
      "anonymous": false,
      "inputs": [
        {
          "indexed": true,
          "internalType": "address",
          "name": "previousOwner",
          "type": "address"
        },
        {
          "indexed": true,
          "internalType": "address",
          "name": "newOwner",
          "type": "address"
        }
      ],
      "name": "OwnershipTransferred",
      "type": "event"
    },
    {
      "anonymous": false,
      "inputs": [
        {
          "indexed": true,
          "internalType": "address",
          "name": "implementation",
          "type": "address"
        }
      ],
      "name": "Upgraded",
      "type": "event"
    },
    {
      "inputs": [],
      "name": "BPS_DENOMINATOR",
      "outputs": [
        {
          "internalType": "uint256",
          "name": "",
          "type": "uint256"
        }
      ],
      "stateMutability": "view",
      "type": "function"
    },
    {
      "inputs": [],
      "name": "CONTRIBUTION_TAX_BPS",
      "outputs": [
        {
          "internalType": "uint256",
          "name": "",
          "type": "uint256"
        }
      ],
      "stateMutability": "view",
      "type": "function"
    },
    {
      "inputs": [],
      "name": "KEEP",
      "outputs": [
        {
          "internalType": "Currency",
          "name": "",
          "type": "address"
        }
      ],
      "stateMutability": "view",
      "type": "function"
    },
    {
      "inputs": [],
      "name": "MAX_MEMBERS",
      "outputs": [
        {
          "internalType": "uint256",
          "name": "",
          "type": "uint256"
        }
      ],
      "stateMutability": "view",
      "type": "function"
    },
    {
      "inputs": [],
      "name": "MON",
      "outputs": [
        {
          "internalType": "Currency",
          "name": "",
          "type": "address"
        }
      ],
      "stateMutability": "view",
      "type": "function"
    },
    {
      "inputs": [],
      "name": "UPGRADE_INTERFACE_VERSION",
      "outputs": [
        {
          "internalType": "string",
          "name": "",
          "type": "string"
        }
      ],
      "stateMutability": "view",
      "type": "function"
    },
    {
      "inputs": [],
      "name": "cellarHook",
      "outputs": [
        {
          "internalType": "address",
          "name": "",
          "type": "address"
        }
      ],
      "stateMutability": "view",
      "type": "function"
    },
    {
      "inputs": [],
      "name": "cellarZap",
      "outputs": [
        {
          "internalType": "address",
          "name": "",
          "type": "address"
        }
      ],
      "stateMutability": "view",
      "type": "function"
    },
    {
      "inputs": [
        {
          "internalType": "uint256",
          "name": "groupId",
          "type": "uint256"
        }
      ],
      "name": "claimTavernRegularsFees",
      "outputs": [],
      "stateMutability": "nonpayable",
      "type": "function"
    },
    {
      "inputs": [
        {
          "internalType": "uint256",
          "name": "groupId",
          "type": "uint256"
        },
        {
          "internalType": "uint256",
          "name": "amountMON",
          "type": "uint256"
        },
        {
          "internalType": "uint256",
          "name": "amountKEEP",
          "type": "uint256"
        }
      ],
      "name": "contributeToTavernRegularsGroup",
      "outputs": [
        {
          "internalType": "uint256",
          "name": "lpTokensReceived",
          "type": "uint256"
        }
      ],
      "stateMutability": "payable",
      "type": "function"
    },
    {
      "inputs": [
        {
          "internalType": "string",
          "name": "groupName",
          "type": "string"
        }
      ],
      "name": "createTavernRegularsGroup",
      "outputs": [
        {
          "internalType": "uint256",
          "name": "groupId",
          "type": "uint256"
        }
      ],
      "stateMutability": "nonpayable",
      "type": "function"
    },
    {
      "inputs": [
        {
          "internalType": "uint256",
          "name": "groupId",
          "type": "uint256"
        },
        {
          "internalType": "uint256",
          "name": "totalFees",
          "type": "uint256"
        }
      ],
      "name": "distributeGroupFees",
      "outputs": [],
      "stateMutability": "payable",
      "type": "function"
    },
    {
      "inputs": [],
      "name": "flywheelFeeBps",
      "outputs": [
        {
          "internalType": "uint256",
          "name": "",
          "type": "uint256"
        }
      ],
      "stateMutability": "view",
      "type": "function"
    },
    {
      "inputs": [
        {
          "internalType": "uint256",
          "name": "groupId",
          "type": "uint256"
        }
      ],
      "name": "getGroupMembers",
      "outputs": [
        {
          "internalType": "address[]",
          "name": "",
          "type": "address[]"
        }
      ],
      "stateMutability": "view",
      "type": "function"
    },
    {
      "inputs": [
        {
          "internalType": "uint256",
          "name": "groupId",
          "type": "uint256"
        },
        {
          "internalType": "address",
          "name": "member",
          "type": "address"
        }
      ],
      "name": "getMemberShare",
      "outputs": [
        {
          "internalType": "uint256",
          "name": "",
          "type": "uint256"
        }
      ],
      "stateMutability": "view",
      "type": "function"
    },
    {
      "inputs": [
        {
          "internalType": "uint256",
          "name": "groupId",
          "type": "uint256"
        },
        {
          "internalType": "address",
          "name": "member",
          "type": "address"
        }
      ],
      "name": "getPendingFees",
      "outputs": [
        {
          "internalType": "uint256",
          "name": "",
          "type": "uint256"
        }
      ],
      "stateMutability": "view",
      "type": "function"
    },
    {
      "inputs": [
        {
          "internalType": "address",
          "name": "user",
          "type": "address"
        }
      ],
      "name": "getUserGroups",
      "outputs": [
        {
          "internalType": "uint256[]",
          "name": "",
          "type": "uint256[]"
        }
      ],
      "stateMutability": "view",
      "type": "function"
    },
    {
      "inputs": [
        {
          "internalType": "uint256",
          "name": "",
          "type": "uint256"
        }
      ],
      "name": "groups",
      "outputs": [
        {
          "internalType": "uint256",
          "name": "groupId",
          "type": "uint256"
        },
        {
          "internalType": "address",
          "name": "creator",
          "type": "address"
        },
        {
          "internalType": "uint256",
          "name": "totalContribution",
          "type": "uint256"
        },
        {
          "internalType": "uint256",
          "name": "lpTokenBalance",
          "type": "uint256"
        },
        {
          "internalType": "uint256",
          "name": "createdAt",
          "type": "uint256"
        },
        {
          "internalType": "bool",
          "name": "active",
          "type": "bool"
        },
        {
          "internalType": "string",
          "name": "groupName",
          "type": "string"
        }
      ],
      "stateMutability": "view",
      "type": "function"
    },
    {
      "inputs": [
        {
          "internalType": "address",
          "name": "_cellarHook",
          "type": "address"
        },
        {
          "internalType": "address",
          "name": "_cellarZap",
          "type": "address"
        },
        {
          "internalType": "contract IPoolManager",
          "name": "_poolManager",
          "type": "address"
        },
        {
          "internalType": "Currency",
          "name": "_mon",
          "type": "address"
        },
        {
          "internalType": "Currency",
          "name": "_keep",
          "type": "address"
        },
        {
          "internalType": "address",
          "name": "_treasury",
          "type": "address"
        },
        {
          "internalType": "address",
          "name": "_owner",
          "type": "address"
        }
      ],
      "name": "initialize",
      "outputs": [],
      "stateMutability": "nonpayable",
      "type": "function"
    },
    {
      "inputs": [
        {
          "internalType": "uint256",
          "name": "groupId",
          "type": "uint256"
        }
      ],
      "name": "joinTavernRegularsGroup",
      "outputs": [],
      "stateMutability": "nonpayable",
      "type": "function"
    },
    {
      "inputs": [],
      "name": "memberShareBps",
      "outputs": [
        {
          "internalType": "uint256",
          "name": "",
          "type": "uint256"
        }
      ],
      "stateMutability": "view",
      "type": "function"
    },
    {
      "inputs": [],
      "name": "nextGroupId",
      "outputs": [
        {
          "internalType": "uint256",
          "name": "",
          "type": "uint256"
        }
      ],
      "stateMutability": "view",
      "type": "function"
    },
    {
      "inputs": [],
      "name": "owner",
      "outputs": [
        {
          "internalType": "address",
          "name": "",
          "type": "address"
        }
      ],
      "stateMutability": "view",
      "type": "function"
    },
    {
      "inputs": [],
      "name": "ownerTaxBps",
      "outputs": [
        {
          "internalType": "uint256",
          "name": "",
          "type": "uint256"
        }
      ],
      "stateMutability": "view",
      "type": "function"
    },
    {
      "inputs": [],
      "name": "poolManager",
      "outputs": [
        {
          "internalType": "contract IPoolManager",
          "name": "",
          "type": "address"
        }
      ],
      "stateMutability": "view",
      "type": "function"
    },
    {
      "inputs": [],
      "name": "proxiableUUID",
      "outputs": [
        {
          "internalType": "bytes32",
          "name": "",
          "type": "bytes32"
        }
      ],
      "stateMutability": "view",
      "type": "function"
    },
    {
      "inputs": [],
      "name": "renounceOwnership",
      "outputs": [],
      "stateMutability": "nonpayable",
      "type": "function"
    },
    {
      "inputs": [
        {
          "internalType": "uint256",
          "name": "_memberShareBps",
          "type": "uint256"
        },
        {
          "internalType": "uint256",
          "name": "_flywheelFeeBps",
          "type": "uint256"
        },
        {
          "internalType": "uint256",
          "name": "_treasuryFeeBps",
          "type": "uint256"
        }
      ],
      "name": "setFeeSplits",
      "outputs": [],
      "stateMutability": "nonpayable",
      "type": "function"
    },
    {
      "inputs": [
        {
          "internalType": "uint256",
          "name": "_ownerTaxBps",
          "type": "uint256"
        }
      ],
      "name": "setOwnerTax",
      "outputs": [],
      "stateMutability": "nonpayable",
      "type": "function"
    },
    {
      "inputs": [
        {
          "internalType": "address",
          "name": "_treasury",
          "type": "address"
        }
      ],
      "name": "setTreasury",
      "outputs": [],
      "stateMutability": "nonpayable",
      "type": "function"
    },
    {
      "inputs": [
        {
          "internalType": "address",
          "name": "newOwner",
          "type": "address"
        }
      ],
      "name": "transferOwnership",
      "outputs": [],
      "stateMutability": "nonpayable",
      "type": "function"
    },
    {
      "inputs": [],
      "name": "treasury",
      "outputs": [
        {
          "internalType": "address",
          "name": "",
          "type": "address"
        }
      ],
      "stateMutability": "view",
      "type": "function"
    },
    {
      "inputs": [],
      "name": "treasuryFeeBps",
      "outputs": [
        {
          "internalType": "uint256",
          "name": "",
          "type": "uint256"
        }
      ],
      "stateMutability": "view",
      "type": "function"
    },
    {
      "inputs": [
        {
          "internalType": "address",
          "name": "newImplementation",
          "type": "address"
        },
        {
          "internalType": "bytes",
          "name": "data",
          "type": "bytes"
        }
      ],
      "name": "upgradeToAndCall",
      "outputs": [],
      "stateMutability": "payable",
      "type": "function"
    },
    {
      "inputs": [
        {
          "internalType": "address",
          "name": "",
          "type": "address"
        },
        {
          "internalType": "uint256",
          "name": "",
          "type": "uint256"
        }
      ],
      "name": "userGroups",
      "outputs": [
        {
          "internalType": "uint256",
          "name": "",
          "type": "uint256"
        }
      ],
      "stateMutability": "view",
      "type": "function"
    },
    {
      "inputs": [
        {
          "internalType": "uint256",
          "name": "groupId",
          "type": "uint256"
        },
        {
          "internalType": "uint256",
          "name": "lpTokenAmount",
          "type": "uint256"
        }
      ],
      "name": "withdrawFromTavernRegularsGroup",
      "outputs": [],
      "stateMutability": "nonpayable",
      "type": "function"
    }
  ],
  "bytecode": "0x60a060405230608052348015610013575f80fd5b5061001c610021565b6100d3565b7ff0c57e16840df040f15088dc2f81fe391c3923bec73e23a9662efc9c229c6a00805468010000000000000000900460ff16156100715760405163f92ee8a960e01b815260040160405180910390fd5b80546001600160401b03908116146100d05780546001600160401b0319166001600160401b0390811782556040519081527fc7f505b2f371ae2175ee4913f4499e1f2633a7b5936321eed1cdaeb6115181d29060200160405180910390a15b50565b608051612abc6100f95f395f8181611df901528181611e220152611f610152612abc5ff3fe608060405260043610610207575f3560e01c806380095b3311610113578063cce590cd1161009d578063e80cfa5e1161006d578063e80cfa5e146105e7578063ea0e35b1146105fc578063f0f4426014610610578063f2fde38b1461062f578063f89468881461064e575f80fd5b8063cce590cd1461058c578063dc4c90d3146105a0578063e1a45218146105bf578063e2c9acda146105d4575f80fd5b8063ad3cb1cc116100e3578063ad3cb1cc146104dd578063af0a574b1461051a578063b366097c14610539578063bb776de914610558578063bcc7cf2614610577575f80fd5b806380095b331461043f5780638da5cb5b1461045257806391ce94a31461046657806396324bd4146104ab575f80fd5b8063476532c3116101945780635eda7a76116101645780635eda7a76146103c35780635fca2445146103d857806360a9e097146103ed57806361d027b31461040c578063715018a61461042b575f80fd5b8063476532c31461035e5780634f1ef2861461037d57806352d1902d146103905780635bf6c8ce146103a4575f80fd5b806332b2f903116101da57806332b2f903146102b457806335876476146102c857806336cc8130146102e75780633da04e4a146103135780633e54466a1461033f575f80fd5b8063090340a01461020b578063118510741461024757806320de5bf1146102745780632bc97a2314610295575b5f80fd5b348015610216575f80fd5b5060095461022a906001600160a01b031681565b6040516001600160a01b0390911681526020015b60405180910390f35b348015610252575f80fd5b506102666102613660046123f4565b61066d565b60405190815260200161023e565b34801561027f575f80fd5b5061029361028e366004612422565b610698565b005b3480156102a0575f80fd5b506102666102af3660046124c4565b610832565b3480156102bf575f80fd5b506102665f5481565b3480156102d3575f80fd5b506102936102e2366004612511565b610926565b3480156102f2575f80fd5b50610306610301366004612422565b610ab4565b60405161023e91906125a2565b34801561031e575f80fd5b5061033261032d3660046125ed565b610b20565b60405161023e9190612608565b34801561034a575f80fd5b5061029361035936600461263f565b610b88565b348015610369575f80fd5b50610293610378366004612422565b610cbd565b61029361038b36600461265f565b610d1c565b34801561039b575f80fd5b50610266610d37565b3480156103af575f80fd5b506102936103be366004612422565b610d52565b3480156103ce575f80fd5b50610266600c5481565b3480156103e3575f80fd5b5061026660015481565b3480156103f8575f80fd5b506102666104073660046126bf565b610ece565b348015610417575f80fd5b5060065461022a906001600160a01b031681565b348015610436575f80fd5b50610293610ef9565b61026661044d3660046126e9565b610f0c565b34801561045d575f80fd5b5061022a6114d8565b348015610471575f80fd5b506102666104803660046123f4565b5f828152600a602090815260408083206001600160a01b038516845260060190915290205492915050565b3480156104b6575f80fd5b506104ca6104c5366004612422565b611506565b60405161023e9796959493929190612740565b3480156104e8575f80fd5b5061050d604051806040016040528060058152602001640352e302e360dc1b81525081565b60405161023e919061278d565b348015610525575f80fd5b5060055461022a906001600160a01b031681565b348015610544575f80fd5b5060085461022a906001600160a01b031681565b348015610563575f80fd5b506102936105723660046126e9565b6115d8565b348015610582575f80fd5b5061026660035481565b348015610597575f80fd5b50610266606481565b3480156105ab575f80fd5b5060075461022a906001600160a01b031681565b3480156105ca575f80fd5b5061026661271081565b6102936105e236600461263f565b611652565b3480156105f2575f80fd5b5061026660025481565b348015610607575f80fd5b50610266600a81565b34801561061b575f80fd5b5061029361062a3660046125ed565b611c03565b34801561063a575f80fd5b506102936106493660046125ed565b611c83565b348015610659575f80fd5b5060045461022a906001600160a01b031681565b5f828152600a602081815260408084206001600160a01b038616855290920190529020545b92915050565b5f818152600a60205260409020600881015460ff166106d25760405162461bcd60e51b81526004016106c99061279f565b60405180910390fd5b6002810154600a116107135760405162461bcd60e51b815260206004820152600a60248201526911dc9bdd5c08199d5b1b60b21b60448201526064016106c9565b5f805b600283015481101561076b57336001600160a01b0316836002018281548110610741576107416127c9565b5f918252602090912001546001600160a01b031603610763576001915061076b565b600101610716565b5080156107ad5760405162461bcd60e51b815260206004820152601060248201526f20b63932b0b23c90309036b2b6b132b960811b60448201526064016106c9565b600282018054600181810183555f928352602080842090920180546001600160a01b031916339081179091558084526006860183526040808520859055600b84528085208054938401815585529284209091018690559051909185917f78da64a590c3052953ad9e0a5546bbf12bb68ae7634e3fb2a774e22a8c6557c19190a3505050565b600c80545f9182610842836127f1565b909155505f818152600a60209081526040822083815560018082018054336001600160a01b03199182168117909255600284018054808501825590875294909520909301805490941690921790925542600783015560088201805460ff19169091179055909150600981016108b7848261288c565b50335f8181526006830160209081526040808320839055600b8252808320805460018101825590845291909220018490555183907f4354295f5d98820e66a770bd58cf23606ab255dd9dc2daf870fab38ecbc3e7e09061091890879061278d565b60405180910390a350919050565b5f61092f611cbd565b805490915060ff600160401b820416159067ffffffffffffffff165f811580156109565750825b90505f8267ffffffffffffffff1660011480156109725750303b155b905081158015610980575080155b1561099e5760405163f92ee8a960e01b815260040160405180910390fd5b845467ffffffffffffffff1916600117855583156109c857845460ff60401b1916600160401b1785555b6109d186611ce5565b6109d9611cf6565b6109e1611cfe565b600480546001600160a01b03199081166001600160a01b038f8116919091179092556005805482168e84161790556007805482168d84161790556008805482168c84161790556009805482168b8416179055600680549091169189169190911790556001600c819055611d4c5f9081556107d09091556101f46002556003558315610aa657845460ff60401b19168555604051600181527fc7f505b2f371ae2175ee4913f4499e1f2633a7b5936321eed1cdaeb6115181d29060200160405180910390a15b505050505050505050505050565b5f818152600a6020908152604091829020600201805483518184028101840190945280845260609392830182828015610b1457602002820191905f5260205f20905b81546001600160a01b03168152600190910190602001808311610af6575b50505050509050919050565b6001600160a01b0381165f908152600b6020908152604091829020805483518184028101840190945280845260609392830182828015610b1457602002820191905f5260205f20905b815481526020019060010190808311610b695750505050509050919050565b610b90611d0e565b5f828152600a60205260409020600881015460ff16610bc15760405162461bcd60e51b81526004016106c99061279f565b335f908152600682016020526040902054821115610c175760405162461bcd60e51b8152602060048201526013602482015272496e73756666696369656e742073686172657360681b60448201526064016106c9565b81816005015f828254610c2a9190612947565b9091555050335f90815260068201602052604081208054849290610c4f908490612947565b9091555050600454610c6b906001600160a01b03163384611d45565b604051828152339084907fe2692026f978bb917f663294d4a6bd063ec292f7dd704ae7850d6d1346be61c59060200160405180910390a350610cb960015f80516020612a6783398151915255565b5050565b610cc5611dbc565b6103e8811115610d175760405162461bcd60e51b815260206004820152601b60248201527f4f776e6572207461782063616e6e6f742065786365656420313025000000000060448201526064016106c9565b600355565b610d24611dee565b610d2d82611e92565b610cb98282611e9a565b5f610d40611f56565b505f80516020612a4783398151915290565b610d5a611d0e565b5f818152600a602081815260408084203385529283019091529091205480610db75760405162461bcd60e51b815260206004820152601060248201526f4e6f206665657320746f20636c61696d60801b60448201526064016106c9565b335f908152600a830160205260408120556008546001600160a01b0316610e65576040515f90339083908381818185875af1925050503d805f8114610e17576040519150601f19603f3d011682016040523d82523d5f602084013e610e1c565b606091505b5050905080610e5f5760405162461bcd60e51b815260206004820152600f60248201526e151c985b9cd9995c8819985a5b1959608a1b60448201526064016106c9565b50610e7c565b600854610e7c906001600160a01b03163383611d45565b604051818152339084907f2227733fc4c8a9034cb58087dcf6995128b9c0233b038b03366aaf30c92b92d69060200160405180910390a35050610ecb60015f80516020612a6783398151915255565b50565b600b602052815f5260405f208181548110610ee7575f80fd5b905f5260205f20015f91509150505481565b610f01611dbc565b610f0a5f611f9f565b565b5f610f15611d0e565b5f848152600a60205260409020600881015460ff16610f465760405162461bcd60e51b81526004016106c99061279f565b5f805b6002830154811015610f9e57336001600160a01b0316836002018281548110610f7457610f746127c9565b5f918252602090912001546001600160a01b031603610f965760019150610f9e565b600101610f49565b5080610fdb5760405162461bcd60e51b815260206004820152600c60248201526b2737ba10309036b2b6b132b960a11b60448201526064016106c9565b5f85118015610fe957505f84115b61102b5760405162461bcd60e51b81526020600482015260136024820152720416d6f756e7473206d757374206265203e203606c1b60448201526064016106c9565b5f61271061103a60648861295a565b6110449190612971565b90505f6110518288612947565b6008549091506001600160a01b03166110ae578634146110a95760405162461bcd60e51b8152602060048201526013602482015272496e636f7272656374204d4f4e2076616c756560681b60448201526064016106c9565b6110c6565b6008546110c6906001600160a01b031633308a61200f565b6009546110de906001600160a01b031633308961200f565b6008546001600160a01b031661114d576004805460408051633ed1d9e760e01b815290516001600160a01b0390921692633ed1d9e7928692808301925f929182900301818588803b158015611131575f80fd5b505af1158015611143573d5f803e3d5ffd5b50505050506111c2565b60045460085461116a916001600160a01b0391821691168461204e565b600480546040516393d5e96560e01b81529182018490526001600160a01b0316906393d5e965906024015f604051808303815f87803b1580156111ab575f80fd5b505af11580156111bd573d5f803e3d5ffd5b505050505b6008546001600160a01b0316156111f0576004546008546111f0916001600160a01b0391821691168361204e565b60045460095461120d916001600160a01b0391821691168861204e565b6008546009545f91829161122d916001600160a01b0390811691166120dd565b6040805160a0810182526001600160a01b0380851682528084166020830152610bb892820192909252603c60608201526004548216608082015260085493955091935090915f911615611280575f611282565b845b600480546040516370a0823160e01b815230928101929092529192505f916001600160a01b0316906370a0823190602401602060405180830381865afa1580156112ce573d5f803e3d5ffd5b505050506040513d601f19601f820116820180604052508101906112f29190612990565b905060045f9054906101000a90046001600160a01b03166001600160a01b0316631036796c8385898f5f806040518763ffffffff1660e01b815260040161133d9594939291906129a7565b5f604051808303818588803b158015611354575f80fd5b505af1158015611366573d5f803e3d5ffd5b5050600480546040516370a0823160e01b815230928101929092525f94506001600160a01b031692506370a082319150602401602060405180830381865afa1580156113b4573d5f803e3d5ffd5b505050506040513d601f19601f820116820180604052508101906113d89190612990565b90506113e48282612947565b9a50868a6003015f8282546113f99190612a1d565b9091555050335f90815260048b0160205260408120805489929061141e908490612a1d565b925050819055508a8a6005015f8282546114389190612a1d565b9091555050335f90815260068b016020526040812080548d929061145d908490612a1d565b92505081905550336001600160a01b03168e7fafb0d19d33d91cd5aba0cbb8cd04923a79d152a4ff78baee90c87eaa3420df6f898e6040516114a9929190918252602082015260400190565b60405180910390a3505050505050505050506114d160015f80516020612a6783398151915255565b9392505050565b7f9016d09d72d40fdae2fd8ceac6b6234c7706214fd39c1cd1e609a0528c199300546001600160a01b031690565b600a6020525f9081526040902080546001820154600383015460058401546007850154600886015460098701805496976001600160a01b039096169694959394929360ff9092169261155790612809565b80601f016020809104026020016040519081016040528092919081815260200182805461158390612809565b80156115ce5780601f106115a5576101008083540402835291602001916115ce565b820191905f5260205f20905b8154815290600101906020018083116115b157829003601f168201915b5050505050905087565b6115e0611dbc565b612710816115ee8486612a1d565b6115f89190612a1d565b146116455760405162461bcd60e51b815260206004820152601b60248201527f4665652073706c697473206d7573742073756d20746f2031303025000000000060448201526064016106c9565b5f92909255600155600255565b5f828152600a60205260409020600881015460ff166116835760405162461bcd60e51b81526004016106c99061279f565b5f82116116ca5760405162461bcd60e51b81526020600482015260156024820152744e6f206665657320746f206469737472696275746560581b60448201526064016106c9565b6008546001600160a01b031661172e578134146117295760405162461bcd60e51b815260206004820152601b60248201527f496e636f7272656374206e6174697665204d4f4e20616d6f756e74000000000060448201526064016106c9565b6117e6565b6008546040516370a0823160e01b815230600482015283916001600160a01b0316906370a0823190602401602060405180830381865afa158015611774573d5f803e3d5ffd5b505050506040513d601f19601f820116820180604052508101906117989190612990565b10156117e65760405162461bcd60e51b815260206004820152601d60248201527f496e73756666696369656e74206665657320696e20636f6e747261637400000060448201526064016106c9565b5f612710600354846117f8919061295a565b6118029190612971565b90505f61180f8285612947565b90505f6127105f5483611822919061295a565b61182c9190612971565b90505f61271060015484611840919061295a565b61184a9190612971565b90505f6127106002548561185e919061295a565b6118689190612971565b60058701549091508015611920575f5b600288015481101561191e575f88600201828154811061189a5761189a6127c9565b5f9182526020808320909101546001600160a01b031680835260068c019091526040909120549091508015611914575f846118d5838a61295a565b6118df9190612971565b6001600160a01b0384165f908152600a8d01602052604081208054929350839290919061190d908490612a1d565b9091555050505b5050600101611878565b505b8515611a00576008546001600160a01b03166119e2575f61193f6114d8565b6001600160a01b0316876040515f6040518083038185875af1925050503d805f8114611986576040519150601f19603f3d011682016040523d82523d5f602084013e61198b565b606091505b50509050806119dc5760405162461bcd60e51b815260206004820152601960248201527f4f776e657220746178207472616e73666572206661696c65640000000000000060448201526064016106c9565b50611a00565b611a006119ed6114d8565b6008546001600160a01b03169088611d45565b6008546001600160a01b0316611a6f576004805460408051633ed1d9e760e01b815290516001600160a01b0390921692633ed1d9e7928792808301925f929182900301818588803b158015611a53575f80fd5b505af1158015611a65573d5f803e3d5ffd5b5050505050611ae4565b600454600854611a8c916001600160a01b0391821691168561204e565b600480546040516393d5e96560e01b81529182018590526001600160a01b0316906393d5e965906024015f604051808303815f87803b158015611acd575f80fd5b505af1158015611adf573d5f803e3d5ffd5b505050505b8115611bbd576008546001600160a01b0316611ba0576006546040515f916001600160a01b03169084908381818185875af1925050503d805f8114611b44576040519150601f19603f3d011682016040523d82523d5f602084013e611b49565b606091505b5050905080611b9a5760405162461bcd60e51b815260206004820152601860248201527f5472656173757279207472616e73666572206661696c6564000000000000000060448201526064016106c9565b50611bbd565b600654600854611bbd916001600160a01b03918216911684611d45565b60408051858152602081018590528a917f312c5308f42848705a866c73dec11fd0783c2d64aac6a97e94467062ad3f4058910160405180910390a2505050505050505050565b611c0b611dbc565b6001600160a01b038116611c615760405162461bcd60e51b815260206004820152601f60248201527f54726561737572792063616e6e6f74206265207a65726f20616464726573730060448201526064016106c9565b600680546001600160a01b0319166001600160a01b0392909216919091179055565b611c8b611dbc565b6001600160a01b038116611cb457604051631e4fbdf760e01b81525f60048201526024016106c9565b610ecb81611f9f565b5f807ff0c57e16840df040f15088dc2f81fe391c3923bec73e23a9662efc9c229c6a00610692565b611ced612110565b610ecb81612135565b610f0a612110565b611d06612110565b610f0a61213d565b5f80516020612a67833981519152805460011901611d3f57604051633ee5aeb560e01b815260040160405180910390fd5b60029055565b6040516001600160a01b03838116602483015260448201839052611da491859182169063a9059cbb906064015b604051602081830303815290604052915060e01b6020820180516001600160e01b038381831617835250505050612145565b505050565b60015f80516020612a6783398151915255565b33611dc56114d8565b6001600160a01b031614610f0a5760405163118cdaa760e01b81523360048201526024016106c9565b306001600160a01b037f0000000000000000000000000000000000000000000000000000000000000000161480611e7457507f00000000000000000000000000000000000000000000000000000000000000006001600160a01b0316611e685f80516020612a47833981519152546001600160a01b031690565b6001600160a01b031614155b15610f0a5760405163703e46dd60e11b815260040160405180910390fd5b610ecb611dbc565b816001600160a01b03166352d1902d6040518163ffffffff1660e01b8152600401602060405180830381865afa925050508015611ef4575060408051601f3d908101601f19168201909252611ef191810190612990565b60015b611f1c57604051634c9c8ce360e01b81526001600160a01b03831660048201526024016106c9565b5f80516020612a478339815191528114611f4c57604051632a87526960e21b8152600481018290526024016106c9565b611da483836121b1565b306001600160a01b037f00000000000000000000000000000000000000000000000000000000000000001614610f0a5760405163703e46dd60e11b815260040160405180910390fd5b7f9016d09d72d40fdae2fd8ceac6b6234c7706214fd39c1cd1e609a0528c19930080546001600160a01b031981166001600160a01b03848116918217845560405192169182907f8be0079c531659141344cd1fd0a4f28419497f9722a3daafe3b4186f6b6457e0905f90a3505050565b6040516001600160a01b0384811660248301528381166044830152606482018390526120489186918216906323b872dd90608401611d72565b50505050565b604080516001600160a01b038416602482015260448082018490528251808303909101815260649091019091526020810180516001600160e01b031663095ea7b360e01b17905261209f8482612206565b612048576040516001600160a01b0384811660248301525f60448301526120d391869182169063095ea7b390606401611d72565b6120488482612145565b5f80826001600160a01b0316846001600160a01b03161015612103575082905081612109565b50819050825b9250929050565b61211861224f565b610f0a57604051631afcd79f60e31b815260040160405180910390fd5b611c8b612110565b611da9612110565b5f8060205f8451602086015f885af180612164576040513d5f823e3d81fd5b50505f513d9150811561217b578060011415612188565b6001600160a01b0384163b155b1561204857604051635274afe760e01b81526001600160a01b03851660048201526024016106c9565b6121ba82612268565b6040516001600160a01b038316907fbc7cd75a20ee27fd9adebab32041f755214dbc6bffa90cc0225b39da2e5c2d3b905f90a28051156121fe57611da482826122cb565b610cb961233d565b5f805f8060205f8651602088015f8a5af192503d91505f519050828015612245575081156122375780600114612245565b5f866001600160a01b03163b115b9695505050505050565b5f612258611cbd565b54600160401b900460ff16919050565b806001600160a01b03163b5f0361229d57604051634c9c8ce360e01b81526001600160a01b03821660048201526024016106c9565b5f80516020612a4783398151915280546001600160a01b0319166001600160a01b0392909216919091179055565b60605f80846001600160a01b0316846040516122e79190612a30565b5f60405180830381855af49150503d805f811461231f576040519150601f19603f3d011682016040523d82523d5f602084013e612324565b606091505b509150915061233485838361235c565b95945050505050565b3415610f0a5760405163b398979f60e01b815260040160405180910390fd5b6060826123715761236c826123b8565b6114d1565b815115801561238857506001600160a01b0384163b155b156123b157604051639996b31560e01b81526001600160a01b03851660048201526024016106c9565b50806114d1565b8051156123c757805160208201fd5b60405163d6bda27560e01b815260040160405180910390fd5b6001600160a01b0381168114610ecb575f80fd5b5f8060408385031215612405575f80fd5b823591506020830135612417816123e0565b809150509250929050565b5f60208284031215612432575f80fd5b5035919050565b634e487b7160e01b5f52604160045260245ffd5b5f8067ffffffffffffffff84111561246757612467612439565b50604051601f19601f85018116603f0116810181811067ffffffffffffffff8211171561249657612496612439565b6040528381529050808284018510156124ad575f80fd5b838360208301375f60208583010152509392505050565b5f602082840312156124d4575f80fd5b813567ffffffffffffffff8111156124ea575f80fd5b8201601f810184136124fa575f80fd5b6125098482356020840161244d565b949350505050565b5f805f805f805f60e0888a031215612527575f80fd5b8735612532816123e0565b96506020880135612542816123e0565b95506040880135612552816123e0565b94506060880135612562816123e0565b93506080880135612572816123e0565b925060a0880135612582816123e0565b915060c0880135612592816123e0565b8091505092959891949750929550565b602080825282518282018190525f918401906040840190835b818110156125e25783516001600160a01b03168352602093840193909201916001016125bb565b509095945050505050565b5f602082840312156125fd575f80fd5b81356114d1816123e0565b602080825282518282018190525f918401906040840190835b818110156125e2578351835260209384019390920191600101612621565b5f8060408385031215612650575f80fd5b50508035926020909101359150565b5f8060408385031215612670575f80fd5b823561267b816123e0565b9150602083013567ffffffffffffffff811115612696575f80fd5b8301601f810185136126a6575f80fd5b6126b58582356020840161244d565b9150509250929050565b5f80604083850312156126d0575f80fd5b82356126db816123e0565b946020939093013593505050565b5f805f606084860312156126fb575f80fd5b505081359360208301359350604090920135919050565b5f81518084528060208401602086015e5f602082860101526020601f19601f83011685010191505092915050565b87815260018060a01b038716602082015285604082015284606082015283608082015282151560a082015260e060c08201525f61278060e0830184612712565b9998505050505050505050565b602081525f6114d16020830184612712565b60208082526010908201526f47726f7570206e6f742061637469766560801b604082015260600190565b634e487b7160e01b5f52603260045260245ffd5b634e487b7160e01b5f52601160045260245ffd5b5f60018201612802576128026127dd565b5060010190565b600181811c9082168061281d57607f821691505b60208210810361283b57634e487b7160e01b5f52602260045260245ffd5b50919050565b601f821115611da457805f5260205f20601f840160051c810160208510156128665750805b601f840160051c820191505b81811015612885575f8155600101612872565b5050505050565b815167ffffffffffffffff8111156128a6576128a6612439565b6128ba816128b48454612809565b84612841565b6020601f8211600181146128ec575f83156128d55750848201515b5f19600385901b1c1916600184901b178455612885565b5f84815260208120601f198516915b8281101561291b57878501518255602094850194600190920191016128fb565b508482101561293857868401515f19600387901b60f8161c191681555b50505050600190811b01905550565b81810381811115610692576106926127dd565b8082028115828204841417610692576106926127dd565b5f8261298b57634e487b7160e01b5f52601260045260245ffd5b500490565b5f602082840312156129a0575f80fd5b5051919050565b85516001600160a01b03908116825260208088015182169083015260408088015162ffffff169083015260608088015160020b908301526080808801519091169082015260a0810185905260c081018490526101208101612a0d60e083018560020b9052565b61224561010083018460020b9052565b80820180821115610692576106926127dd565b5f82518060208501845e5f92019182525091905056fe360894a13ba1a3210667c828492db98dca3e2076cc3735a920a3ca505d382bbc9b779b17422d0df92223018b32b4d1fa46e071723d6817e2486d003becc55f00a26469706673582212209eca6923bf589bfdba636ef424fc86fcfa8da0b8e44cbd276ee31f580f36c9cc64736f6c634300081a0033",
  "linkReferences": {},
  "deployedLinkReferences": {}
}