{
  "_format": "hh-sol-artifact-1",
  "contractName": "TownPosseManager",
  "sourceName": "contracts/TownPosseManager.sol",
  "abi": [
    {
      "inputs": [],
      "stateMutability": "nonpayable",
      "type": "constructor"
    },
    {
      "inputs": [
        {
          "internalType": "address",
          "name": "target",
          "type": "address"
        }
      ],
      "name": "AddressEmptyCode",
      "type": "error"
    },
    {
      "inputs": [
        {
          "internalType": "address",
          "name": "implementation",
          "type": "address"
        }
      ],
      "name": "ERC1967InvalidImplementation",
      "type": "error"
    },
    {
      "inputs": [],
      "name": "ERC1967NonPayable",
      "type": "error"
    },
    {
      "inputs": [],
      "name": "FailedCall",
      "type": "error"
    },
    {
      "inputs": [],
      "name": "InvalidInitialization",
      "type": "error"
    },
    {
      "inputs": [],
      "name": "NotInitializing",
      "type": "error"
    },
    {
      "inputs": [
        {
          "internalType": "address",
          "name": "owner",
          "type": "address"
        }
      ],
      "name": "OwnableInvalidOwner",
      "type": "error"
    },
    {
      "inputs": [
        {
          "internalType": "address",
          "name": "account",
          "type": "address"
        }
      ],
      "name": "OwnableUnauthorizedAccount",
      "type": "error"
    },
    {
      "inputs": [],
      "name": "ReentrancyGuardReentrantCall",
      "type": "error"
    },
    {
      "inputs": [
        {
          "internalType": "address",
          "name": "token",
          "type": "address"
        }
      ],
      "name": "SafeERC20FailedOperation",
      "type": "error"
    },
    {
      "inputs": [],
      "name": "UUPSUnauthorizedCallContext",
      "type": "error"
    },
    {
      "inputs": [
        {
          "internalType": "bytes32",
          "name": "slot",
          "type": "bytes32"
        }
      ],
      "name": "UUPSUnsupportedProxiableUUID",
      "type": "error"
    },
    {
      "anonymous": false,
      "inputs": [
        {
          "indexed": true,
          "internalType": "uint256",
          "name": "posseId",
          "type": "uint256"
        },
        {
          "indexed": true,
          "internalType": "address",
          "name": "member",
          "type": "address"
        },
        {
          "indexed": false,
          "internalType": "uint256",
          "name": "amount",
          "type": "uint256"
        }
      ],
      "name": "FeesClaimed",
      "type": "event"
    },
    {
      "anonymous": false,
      "inputs": [
        {
          "indexed": true,
          "internalType": "uint256",
          "name": "posseId",
          "type": "uint256"
        },
        {
          "indexed": false,
          "internalType": "uint256",
          "name": "toMembers",
          "type": "uint256"
        },
        {
          "indexed": false,
          "internalType": "uint256",
          "name": "toPot",
          "type": "uint256"
        }
      ],
      "name": "FeesDistributed",
      "type": "event"
    },
    {
      "anonymous": false,
      "inputs": [
        {
          "indexed": false,
          "internalType": "uint64",
          "name": "version",
          "type": "uint64"
        }
      ],
      "name": "Initialized",
      "type": "event"
    },
    {
      "anonymous": false,
      "inputs": [
        {
          "indexed": true,
          "internalType": "uint256",
          "name": "posseId",
          "type": "uint256"
        },
        {
          "indexed": true,
          "internalType": "address",
          "name": "requester",
          "type": "address"
        }
      ],
      "name": "JoinRequested",
      "type": "event"
    },
    {
      "anonymous": false,
      "inputs": [
        {
          "indexed": true,
          "internalType": "uint256",
          "name": "posseId",
          "type": "uint256"
        },
        {
          "indexed": true,
          "internalType": "address",
          "name": "member",
          "type": "address"
        }
      ],
      "name": "MemberApproved",
      "type": "event"
    },
    {
      "anonymous": false,
      "inputs": [
        {
          "indexed": true,
          "internalType": "uint256",
          "name": "posseId",
          "type": "uint256"
        },
        {
          "indexed": true,
          "internalType": "address",
          "name": "member",
          "type": "address"
        }
      ],
      "name": "MemberJoined",
      "type": "event"
    },
    {
      "anonymous": false,
      "inputs": [
        {
          "indexed": true,
          "internalType": "address",
          "name": "previousOwner",
          "type": "address"
        },
        {
          "indexed": true,
          "internalType": "address",
          "name": "newOwner",
          "type": "address"
        }
      ],
      "name": "OwnershipTransferred",
      "type": "event"
    },
    {
      "anonymous": false,
      "inputs": [
        {
          "indexed": true,
          "internalType": "uint256",
          "name": "posseId",
          "type": "uint256"
        },
        {
          "indexed": true,
          "internalType": "address",
          "name": "member",
          "type": "address"
        },
        {
          "indexed": false,
          "internalType": "uint256",
          "name": "amountMON",
          "type": "uint256"
        },
        {
          "indexed": false,
          "internalType": "uint256",
          "name": "lpTokensReceived",
          "type": "uint256"
        }
      ],
      "name": "PosseContributed",
      "type": "event"
    },
    {
      "anonymous": false,
      "inputs": [
        {
          "indexed": true,
          "internalType": "uint256",
          "name": "posseId",
          "type": "uint256"
        },
        {
          "indexed": true,
          "internalType": "address",
          "name": "creator",
          "type": "address"
        },
        {
          "indexed": false,
          "internalType": "string",
          "name": "name",
          "type": "string"
        }
      ],
      "name": "PosseCreated",
      "type": "event"
    },
    {
      "anonymous": false,
      "inputs": [
        {
          "indexed": true,
          "internalType": "uint256",
          "name": "posseId",
          "type": "uint256"
        },
        {
          "indexed": true,
          "internalType": "address",
          "name": "member",
          "type": "address"
        },
        {
          "indexed": false,
          "internalType": "uint256",
          "name": "lpTokenAmount",
          "type": "uint256"
        }
      ],
      "name": "PosseWithdrawn",
      "type": "event"
    },
    {
      "anonymous": false,
      "inputs": [
        {
          "indexed": true,
          "internalType": "uint256",
          "name": "posseId",
          "type": "uint256"
        },
        {
          "indexed": true,
          "internalType": "uint256",
          "name": "proposalId",
          "type": "uint256"
        },
        {
          "indexed": true,
          "internalType": "address",
          "name": "proposer",
          "type": "address"
        },
        {
          "indexed": false,
          "internalType": "string",
          "name": "description",
          "type": "string"
        }
      ],
      "name": "ProposalCreated",
      "type": "event"
    },
    {
      "anonymous": false,
      "inputs": [
        {
          "indexed": true,
          "internalType": "uint256",
          "name": "posseId",
          "type": "uint256"
        },
        {
          "indexed": true,
          "internalType": "uint256",
          "name": "proposalId",
          "type": "uint256"
        }
      ],
      "name": "ProposalExecuted",
      "type": "event"
    },
    {
      "anonymous": false,
      "inputs": [
        {
          "indexed": true,
          "internalType": "uint256",
          "name": "posseId",
          "type": "uint256"
        },
        {
          "indexed": true,
          "internalType": "address",
          "name": "member",
          "type": "address"
        },
        {
          "indexed": false,
          "internalType": "uint256",
          "name": "tier",
          "type": "uint256"
        }
      ],
      "name": "TierUpdated",
      "type": "event"
    },
    {
      "anonymous": false,
      "inputs": [
        {
          "indexed": true,
          "internalType": "address",
          "name": "implementation",
          "type": "address"
        }
      ],
      "name": "Upgraded",
      "type": "event"
    },
    {
      "anonymous": false,
      "inputs": [
        {
          "indexed": true,
          "internalType": "uint256",
          "name": "posseId",
          "type": "uint256"
        },
        {
          "indexed": true,
          "internalType": "uint256",
          "name": "proposalId",
          "type": "uint256"
        },
        {
          "indexed": true,
          "internalType": "address",
          "name": "voter",
          "type": "address"
        },
        {
          "indexed": false,
          "internalType": "bool",
          "name": "support",
          "type": "bool"
        }
      ],
      "name": "VoteCast",
      "type": "event"
    },
    {
      "inputs": [],
      "name": "BPS_DENOMINATOR",
      "outputs": [
        {
          "internalType": "uint256",
          "name": "",
          "type": "uint256"
        }
      ],
      "stateMutability": "view",
      "type": "function"
    },
    {
      "inputs": [],
      "name": "CONTRIBUTION_TAX_BPS",
      "outputs": [
        {
          "internalType": "uint256",
          "name": "",
          "type": "uint256"
        }
      ],
      "stateMutability": "view",
      "type": "function"
    },
    {
      "inputs": [],
      "name": "KEEP",
      "outputs": [
        {
          "internalType": "Currency",
          "name": "",
          "type": "address"
        }
      ],
      "stateMutability": "view",
      "type": "function"
    },
    {
      "inputs": [],
      "name": "MAX_MEMBERS",
      "outputs": [
        {
          "internalType": "uint256",
          "name": "",
          "type": "uint256"
        }
      ],
      "stateMutability": "view",
      "type": "function"
    },
    {
      "inputs": [],
      "name": "MIN_MEMBERS",
      "outputs": [
        {
          "internalType": "uint256",
          "name": "",
          "type": "uint256"
        }
      ],
      "stateMutability": "view",
      "type": "function"
    },
    {
      "inputs": [],
      "name": "MON",
      "outputs": [
        {
          "internalType": "Currency",
          "name": "",
          "type": "address"
        }
      ],
      "stateMutability": "view",
      "type": "function"
    },
    {
      "inputs": [],
      "name": "QUORUM_BPS",
      "outputs": [
        {
          "internalType": "uint256",
          "name": "",
          "type": "uint256"
        }
      ],
      "stateMutability": "view",
      "type": "function"
    },
    {
      "inputs": [],
      "name": "UPGRADE_INTERFACE_VERSION",
      "outputs": [
        {
          "internalType": "string",
          "name": "",
          "type": "string"
        }
      ],
      "stateMutability": "view",
      "type": "function"
    },
    {
      "inputs": [],
      "name": "VOTING_PERIOD",
      "outputs": [
        {
          "internalType": "uint256",
          "name": "",
          "type": "uint256"
        }
      ],
      "stateMutability": "view",
      "type": "function"
    },
    {
      "inputs": [
        {
          "internalType": "uint256",
          "name": "posseId",
          "type": "uint256"
        },
        {
          "internalType": "address",
          "name": "member",
          "type": "address"
        }
      ],
      "name": "approveTownPosseMember",
      "outputs": [],
      "stateMutability": "nonpayable",
      "type": "function"
    },
    {
      "inputs": [],
      "name": "bronzeThreshold",
      "outputs": [
        {
          "internalType": "uint256",
          "name": "",
          "type": "uint256"
        }
      ],
      "stateMutability": "view",
      "type": "function"
    },
    {
      "inputs": [],
      "name": "cellarHook",
      "outputs": [
        {
          "internalType": "address",
          "name": "",
          "type": "address"
        }
      ],
      "stateMutability": "view",
      "type": "function"
    },
    {
      "inputs": [],
      "name": "cellarZap",
      "outputs": [
        {
          "internalType": "address",
          "name": "",
          "type": "address"
        }
      ],
      "stateMutability": "view",
      "type": "function"
    },
    {
      "inputs": [
        {
          "internalType": "uint256",
          "name": "posseId",
          "type": "uint256"
        }
      ],
      "name": "claimTownPosseFees",
      "outputs": [],
      "stateMutability": "nonpayable",
      "type": "function"
    },
    {
      "inputs": [
        {
          "internalType": "uint256",
          "name": "posseId",
          "type": "uint256"
        },
        {
          "internalType": "uint256",
          "name": "amountMON",
          "type": "uint256"
        },
        {
          "internalType": "uint256",
          "name": "amountKEEP",
          "type": "uint256"
        }
      ],
      "name": "contributeToTownPosse",
      "outputs": [
        {
          "internalType": "uint256",
          "name": "lpTokensReceived",
          "type": "uint256"
        }
      ],
      "stateMutability": "payable",
      "type": "function"
    },
    {
      "inputs": [
        {
          "internalType": "string",
          "name": "name",
          "type": "string"
        },
        {
          "internalType": "uint256",
          "name": "maxMembers",
          "type": "uint256"
        },
        {
          "internalType": "bool",
          "name": "openMembership",
          "type": "bool"
        },
        {
          "internalType": "uint256",
          "name": "minContribution",
          "type": "uint256"
        }
      ],
      "name": "createTownPosse",
      "outputs": [
        {
          "internalType": "uint256",
          "name": "posseId",
          "type": "uint256"
        }
      ],
      "stateMutability": "nonpayable",
      "type": "function"
    },
    {
      "inputs": [
        {
          "internalType": "uint256",
          "name": "posseId",
          "type": "uint256"
        },
        {
          "internalType": "string",
          "name": "description",
          "type": "string"
        },
        {
          "internalType": "bytes",
          "name": "data",
          "type": "bytes"
        }
      ],
      "name": "createTownPosseProposal",
      "outputs": [
        {
          "internalType": "uint256",
          "name": "proposalId",
          "type": "uint256"
        }
      ],
      "stateMutability": "nonpayable",
      "type": "function"
    },
    {
      "inputs": [
        {
          "internalType": "uint256",
          "name": "posseId",
          "type": "uint256"
        },
        {
          "internalType": "uint256",
          "name": "totalFees",
          "type": "uint256"
        }
      ],
      "name": "distributeTownPosseFees",
      "outputs": [],
      "stateMutability": "payable",
      "type": "function"
    },
    {
      "inputs": [
        {
          "internalType": "uint256",
          "name": "posseId",
          "type": "uint256"
        },
        {
          "internalType": "uint256",
          "name": "proposalId",
          "type": "uint256"
        }
      ],
      "name": "executeTownPosseProposal",
      "outputs": [],
      "stateMutability": "nonpayable",
      "type": "function"
    },
    {
      "inputs": [],
      "name": "flywheelFeeBps",
      "outputs": [
        {
          "internalType": "uint256",
          "name": "",
          "type": "uint256"
        }
      ],
      "stateMutability": "view",
      "type": "function"
    },
    {
      "inputs": [
        {
          "internalType": "uint256",
          "name": "posseId",
          "type": "uint256"
        },
        {
          "internalType": "address",
          "name": "member",
          "type": "address"
        }
      ],
      "name": "getMemberShare",
      "outputs": [
        {
          "internalType": "uint256",
          "name": "",
          "type": "uint256"
        }
      ],
      "stateMutability": "view",
      "type": "function"
    },
    {
      "inputs": [
        {
          "internalType": "uint256",
          "name": "posseId",
          "type": "uint256"
        },
        {
          "internalType": "address",
          "name": "member",
          "type": "address"
        }
      ],
      "name": "getMemberTier",
      "outputs": [
        {
          "internalType": "uint256",
          "name": "",
          "type": "uint256"
        }
      ],
      "stateMutability": "view",
      "type": "function"
    },
    {
      "inputs": [
        {
          "internalType": "uint256",
          "name": "posseId",
          "type": "uint256"
        },
        {
          "internalType": "address",
          "name": "member",
          "type": "address"
        }
      ],
      "name": "getPendingFees",
      "outputs": [
        {
          "internalType": "uint256",
          "name": "",
          "type": "uint256"
        }
      ],
      "stateMutability": "view",
      "type": "function"
    },
    {
      "inputs": [
        {
          "internalType": "uint256",
          "name": "posseId",
          "type": "uint256"
        }
      ],
      "name": "getPosseMembers",
      "outputs": [
        {
          "internalType": "address[]",
          "name": "",
          "type": "address[]"
        }
      ],
      "stateMutability": "view",
      "type": "function"
    },
    {
      "inputs": [
        {
          "internalType": "uint256",
          "name": "posseId",
          "type": "uint256"
        },
        {
          "internalType": "uint256",
          "name": "proposalId",
          "type": "uint256"
        }
      ],
      "name": "getProposal",
      "outputs": [
        {
          "internalType": "address",
          "name": "proposer",
          "type": "address"
        },
        {
          "internalType": "string",
          "name": "description",
          "type": "string"
        },
        {
          "internalType": "uint256",
          "name": "votesFor",
          "type": "uint256"
        },
        {
          "internalType": "uint256",
          "name": "votesAgainst",
          "type": "uint256"
        },
        {
          "internalType": "uint256",
          "name": "deadline",
          "type": "uint256"
        },
        {
          "internalType": "bool",
          "name": "executed",
          "type": "bool"
        }
      ],
      "stateMutability": "view",
      "type": "function"
    },
    {
      "inputs": [
        {
          "internalType": "address",
          "name": "user",
          "type": "address"
        }
      ],
      "name": "getUserPosses",
      "outputs": [
        {
          "internalType": "uint256[]",
          "name": "",
          "type": "uint256[]"
        }
      ],
      "stateMutability": "view",
      "type": "function"
    },
    {
      "inputs": [],
      "name": "goldThreshold",
      "outputs": [
        {
          "internalType": "uint256",
          "name": "",
          "type": "uint256"
        }
      ],
      "stateMutability": "view",
      "type": "function"
    },
    {
      "inputs": [
        {
          "internalType": "address",
          "name": "_cellarHook",
          "type": "address"
        },
        {
          "internalType": "address",
          "name": "_cellarZap",
          "type": "address"
        },
        {
          "internalType": "contract IPoolManager",
          "name": "_poolManager",
          "type": "address"
        },
        {
          "internalType": "Currency",
          "name": "_mon",
          "type": "address"
        },
        {
          "internalType": "Currency",
          "name": "_keep",
          "type": "address"
        },
        {
          "internalType": "address",
          "name": "_treasury",
          "type": "address"
        },
        {
          "internalType": "uint256",
          "name": "_bronzeThreshold",
          "type": "uint256"
        },
        {
          "internalType": "uint256",
          "name": "_silverThreshold",
          "type": "uint256"
        },
        {
          "internalType": "uint256",
          "name": "_goldThreshold",
          "type": "uint256"
        },
        {
          "internalType": "address",
          "name": "_owner",
          "type": "address"
        }
      ],
      "name": "initialize",
      "outputs": [],
      "stateMutability": "nonpayable",
      "type": "function"
    },
    {
      "inputs": [],
      "name": "memberShareBps",
      "outputs": [
        {
          "internalType": "uint256",
          "name": "",
          "type": "uint256"
        }
      ],
      "stateMutability": "view",
      "type": "function"
    },
    {
      "inputs": [],
      "name": "nextPosseId",
      "outputs": [
        {
          "internalType": "uint256",
          "name": "",
          "type": "uint256"
        }
      ],
      "stateMutability": "view",
      "type": "function"
    },
    {
      "inputs": [
        {
          "internalType": "uint256",
          "name": "",
          "type": "uint256"
        }
      ],
      "name": "nextProposalId",
      "outputs": [
        {
          "internalType": "uint256",
          "name": "",
          "type": "uint256"
        }
      ],
      "stateMutability": "view",
      "type": "function"
    },
    {
      "inputs": [],
      "name": "owner",
      "outputs": [
        {
          "internalType": "address",
          "name": "",
          "type": "address"
        }
      ],
      "stateMutability": "view",
      "type": "function"
    },
    {
      "inputs": [],
      "name": "ownerTaxBps",
      "outputs": [
        {
          "internalType": "uint256",
          "name": "",
          "type": "uint256"
        }
      ],
      "stateMutability": "view",
      "type": "function"
    },
    {
      "inputs": [],
      "name": "poolManager",
      "outputs": [
        {
          "internalType": "contract IPoolManager",
          "name": "",
          "type": "address"
        }
      ],
      "stateMutability": "view",
      "type": "function"
    },
    {
      "inputs": [
        {
          "internalType": "uint256",
          "name": "",
          "type": "uint256"
        }
      ],
      "name": "posses",
      "outputs": [
        {
          "internalType": "uint256",
          "name": "posseId",
          "type": "uint256"
        },
        {
          "internalType": "address",
          "name": "creator",
          "type": "address"
        },
        {
          "internalType": "uint256",
          "name": "maxMembers",
          "type": "uint256"
        },
        {
          "internalType": "uint256",
          "name": "minContribution",
          "type": "uint256"
        },
        {
          "internalType": "uint256",
          "name": "totalContribution",
          "type": "uint256"
        },
        {
          "internalType": "uint256",
          "name": "lpTokenBalance",
          "type": "uint256"
        },
        {
          "internalType": "bool",
          "name": "openMembership",
          "type": "bool"
        },
        {
          "internalType": "uint256",
          "name": "createdAt",
          "type": "uint256"
        },
        {
          "internalType": "bool",
          "name": "active",
          "type": "bool"
        },
        {
          "internalType": "string",
          "name": "posseName",
          "type": "string"
        }
      ],
      "stateMutability": "view",
      "type": "function"
    },
    {
      "inputs": [
        {
          "internalType": "uint256",
          "name": "",
          "type": "uint256"
        },
        {
          "internalType": "uint256",
          "name": "",
          "type": "uint256"
        }
      ],
      "name": "proposals",
      "outputs": [
        {
          "internalType": "uint256",
          "name": "proposalId",
          "type": "uint256"
        },
        {
          "internalType": "address",
          "name": "proposer",
          "type": "address"
        },
        {
          "internalType": "string",
          "name": "description",
          "type": "string"
        },
        {
          "internalType": "bytes",
          "name": "data",
          "type": "bytes"
        },
        {
          "internalType": "uint256",
          "name": "votesFor",
          "type": "uint256"
        },
        {
          "internalType": "uint256",
          "name": "votesAgainst",
          "type": "uint256"
        },
        {
          "internalType": "uint256",
          "name": "deadline",
          "type": "uint256"
        },
        {
          "internalType": "bool",
          "name": "executed",
          "type": "bool"
        }
      ],
      "stateMutability": "view",
      "type": "function"
    },
    {
      "inputs": [],
      "name": "proxiableUUID",
      "outputs": [
        {
          "internalType": "bytes32",
          "name": "",
          "type": "bytes32"
        }
      ],
      "stateMutability": "view",
      "type": "function"
    },
    {
      "inputs": [],
      "name": "renounceOwnership",
      "outputs": [],
      "stateMutability": "nonpayable",
      "type": "function"
    },
    {
      "inputs": [
        {
          "internalType": "uint256",
          "name": "posseId",
          "type": "uint256"
        }
      ],
      "name": "requestJoinTownPosse",
      "outputs": [],
      "stateMutability": "nonpayable",
      "type": "function"
    },
    {
      "inputs": [
        {
          "internalType": "uint256",
          "name": "_memberShareBps",
          "type": "uint256"
        },
        {
          "internalType": "uint256",
          "name": "_flywheelFeeBps",
          "type": "uint256"
        },
        {
          "internalType": "uint256",
          "name": "_treasuryFeeBps",
          "type": "uint256"
        }
      ],
      "name": "setFeeSplits",
      "outputs": [],
      "stateMutability": "nonpayable",
      "type": "function"
    },
    {
      "inputs": [
        {
          "internalType": "uint256",
          "name": "_ownerTaxBps",
          "type": "uint256"
        }
      ],
      "name": "setOwnerTax",
      "outputs": [],
      "stateMutability": "nonpayable",
      "type": "function"
    },
    {
      "inputs": [
        {
          "internalType": "address",
          "name": "_treasury",
          "type": "address"
        }
      ],
      "name": "setTreasury",
      "outputs": [],
      "stateMutability": "nonpayable",
      "type": "function"
    },
    {
      "inputs": [],
      "name": "silverThreshold",
      "outputs": [
        {
          "internalType": "uint256",
          "name": "",
          "type": "uint256"
        }
      ],
      "stateMutability": "view",
      "type": "function"
    },
    {
      "inputs": [
        {
          "internalType": "address",
          "name": "newOwner",
          "type": "address"
        }
      ],
      "name": "transferOwnership",
      "outputs": [],
      "stateMutability": "nonpayable",
      "type": "function"
    },
    {
      "inputs": [],
      "name": "treasury",
      "outputs": [
        {
          "internalType": "address",
          "name": "",
          "type": "address"
        }
      ],
      "stateMutability": "view",
      "type": "function"
    },
    {
      "inputs": [],
      "name": "treasuryFeeBps",
      "outputs": [
        {
          "internalType": "uint256",
          "name": "",
          "type": "uint256"
        }
      ],
      "stateMutability": "view",
      "type": "function"
    },
    {
      "inputs": [
        {
          "internalType": "uint256",
          "name": "posseId",
          "type": "uint256"
        },
        {
          "internalType": "address",
          "name": "member",
          "type": "address"
        }
      ],
      "name": "updateMemberTier",
      "outputs": [],
      "stateMutability": "nonpayable",
      "type": "function"
    },
    {
      "inputs": [
        {
          "internalType": "address",
          "name": "newImplementation",
          "type": "address"
        },
        {
          "internalType": "bytes",
          "name": "data",
          "type": "bytes"
        }
      ],
      "name": "upgradeToAndCall",
      "outputs": [],
      "stateMutability": "payable",
      "type": "function"
    },
    {
      "inputs": [
        {
          "internalType": "address",
          "name": "",
          "type": "address"
        },
        {
          "internalType": "uint256",
          "name": "",
          "type": "uint256"
        }
      ],
      "name": "userPosses",
      "outputs": [
        {
          "internalType": "uint256",
          "name": "",
          "type": "uint256"
        }
      ],
      "stateMutability": "view",
      "type": "function"
    },
    {
      "inputs": [
        {
          "internalType": "uint256",
          "name": "posseId",
          "type": "uint256"
        },
        {
          "internalType": "uint256",
          "name": "proposalId",
          "type": "uint256"
        },
        {
          "internalType": "bool",
          "name": "support",
          "type": "bool"
        }
      ],
      "name": "voteOnTownPosseProposal",
      "outputs": [],
      "stateMutability": "nonpayable",
      "type": "function"
    },
    {
      "inputs": [
        {
          "internalType": "uint256",
          "name": "posseId",
          "type": "uint256"
        },
        {
          "internalType": "uint256",
          "name": "lpTokenAmount",
          "type": "uint256"
        }
      ],
      "name": "withdrawFromTownPosse",
      "outputs": [],
      "stateMutability": "nonpayable",
      "type": "function"
    }
  ],
  "bytecode": "0x60a060405230608052348015610013575f80fd5b5061001c610021565b6100d3565b7ff0c57e16840df040f15088dc2f81fe391c3923bec73e23a9662efc9c229c6a00805468010000000000000000900460ff16156100715760405163f92ee8a960e01b815260040160405180910390fd5b80546001600160401b03908116146100d05780546001600160401b0319166001600160401b0390811782556040519081527fc7f505b2f371ae2175ee4913f4499e1f2633a7b5936321eed1cdaeb6115181d29060200160405180910390a15b50565b608051613ce06100f95f395f8181612e8501528181612eae0152612fed0152613ce05ff3fe6080604052600436106102d9575f3560e01c80639a9a82bf11610189578063c6d410f9116100d8578063e1a4521811610092578063f0f442601161006d578063f0f442601461089f578063f2fde38b146108be578063f51558ee146108dd578063f8946888146108fc575f80fd5b8063e1a4521814610875578063e80cfa5e1461088a578063ea0e35b1146107fa575f80fd5b8063c6d410f9146107e5578063cce590cd146107fa578063d9a672201461080e578063d9e4790114610822578063dc4c90d314610841578063e13e491f14610860575f80fd5b8063b1610d7e11610143578063bbc5b7551161011e578063bbc5b75514610752578063bcc7cf261461077e578063c2cfee2714610793578063c5dad038146107c6575f80fd5b8063b1610d7e146106fe578063b366097c14610714578063bb776de914610733575f80fd5b80639a9a82bf1461062a578063a52968791461063d578063a8b21c1b1461065c578063aba2100914610671578063ad3cb1cc146106a2578063af0a574b146106df575f80fd5b80635da736a711610245578063723ee90a116101ff57806379ae6563116101da57806379ae65631461058757806388718334146105b25780638da5cb5b146105d157806391ce94a3146105e5575f80fd5b8063723ee90a146105145780637371610514610549578063779f13b614610568575f80fd5b80635da736a7146104835780635fca24451461049857806361d027b3146104ad5780636272d4dd146104cc57806370330488146104eb578063715018a614610500575f80fd5b80631be3a6bc116102965780631be3a6bc146103f757806332b2f9031461040a578063476532c31461041e5780634f1ef2861461043d57806352d1902d146104505780635a1bd42d14610464575f80fd5b8063090340a0146102dd57806311575f9e14610319578063118510741461034657806311d8bb921461038b57806313ef8874146103ac57806314f8e827146103d8575b5f80fd5b3480156102e8575f80fd5b506009546102fc906001600160a01b031681565b6040516001600160a01b0390911681526020015b60405180910390f35b348015610324575f80fd5b506103386103333660046133d0565b61091b565b604051908152602001610310565b348015610351575f80fd5b506103386103603660046133d0565b5f828152600d602090815260408083206001600160a01b0385168452600e0190915290205492915050565b348015610396575f80fd5b506103aa6103a53660046133fe565b610947565b005b3480156103b7575f80fd5b506103cb6103c636600461341e565b610a90565b6040516103109190613439565b3480156103e3575f80fd5b506103386103f236600461347b565b610af9565b6103386104053660046134a5565b610b24565b348015610415575f80fd5b506103385f5481565b348015610429575f80fd5b506103aa6104383660046134ce565b6110da565b6103aa61044b36600461358a565b611139565b34801561045b575f80fd5b50610338611154565b34801561046f575f80fd5b5061033861047e3660046135d7565b61116f565b34801561048e575f80fd5b50610338600a5481565b3480156104a3575f80fd5b5061033860015481565b3480156104b8575f80fd5b506006546102fc906001600160a01b031681565b3480156104d7575f80fd5b506103aa6104e63660046134ce565b6112e9565b3480156104f6575f80fd5b50610338600b5481565b34801561050b575f80fd5b506103aa6114de565b34801561051f575f80fd5b5061053361052e3660046134ce565b6114f1565b6040516103109a99989796959493929190613672565b348015610554575f80fd5b506103aa6105633660046134ce565b6115dd565b348015610573575f80fd5b506103386105823660046136ee565b61175a565b348015610592575f80fd5b506103386105a13660046134ce565b60106020525f908152604090205481565b3480156105bd575f80fd5b506103aa6105cc3660046133d0565b6118d1565b3480156105dc575f80fd5b506102fc611b00565b3480156105f0575f80fd5b506103386105ff3660046133d0565b5f828152600d602090815260408083206001600160a01b038516845260090190915290205492915050565b6103aa6106383660046133fe565b611b2e565b348015610648575f80fd5b506103aa6106573660046133fe565b6120df565b348015610667575f80fd5b5061033861138881565b34801561067c575f80fd5b5061069061068b3660046133fe565b61235d565b60405161031096959493929190613749565b3480156106ad575f80fd5b506106d2604051806040016040528060058152602001640352e302e360dc1b81525081565b6040516103109190613793565b3480156106ea575f80fd5b506005546102fc906001600160a01b031681565b348015610709575f80fd5b5061033862093a8081565b34801561071f575f80fd5b506008546102fc906001600160a01b031681565b34801561073e575f80fd5b506103aa61074d3660046134a5565b61245a565b34801561075d575f80fd5b5061077161076c3660046134ce565b6124d4565b60405161031091906137a5565b348015610789575f80fd5b5061033860035481565b34801561079e575f80fd5b506107b26107ad3660046133fe565b61253f565b6040516103109897969594939291906137e5565b3480156107d1575f80fd5b506103aa6107e036600461384b565b6126a4565b3480156107f0575f80fd5b50610338600c5481565b348015610805575f80fd5b50610338606481565b348015610819575f80fd5b50610338600a81565b34801561082d575f80fd5b506103aa61083c3660046133d0565b6128dd565b34801561084c575f80fd5b506007546102fc906001600160a01b031681565b34801561086b575f80fd5b5061033860115481565b348015610880575f80fd5b5061033861271081565b348015610895575f80fd5b5061033860025481565b3480156108aa575f80fd5b506103aa6108b936600461341e565b6129b0565b3480156108c9575f80fd5b506103aa6108d836600461341e565b612a30565b3480156108e8575f80fd5b506103aa6108f736600461387d565b612a6a565b348015610907575f80fd5b506004546102fc906001600160a01b031681565b5f828152600d602090815260408083206001600160a01b03851684526005019091529020545b92915050565b61094f612c9e565b5f828152600d60205260409020600c81015460ff166109895760405162461bcd60e51b81526004016109809061392c565b60405180910390fd5b335f9081526009820160205260409020548211156109df5760405162461bcd60e51b8152602060048201526013602482015272496e73756666696369656e742073686172657360681b6044820152606401610980565b81816008015f8282546109f2919061396a565b9091555050335f90815260098201602052604081208054849290610a1790849061396a565b90915550610a27905083336128dd565b600454610a3e906001600160a01b03163384612cd5565b604051828152339084907fc0f62b1d07828df5a7147dbcd32bb547714a85d96a7e64aa4806bc63008648199060200160405180910390a350610a8c60015f80516020613c8b83398151915255565b5050565b6001600160a01b0381165f908152600e6020908152604091829020805483518184028101840190945280845260609392830182828015610aed57602002820191905f5260205f20905b815481526020019060010190808311610ad9575b50505050509050919050565b600e602052815f5260405f208181548110610b12575f80fd5b905f5260205f20015f91509150505481565b5f610b2d612c9e565b5f848152600d60205260409020600c81015460ff16610b5e5760405162461bcd60e51b81526004016109809061392c565b5f805b6002830154811015610bb657336001600160a01b0316836002018281548110610b8c57610b8c61397d565b5f918252602090912001546001600160a01b031603610bae5760019150610bb6565b600101610b61565b5080610bd45760405162461bcd60e51b815260040161098090613991565b5f85118015610be257505f84115b610c245760405162461bcd60e51b81526020600482015260136024820152720416d6f756e7473206d757374206265203e203606c1b6044820152606401610980565b5f612710610c336064886139b7565b610c3d91906139ce565b90505f610c4a828861396a565b6008549091506001600160a01b0316610ca757863414610ca25760405162461bcd60e51b8152602060048201526013602482015272496e636f7272656374204d4f4e2076616c756560681b6044820152606401610980565b610cbf565b600854610cbf906001600160a01b031633308a612d47565b600954610cd7906001600160a01b0316333089612d47565b6008546001600160a01b0316610d46576004805460408051633ed1d9e760e01b815290516001600160a01b0390921692633ed1d9e7928692808301925f929182900301818588803b158015610d2a575f80fd5b505af1158015610d3c573d5f803e3d5ffd5b5050505050610dbb565b600454600854610d63916001600160a01b03918216911684612d86565b600480546040516393d5e96560e01b81529182018490526001600160a01b0316906393d5e965906024015f604051808303815f87803b158015610da4575f80fd5b505af1158015610db6573d5f803e3d5ffd5b505050505b6008546001600160a01b031615610de957600454600854610de9916001600160a01b03918216911683612d86565b600454600954610e06916001600160a01b03918216911688612d86565b6008546009545f918291610e26916001600160a01b039081169116612e15565b6040805160a0810182526001600160a01b0380851682528084166020830152610bb892820192909252603c60608201526004548216608082015260085493955091935090915f911615610e79575f610e7b565b845b600480546040516370a0823160e01b815230928101929092529192505f916001600160a01b0316906370a0823190602401602060405180830381865afa158015610ec7573d5f803e3d5ffd5b505050506040513d601f19601f82011682018060405250810190610eeb91906139ed565b905060045f9054906101000a90046001600160a01b03166001600160a01b0316631036796c8385898f5f806040518763ffffffff1660e01b8152600401610f36959493929190613a04565b5f604051808303818588803b158015610f4d575f80fd5b505af1158015610f5f573d5f803e3d5ffd5b5050600480546040516370a0823160e01b815230928101929092525f94506001600160a01b031692506370a082319150602401602060405180830381865afa158015610fad573d5f803e3d5ffd5b505050506040513d601f19601f82011682018060405250810190610fd191906139ed565b9050610fdd828261396a565b9a50868a6006015f828254610ff29190613a7a565b9091555050335f90815260078b01602052604081208054899290611017908490613a7a565b925050819055508a8a6008015f8282546110319190613a7a565b9091555050335f90815260098b016020526040812080548d9290611056908490613a7a565b9091555061106690508e336128dd565b336001600160a01b03168e7f9b7cde9ab0baba5378bc2d1256798546388e933b358d8bf321a81a1f0346b464898e6040516110ab929190918252602082015260400190565b60405180910390a3505050505050505050506110d360015f80516020613c8b83398151915255565b9392505050565b6110e2612e48565b6103e88111156111345760405162461bcd60e51b815260206004820152601b60248201527f4f776e6572207461782063616e6e6f74206578636565642031302500000000006044820152606401610980565b600355565b611141612e7a565b61114a82612f1e565b610a8c8282612f26565b5f61115d612fe2565b505f80516020613c6b83398151915290565b5f838152600d60205260408120600c81015460ff166111a05760405162461bcd60e51b81526004016109809061392c565b5f805b60028301548110156111f857336001600160a01b03168360020182815481106111ce576111ce61397d565b5f918252602090912001546001600160a01b0316036111f057600191506111f8565b6001016111a3565b50806112165760405162461bcd60e51b815260040161098090613991565b5f86815260106020526040812080549161122f83613a8d565b909155505f878152600f6020908152604080832084845290915290208181556001810180546001600160a01b03191633179055909350600281016112738782613b28565b50600381016112828682613b28565b5061129062093a8042613a7a565b600682015560078101805460ff191690556040513390859089907f6f3322e9e9bcd9739d7dcbb73278ee28b363d39f7900bd404831ee8dfb41608e906112d7908b90613793565b60405180910390a45050509392505050565b5f818152600d60205260409020600c81015460ff1661131a5760405162461bcd60e51b81526004016109809061392c565b600381015460028201541061135e5760405162461bcd60e51b815260206004820152600a602482015269141bdcdcd948199d5b1b60b21b6044820152606401610980565b5f805b60028301548110156113b657336001600160a01b031683600201828154811061138c5761138c61397d565b5f918252602090912001546001600160a01b0316036113ae57600191506113b6565b600101611361565b5080156113f85760405162461bcd60e51b815260206004820152601060248201526f20b63932b0b23c90309036b2b6b132b960811b6044820152606401610980565b600a82015460ff161561149657600282018054600181810183555f928352602080842090920180546001600160a01b031916339081179091558084526005860183526040808520839055600987018452808520859055600e84528085208054938401815585529284209091018690559051909185917f78da64a590c3052953ad9e0a5546bbf12bb68ae7634e3fb2a774e22a8c6557c19190a3505050565b335f818152600f84016020526040808220805460ff191660011790555185917f45a9395af8803805c830b5c9f65e10cd8f75706b5220931c11184880350d489e91a35b505050565b6114e6612e48565b6114ef5f61302b565b565b600d60208190525f9182526040909120805460018201546003830154600484015460068501546008860154600a870154600b880154600c8901549989018054989a6001600160a01b0390981699969895979496939560ff938416959294929093169261155c90613aa5565b80601f016020809104026020016040519081016040528092919081815260200182805461158890613aa5565b80156115d35780601f106115aa576101008083540402835291602001916115d3565b820191905f5260205f20905b8154815290600101906020018083116115b657829003601f168201915b505050505090508a565b6115e5612c9e565b5f818152600d60209081526040808320338452600e810190925290912054806116435760405162461bcd60e51b815260206004820152601060248201526f4e6f206665657320746f20636c61696d60801b6044820152606401610980565b335f908152600e830160205260408120556008546001600160a01b03166116f1576040515f90339083908381818185875af1925050503d805f81146116a3576040519150601f19603f3d011682016040523d82523d5f602084013e6116a8565b606091505b50509050806116eb5760405162461bcd60e51b815260206004820152600f60248201526e151c985b9cd9995c8819985a5b1959608a1b6044820152606401610980565b50611708565b600854611708906001600160a01b03163383612cd5565b604051818152339084907f2227733fc4c8a9034cb58087dcf6995128b9c0233b038b03366aaf30c92b92d69060200160405180910390a3505061175760015f80516020613c8b83398151915255565b50565b5f600a841015801561176d575060648411155b6117af5760405162461bcd60e51b8152602060048201526013602482015272496e76616c6964206d6178206d656d6265727360681b6044820152606401610980565b60118054905f6117be83613a8d565b909155505f818152600d60208181526040832084815560018082018054336001600160a01b0319918216811790925560028401805480850182559088529490962090930180549095169092179093556003830188905560048301869055600a8301805460ff199081168915151790915542600b850155600c8401805490911690911790559192509081016118528782613b28565b50335f8181526005830160209081526040808320600190819055600986018352818420849055600e835281842080549182018155845291909220018490555183907fa710a00e2856aec7a1cbc88a1aafbc590e6a90880130b7a874fe4d8475b1e42b906118c0908a90613793565b60405180910390a350949350505050565b5f828152600d60205260409020600c81015460ff166119025760405162461bcd60e51b81526004016109809061392c565b60038101546002820154106119465760405162461bcd60e51b815260206004820152600a602482015269141bdcdcd948199d5b1b60b21b6044820152606401610980565b60018101545f90336001600160a01b0390911603611966575060016119bf565b5f5b60028301548110156119bd57336001600160a01b03168360020182815481106119935761199361397d565b5f918252602090912001546001600160a01b0316036119b557600191506119bd565b600101611968565b505b806119fd5760405162461bcd60e51b815260206004820152600e60248201526d139bdd08185d5d1a1bdc9a5e995960921b6044820152606401610980565b6001600160a01b0383165f908152600f8301602052604090205460ff16611a585760405162461bcd60e51b815260206004820152600f60248201526e139bc81a9bda5b881c995c5d595cdd608a1b6044820152606401610980565b6001600160a01b0383165f818152600f840160209081526040808320805460ff19169055600286018054600181810183559185528385200180546001600160a01b03191686179055848452600587018352818420819055600987018352818420849055600e83528184208054918201815584529183209091018790555186917ff82bc0e8a4de86d2209664611c85db13af5a495a764e1629b288dc12181d7f3c91a350505050565b7f9016d09d72d40fdae2fd8ceac6b6234c7706214fd39c1cd1e609a0528c199300546001600160a01b031690565b5f828152600d60205260409020600c81015460ff16611b5f5760405162461bcd60e51b81526004016109809061392c565b5f8211611ba65760405162461bcd60e51b81526020600482015260156024820152744e6f206665657320746f206469737472696275746560581b6044820152606401610980565b6008546001600160a01b0316611c0a57813414611c055760405162461bcd60e51b815260206004820152601b60248201527f496e636f7272656374206e6174697665204d4f4e20616d6f756e7400000000006044820152606401610980565b611cc2565b6008546040516370a0823160e01b815230600482015283916001600160a01b0316906370a0823190602401602060405180830381865afa158015611c50573d5f803e3d5ffd5b505050506040513d601f19601f82011682018060405250810190611c7491906139ed565b1015611cc25760405162461bcd60e51b815260206004820152601d60248201527f496e73756666696369656e74206665657320696e20636f6e74726163740000006044820152606401610980565b5f61271060035484611cd491906139b7565b611cde91906139ce565b90505f611ceb828561396a565b90505f6127105f5483611cfe91906139b7565b611d0891906139ce565b90505f61271060015484611d1c91906139b7565b611d2691906139ce565b90505f61271060025485611d3a91906139b7565b611d4491906139ce565b60088701549091508015611dfc575f5b6002880154811015611dfa575f886002018281548110611d7657611d7661397d565b5f9182526020808320909101546001600160a01b031680835260098c019091526040909120549091508015611df0575f84611db1838a6139b7565b611dbb91906139ce565b6001600160a01b0384165f908152600e8d016020526040812080549293508392909190611de9908490613a7a565b9091555050505b5050600101611d54565b505b8515611edc576008546001600160a01b0316611ebe575f611e1b611b00565b6001600160a01b0316876040515f6040518083038185875af1925050503d805f8114611e62576040519150601f19603f3d011682016040523d82523d5f602084013e611e67565b606091505b5050905080611eb85760405162461bcd60e51b815260206004820152601960248201527f4f776e657220746178207472616e73666572206661696c6564000000000000006044820152606401610980565b50611edc565b611edc611ec9611b00565b6008546001600160a01b03169088612cd5565b6008546001600160a01b0316611f4b576004805460408051633ed1d9e760e01b815290516001600160a01b0390921692633ed1d9e7928792808301925f929182900301818588803b158015611f2f575f80fd5b505af1158015611f41573d5f803e3d5ffd5b5050505050611fc0565b600454600854611f68916001600160a01b03918216911685612d86565b600480546040516393d5e96560e01b81529182018590526001600160a01b0316906393d5e965906024015f604051808303815f87803b158015611fa9575f80fd5b505af1158015611fbb573d5f803e3d5ffd5b505050505b8115612099576008546001600160a01b031661207c576006546040515f916001600160a01b03169084908381818185875af1925050503d805f8114612020576040519150601f19603f3d011682016040523d82523d5f602084013e612025565b606091505b50509050806120765760405162461bcd60e51b815260206004820152601860248201527f5472656173757279207472616e73666572206661696c656400000000000000006044820152606401610980565b50612099565b600654600854612099916001600160a01b03918216911684612cd5565b60408051858152602081018590528a917f312c5308f42848705a866c73dec11fd0783c2d64aac6a97e94467062ad3f4058910160405180910390a2505050505050505050565b5f828152600d60209081526040808320600f8352818420858552909252909120600c82015460ff166121235760405162461bcd60e51b81526004016109809061392c565b806006015442116121675760405162461bcd60e51b815260206004820152600e60248201526d566f74696e67206f6e676f696e6760901b6044820152606401610980565b600781015460ff16156121af5760405162461bcd60e51b815260206004820152601060248201526f105b1c9958591e48195e1958dd5d195960821b6044820152606401610980565b80600501548160040154116121f85760405162461bcd60e51b815260206004820152600f60248201526e141c9bdc1bdcd85b0819985a5b1959608a1b6044820152606401610980565b5f8160050154826004015461220d9190613a7a565b90505f612710611388856002018054905061222891906139b7565b61223291906139ce565b9050808210156122755760405162461bcd60e51b815260206004820152600e60248201526d145d5bdc9d5b481b9bdd081b595d60921b6044820152606401610980565b60078301805460ff191660011790556040515f903090612299906003870190613be3565b5f604051808303815f865af19150503d805f81146122d2576040519150601f19603f3d011682016040523d82523d5f602084013e6122d7565b606091505b50509050806123285760405162461bcd60e51b815260206004820152601960248201527f50726f706f73616c20657865637574696f6e206661696c6564000000000000006044820152606401610980565b604051869088907ff758fc91e01b00ea6b4a6138756f7f28e021f9bf21db6dbf8c36c88eb737257a905f90a350505050505050565b5f828152600f60209081526040808320848452909152812060018101546004820154600583015460068401546007850154600286018054606097899788978897889793966001600160a01b03909316959491939092909160ff9091169085906123c590613aa5565b80601f01602080910402602001604051908101604052809291908181526020018280546123f190613aa5565b801561243c5780601f106124135761010080835404028352916020019161243c565b820191905f5260205f20905b81548152906001019060200180831161241f57829003601f168201915b50505050509450965096509650965096509650509295509295509295565b612462612e48565b612710816124708486613a7a565b61247a9190613a7a565b146124c75760405162461bcd60e51b815260206004820152601b60248201527f4665652073706c697473206d7573742073756d20746f203130302500000000006044820152606401610980565b5f92909255600155600255565b5f818152600d6020908152604091829020600201805483518184028101840190945280845260609392830182828015610aed57602002820191905f5260205f20905b81546001600160a01b031681526001909101906020018083116125165750505050509050919050565b600f60209081525f928352604080842090915290825290208054600182015460028301805492936001600160a01b039092169261257b90613aa5565b80601f01602080910402602001604051908101604052809291908181526020018280546125a790613aa5565b80156125f25780601f106125c9576101008083540402835291602001916125f2565b820191905f5260205f20905b8154815290600101906020018083116125d557829003601f168201915b50505050509080600301805461260790613aa5565b80601f016020809104026020016040519081016040528092919081815260200182805461263390613aa5565b801561267e5780601f106126555761010080835404028352916020019161267e565b820191905f5260205f20905b81548152906001019060200180831161266157829003601f168201915b505050506004830154600584015460068501546007909501549394919390925060ff1688565b5f838152600d60209081526040808320600f8352818420868552909252909120600c82015460ff166126e85760405162461bcd60e51b81526004016109809061392c565b806006015442111561272b5760405162461bcd60e51b815260206004820152600c60248201526b159bdd1a5b99c8195b99195960a21b6044820152606401610980565b600781015460ff16156127745760405162461bcd60e51b8152602060048201526011602482015270141c9bdc1bdcd85b08195e1958dd5d1959607a1b6044820152606401610980565b335f90815260088201602052604090205460ff16156127c55760405162461bcd60e51b815260206004820152600d60248201526c105b1c9958591e481d9bdd1959609a1b6044820152606401610980565b5f805b600284015481101561281d57336001600160a01b03168460020182815481106127f3576127f361397d565b5f918252602090912001546001600160a01b031603612815576001915061281d565b6001016127c8565b508061283b5760405162461bcd60e51b815260040161098090613991565b335f9081526008830160205260409020805460ff19166001179055831561287757600482018054905f61286d83613a8d565b919050555061288e565b600582018054905f61288883613a8d565b91905055505b336001600160a01b031685877fcf406698ccd2e1843c86ce48b4b51b12459c13f2300d5a7887814d571ae224f3876040516128cd911515815260200190565b60405180910390a4505050505050565b5f828152600d60205260409020600c81015460ff1661290e5760405162461bcd60e51b81526004016109809061392c565b6001600160a01b0382165f908152600782016020526040812054600c54909190821061293c57506003612951565b600b54821061294d57506002612951565b5060015b6001600160a01b0384165f818152600585016020526040908190208390555186907f482a7597827831401ebde36934845f3fcd936f005eaa6ea05c7b8ae638bfeb1a906129a19085815260200190565b60405180910390a35050505050565b6129b8612e48565b6001600160a01b038116612a0e5760405162461bcd60e51b815260206004820152601f60248201527f54726561737572792063616e6e6f74206265207a65726f2061646472657373006044820152606401610980565b600680546001600160a01b0319166001600160a01b0392909216919091179055565b612a38612e48565b6001600160a01b038116612a6157604051631e4fbdf760e01b81525f6004820152602401610980565b6117578161302b565b5f612a7361309b565b805490915060ff600160401b820416159067ffffffffffffffff165f81158015612a9a5750825b90505f8267ffffffffffffffff166001148015612ab65750303b155b905081158015612ac4575080155b15612ae25760405163f92ee8a960e01b815260040160405180910390fd5b845467ffffffffffffffff191660011785558315612b0c57845460ff60401b1916600160401b1785555b612b15866130c3565b612b1d6130d4565b612b256130dc565b8e60045f6101000a8154816001600160a01b0302191690836001600160a01b031602179055508d60055f6101000a8154816001600160a01b0302191690836001600160a01b031602179055508c60075f6101000a8154816001600160a01b0302191690836001600160a01b031602179055508b60085f6101000a8154816001600160a01b0302191690836001600160a01b031602179055508a60095f6101000a8154816001600160a01b0302191690836001600160a01b031602179055508960065f6101000a8154816001600160a01b0302191690836001600160a01b0316021790555088600a8190555087600b8190555086600c819055506001601181905550611d4c5f819055506107d06001819055506101f46002819055505f6003819055508315612c8d57845460ff60401b19168555604051600181527fc7f505b2f371ae2175ee4913f4499e1f2633a7b5936321eed1cdaeb6115181d29060200160405180910390a15b505050505050505050505050505050565b5f80516020613c8b833981519152805460011901612ccf57604051633ee5aeb560e01b815260040160405180910390fd5b60029055565b6040516001600160a01b038381166024830152604482018390526114d991859182169063a9059cbb906064015b604051602081830303815290604052915060e01b6020820180516001600160e01b0383818316178352505050506130ec565b60015f80516020613c8b83398151915255565b6040516001600160a01b038481166024830152838116604483015260648201839052612d809186918216906323b872dd90608401612d02565b50505050565b604080516001600160a01b038416602482015260448082018490528251808303909101815260649091019091526020810180516001600160e01b031663095ea7b360e01b179052612dd78482613158565b612d80576040516001600160a01b0384811660248301525f6044830152612e0b91869182169063095ea7b390606401612d02565b612d8084826130ec565b5f80826001600160a01b0316846001600160a01b03161015612e3b575082905081612e41565b50819050825b9250929050565b33612e51611b00565b6001600160a01b0316146114ef5760405163118cdaa760e01b8152336004820152602401610980565b306001600160a01b037f0000000000000000000000000000000000000000000000000000000000000000161480612f0057507f00000000000000000000000000000000000000000000000000000000000000006001600160a01b0316612ef45f80516020613c6b833981519152546001600160a01b031690565b6001600160a01b031614155b156114ef5760405163703e46dd60e11b815260040160405180910390fd5b611757612e48565b816001600160a01b03166352d1902d6040518163ffffffff1660e01b8152600401602060405180830381865afa925050508015612f80575060408051601f3d908101601f19168201909252612f7d918101906139ed565b60015b612fa857604051634c9c8ce360e01b81526001600160a01b0383166004820152602401610980565b5f80516020613c6b8339815191528114612fd857604051632a87526960e21b815260048101829052602401610980565b6114d983836131a1565b306001600160a01b037f000000000000000000000000000000000000000000000000000000000000000016146114ef5760405163703e46dd60e11b815260040160405180910390fd5b7f9016d09d72d40fdae2fd8ceac6b6234c7706214fd39c1cd1e609a0528c19930080546001600160a01b031981166001600160a01b03848116918217845560405192169182907f8be0079c531659141344cd1fd0a4f28419497f9722a3daafe3b4186f6b6457e0905f90a3505050565b5f807ff0c57e16840df040f15088dc2f81fe391c3923bec73e23a9662efc9c229c6a00610941565b6130cb6131f6565b6117578161321b565b6114ef6131f6565b6130e46131f6565b6114ef613223565b5f8060205f8451602086015f885af18061310b576040513d5f823e3d81fd5b50505f513d9150811561312257806001141561312f565b6001600160a01b0384163b155b15612d8057604051635274afe760e01b81526001600160a01b0385166004820152602401610980565b5f805f8060205f8651602088015f8a5af192503d91505f519050828015613197575081156131895780600114613197565b5f866001600160a01b03163b115b9695505050505050565b6131aa8261322b565b6040516001600160a01b038316907fbc7cd75a20ee27fd9adebab32041f755214dbc6bffa90cc0225b39da2e5c2d3b905f90a28051156131ee576114d9828261328e565b610a8c613300565b6131fe61331f565b6114ef57604051631afcd79f60e31b815260040160405180910390fd5b612a386131f6565b612d346131f6565b806001600160a01b03163b5f0361326057604051634c9c8ce360e01b81526001600160a01b0382166004820152602401610980565b5f80516020613c6b83398151915280546001600160a01b0319166001600160a01b0392909216919091179055565b60605f80846001600160a01b0316846040516132aa9190613c54565b5f60405180830381855af49150503d805f81146132e2576040519150601f19603f3d011682016040523d82523d5f602084013e6132e7565b606091505b50915091506132f7858383613338565b95945050505050565b34156114ef5760405163b398979f60e01b815260040160405180910390fd5b5f61332861309b565b54600160401b900460ff16919050565b60608261334d5761334882613394565b6110d3565b815115801561336457506001600160a01b0384163b155b1561338d57604051639996b31560e01b81526001600160a01b0385166004820152602401610980565b50806110d3565b8051156133a357805160208201fd5b60405163d6bda27560e01b815260040160405180910390fd5b6001600160a01b0381168114611757575f80fd5b5f80604083850312156133e1575f80fd5b8235915060208301356133f3816133bc565b809150509250929050565b5f806040838503121561340f575f80fd5b50508035926020909101359150565b5f6020828403121561342e575f80fd5b81356110d3816133bc565b602080825282518282018190525f918401906040840190835b81811015613470578351835260209384019390920191600101613452565b509095945050505050565b5f806040838503121561348c575f80fd5b8235613497816133bc565b946020939093013593505050565b5f805f606084860312156134b7575f80fd5b505081359360208301359350604090920135919050565b5f602082840312156134de575f80fd5b5035919050565b634e487b7160e01b5f52604160045260245ffd5b5f82601f830112613508575f80fd5b8135602083015f8067ffffffffffffffff841115613528576135286134e5565b50604051601f19601f85018116603f0116810181811067ffffffffffffffff82111715613557576135576134e5565b60405283815290508082840187101561356e575f80fd5b838360208301375f602085830101528094505050505092915050565b5f806040838503121561359b575f80fd5b82356135a6816133bc565b9150602083013567ffffffffffffffff8111156135c1575f80fd5b6135cd858286016134f9565b9150509250929050565b5f805f606084860312156135e9575f80fd5b83359250602084013567ffffffffffffffff811115613606575f80fd5b613612868287016134f9565b925050604084013567ffffffffffffffff81111561362e575f80fd5b61363a868287016134f9565b9150509250925092565b5f81518084528060208401602086015e5f602082860101526020601f19601f83011685010191505092915050565b8a815260018060a01b038a1660208201528860408201528760608201528660808201528560a082015284151560c08201528360e08201528215156101008201526101406101208201525f6136ca610140830184613644565b9c9b505050505050505050505050565b803580151581146136e9575f80fd5b919050565b5f805f8060808587031215613701575f80fd5b843567ffffffffffffffff811115613717575f80fd5b613723878288016134f9565b94505060208501359250613739604086016136da565b9396929550929360600135925050565b6001600160a01b038716815260c0602082018190525f9061376c90830188613644565b905085604083015284606083015283608083015282151560a0830152979650505050505050565b602081525f6110d36020830184613644565b602080825282518282018190525f918401906040840190835b818110156134705783516001600160a01b03168352602093840193909201916001016137be565b8881526001600160a01b0388166020820152610100604082018190525f9061380f90830189613644565b82810360608401526138218189613644565b9150508560808301528460a08301528360c083015282151560e08301529998505050505050505050565b5f805f6060848603121561385d575f80fd5b8335925060208401359150613874604085016136da565b90509250925092565b5f805f805f805f805f806101408b8d031215613897575f80fd5b8a356138a2816133bc565b995060208b01356138b2816133bc565b985060408b01356138c2816133bc565b975060608b01356138d2816133bc565b965060808b01356138e2816133bc565b955060a08b01356138f2816133bc565b945060c08b0135935060e08b013592506101008b013591506101208b0135613919816133bc565b809150509295989b9194979a5092959850565b60208082526010908201526f506f737365206e6f742061637469766560801b604082015260600190565b634e487b7160e01b5f52601160045260245ffd5b8181038181111561094157610941613956565b634e487b7160e01b5f52603260045260245ffd5b6020808252600c908201526b2737ba10309036b2b6b132b960a11b604082015260600190565b808202811582820484141761094157610941613956565b5f826139e857634e487b7160e01b5f52601260045260245ffd5b500490565b5f602082840312156139fd575f80fd5b5051919050565b85516001600160a01b03908116825260208088015182169083015260408088015162ffffff169083015260608088015160020b908301526080808801519091169082015260a0810185905260c081018490526101208101613a6a60e083018560020b9052565b61319761010083018460020b9052565b8082018082111561094157610941613956565b5f60018201613a9e57613a9e613956565b5060010190565b600181811c90821680613ab957607f821691505b602082108103613ad757634e487b7160e01b5f52602260045260245ffd5b50919050565b601f8211156114d957805f5260205f20601f840160051c81016020851015613b025750805b601f840160051c820191505b81811015613b21575f8155600101613b0e565b5050505050565b815167ffffffffffffffff811115613b4257613b426134e5565b613b5681613b508454613aa5565b84613add565b6020601f821160018114613b88575f8315613b715750848201515b5f19600385901b1c1916600184901b178455613b21565b5f84815260208120601f198516915b82811015613bb75787850151825560209485019460019092019101613b97565b5084821015613bd457868401515f19600387901b60f8161c191681555b50505050600190811b01905550565b5f808354613bf081613aa5565b600182168015613c075760018114613c1c57613c49565b60ff1983168652811515820286019350613c49565b865f5260205f205f5b83811015613c4157815488820152600190910190602001613c25565b505081860193505b509195945050505050565b5f82518060208501845e5f92019182525091905056fe360894a13ba1a3210667c828492db98dca3e2076cc3735a920a3ca505d382bbc9b779b17422d0df92223018b32b4d1fa46e071723d6817e2486d003becc55f00a26469706673582212203286498051d30fc5f9e9f25492d26ce1262218806ec1744be54e99e5ec404d6b64736f6c634300081a0033",
  "linkReferences": {},
  "deployedLinkReferences": {}
}