{
  "_format": "hh-sol-artifact-1",
  "contractName": "ERC6551Account",
  "sourceName": "contracts/ERC6551Account.sol",
  "abi": [
    {
      "inputs": [
        {
          "internalType": "address",
          "name": "to",
          "type": "address"
        },
        {
          "internalType": "uint256",
          "name": "value",
          "type": "uint256"
        },
        {
          "internalType": "bytes",
          "name": "data",
          "type": "bytes"
        },
        {
          "internalType": "uint8",
          "name": "operation",
          "type": "uint8"
        }
      ],
      "name": "execute",
      "outputs": [
        {
          "internalType": "bytes",
          "name": "result",
          "type": "bytes"
        }
      ],
      "stateMutability": "payable",
      "type": "function"
    },
    {
      "inputs": [
        {
          "internalType": "bytes32",
          "name": "hash",
          "type": "bytes32"
        },
        {
          "internalType": "bytes",
          "name": "signature",
          "type": "bytes"
        }
      ],
      "name": "isValidSignature",
      "outputs": [
        {
          "internalType": "bytes4",
          "name": "magicValue",
          "type": "bytes4"
        }
      ],
      "stateMutability": "view",
      "type": "function"
    },
    {
      "inputs": [],
      "name": "owner",
      "outputs": [
        {
          "internalType": "address",
          "name": "",
          "type": "address"
        }
      ],
      "stateMutability": "view",
      "type": "function"
    },
    {
      "inputs": [],
      "name": "state",
      "outputs": [
        {
          "internalType": "uint256",
          "name": "",
          "type": "uint256"
        }
      ],
      "stateMutability": "view",
      "type": "function"
    },
    {
      "inputs": [
        {
          "internalType": "bytes4",
          "name": "interfaceId",
          "type": "bytes4"
        }
      ],
      "name": "supportsInterface",
      "outputs": [
        {
          "internalType": "bool",
          "name": "",
          "type": "bool"
        }
      ],
      "stateMutability": "pure",
      "type": "function"
    },
    {
      "inputs": [],
      "name": "token",
      "outputs": [
        {
          "internalType": "uint256",
          "name": "",
          "type": "uint256"
        },
        {
          "internalType": "address",
          "name": "",
          "type": "address"
        },
        {
          "internalType": "uint256",
          "name": "",
          "type": "uint256"
        }
      ],
      "stateMutability": "view",
      "type": "function"
    },
    {
      "stateMutability": "payable",
      "type": "receive"
    }
  ],
  "bytecode": "0x6080806040523460155761075c908161001a8239f35b5f80fdfe6080604052600436101561001a575b3615610018575f80fd5b005b5f3560e01c806301ffc9a7146100795780631626ba7e14610074578063519454471461006f5780638da5cb5b1461006a578063c19d93fb146100655763fc0c546a0361000e576102f9565b6102dd565b6102b1565b610230565b610140565b346100e55760203660031901126100e55760043563ffffffff60e01b81168091036100e5576301ffc9a760e01b81149081156100d4575b81156100c3575b50151560805260206080f35b630b135d3f60e11b149050816100b7565b63581a066560e11b811491506100b0565b5f80fd5b634e487b7160e01b5f52604160045260245ffd5b90601f8019910116810190811067ffffffffffffffff82111761011f57604052565b6100e9565b67ffffffffffffffff811161011f57601f01601f191660200190565b346100e55760403660031901126100e55760243567ffffffffffffffff81116100e557366023820112156100e55780600401359061017d82610124565b61018a60405191826100fd565b82815236602484840101116100e5575f6020846101d39560246101b896018386013783010152600435610330565b6040516001600160e01b031990911681529081906020820190565b0390f35b6001600160a01b038116036100e557565b6064359060ff821682036100e557565b805180835260209291819084018484015e5f828201840152601f01601f1916010190565b90602061022d9281815201906101f8565b90565b60803660031901126100e557600435610248816101d7565b6044359067ffffffffffffffff82116100e557366023830112156100e55781600401359167ffffffffffffffff83116100e55736602484830101116100e5576101d3926102a59260246102996101e8565b930190602435906103ff565b6040519182918261021c565b346100e5575f3660031901126100e55760206102cb6104a4565b6040516001600160a01b039091168152f35b346100e5575f3660031901126100e55760205f54604051908152f35b346100e5575f3660031901126100e5576060610313610530565b604080519384526001600160a01b03909216602084015290820152f35b906103429161033d6104a4565b6105a3565b61034a575f90565b630b135d3f60e11b90565b1561035c57565b60405162461bcd60e51b815260206004820152601e60248201527f4f6e6c792063616c6c206f7065726174696f6e7320737570706f7274656400006044820152606490fd5b5f1981146103af5760010190565b634e487b7160e01b5f52601160045260245ffd5b908092918237015f815290565b3d156103fa573d906103e182610124565b916103ef60405193846100fd565b82523d5f602084013e565b606090565b919392906001600160a01b036104136104a4565b163303610463575f9461042a60ff87961615610355565b61043485546103a1565b8555610445604051809481936103c3565b03925af1906104526103d0565b911561045a57565b50602081519101fd5b60405162461bcd60e51b815260206004820152600e60248201526d24b73b30b634b21039b4b3b732b960911b6044820152606490fd5b6040513d5f823e3d90fd5b6104ac610530565b9091460361052a576040516331a9108f60e11b8152600481019190915290602090829060249082906001600160a01b03165afa908115610525575f916104f0575090565b90506020813d60201161051d575b8161050b602093836100fd565b810103126100e5575161022d816101d7565b3d91506104fe565b610499565b50505f90565b6040519061053f60a0836100fd565b6080808352602d6020840182368237303c6080828051810103126100e5576040820151906080606084015193610574856101d7565b015191926001600160a01b03169190565b6004111561058f57565b634e487b7160e01b5f52602160045260245ffd5b9190823b6105de57906105b59161066a565b506105bf81610585565b1591826105cb57505090565b6001600160a01b03918216911614919050565b915f9261061461062285946040519283916020830195630b135d3f60e11b875260248401526040604484015260648301906101f8565b03601f1981018352826100fd565b51915afa61062e6103d0565b8161065c575b8161063d575090565b90506020818051810103126100e55760200151630b135d3f60e11b1490565b905060208151101590610634565b815191906041830361069a576106939250602082015190606060408401519301515f1a906106a4565b9192909190565b50505f9160029190565b91907f7fffffffffffffffffffffffffffffff5d576e7357a4501ddfe92f46681b20a0841161071b579160209360809260ff5f9560405194855216868401526040830152606082015282805260015afa15610525575f516001600160a01b0381161561071157905f905f90565b505f906001905f90565b5050505f916003919056fea26469706673582212209a4f6511f769e4646b1821d55abb238e49c83c6c0498575c2bd280942bf02fa964736f6c634300081a0033",
  "linkReferences": {},
  "deployedLinkReferences": {}
}